{
  "_format": "hh-sol-artifact-1",
  "contractName": "MashNFT",
  "sourceName": "contracts/MashNFT.sol",
  "abi": [
    {
      "inputs": [],
      "stateMutability": "nonpayable",
      "type": "constructor"
    },
    {
      "anonymous": false,
      "inputs": [
        {
          "indexed": true,
          "internalType": "address",
          "name": "owner",
          "type": "address"
        },
        {
          "indexed": true,
          "internalType": "address",
          "name": "approved",
          "type": "address"
        },
        {
          "indexed": true,
          "internalType": "uint256",
          "name": "tokenId",
          "type": "uint256"
        }
      ],
      "name": "Approval",
      "type": "event"
    },
    {
      "anonymous": false,
      "inputs": [
        {
          "indexed": true,
          "internalType": "address",
          "name": "owner",
          "type": "address"
        },
        {
          "indexed": true,
          "internalType": "address",
          "name": "operator",
          "type": "address"
        },
        {
          "indexed": false,
          "internalType": "bool",
          "name": "approved",
          "type": "bool"
        }
      ],
      "name": "ApprovalForAll",
      "type": "event"
    },
    {
      "anonymous": false,
      "inputs": [
        {
          "indexed": true,
          "internalType": "address",
          "name": "from",
          "type": "address"
        },
        {
          "indexed": true,
          "internalType": "address",
          "name": "to",
          "type": "address"
        },
        {
          "indexed": true,
          "internalType": "uint256",
          "name": "tokenId",
          "type": "uint256"
        }
      ],
      "name": "Transfer",
      "type": "event"
    },
    {
      "inputs": [
        {
          "internalType": "address",
          "name": "to",
          "type": "address"
        },
        {
          "internalType": "uint256",
          "name": "tokenId",
          "type": "uint256"
        }
      ],
      "name": "approve",
      "outputs": [],
      "stateMutability": "nonpayable",
      "type": "function"
    },
    {
      "inputs": [
        {
          "internalType": "address",
          "name": "owner",
          "type": "address"
        }
      ],
      "name": "balanceOf",
      "outputs": [
        {
          "internalType": "uint256",
          "name": "",
          "type": "uint256"
        }
      ],
      "stateMutability": "view",
      "type": "function"
    },
    {
      "inputs": [
        {
          "internalType": "uint256",
          "name": "tokenId",
          "type": "uint256"
        }
      ],
      "name": "getApproved",
      "outputs": [
        {
          "internalType": "address",
          "name": "",
          "type": "address"
        }
      ],
      "stateMutability": "view",
      "type": "function"
    },
    {
      "inputs": [
        {
          "internalType": "address",
          "name": "owner",
          "type": "address"
        },
        {
          "internalType": "address",
          "name": "operator",
          "type": "address"
        }
      ],
      "name": "isApprovedForAll",
      "outputs": [
        {
          "internalType": "bool",
          "name": "",
          "type": "bool"
        }
      ],
      "stateMutability": "view",
      "type": "function"
    },
    {
      "inputs": [],
      "name": "makeAnEpicNFT",
      "outputs": [],
      "stateMutability": "nonpayable",
      "type": "function"
    },
    {
      "inputs": [],
      "name": "name",
      "outputs": [
        {
          "internalType": "string",
          "name": "",
          "type": "string"
        }
      ],
      "stateMutability": "view",
      "type": "function"
    },
    {
      "inputs": [
        {
          "internalType": "uint256",
          "name": "tokenId",
          "type": "uint256"
        }
      ],
      "name": "ownerOf",
      "outputs": [
        {
          "internalType": "address",
          "name": "",
          "type": "address"
        }
      ],
      "stateMutability": "view",
      "type": "function"
    },
    {
      "inputs": [
        {
          "internalType": "uint256",
          "name": "tokenId",
          "type": "uint256"
        }
      ],
      "name": "pickRandomImage",
      "outputs": [
        {
          "internalType": "string",
          "name": "",
          "type": "string"
        }
      ],
      "stateMutability": "view",
      "type": "function"
    },
    {
      "inputs": [
        {
          "internalType": "address",
          "name": "from",
          "type": "address"
        },
        {
          "internalType": "address",
          "name": "to",
          "type": "address"
        },
        {
          "internalType": "uint256",
          "name": "tokenId",
          "type": "uint256"
        }
      ],
      "name": "safeTransferFrom",
      "outputs": [],
      "stateMutability": "nonpayable",
      "type": "function"
    },
    {
      "inputs": [
        {
          "internalType": "address",
          "name": "from",
          "type": "address"
        },
        {
          "internalType": "address",
          "name": "to",
          "type": "address"
        },
        {
          "internalType": "uint256",
          "name": "tokenId",
          "type": "uint256"
        },
        {
          "internalType": "bytes",
          "name": "_data",
          "type": "bytes"
        }
      ],
      "name": "safeTransferFrom",
      "outputs": [],
      "stateMutability": "nonpayable",
      "type": "function"
    },
    {
      "inputs": [
        {
          "internalType": "address",
          "name": "operator",
          "type": "address"
        },
        {
          "internalType": "bool",
          "name": "approved",
          "type": "bool"
        }
      ],
      "name": "setApprovalForAll",
      "outputs": [],
      "stateMutability": "nonpayable",
      "type": "function"
    },
    {
      "inputs": [
        {
          "internalType": "bytes4",
          "name": "interfaceId",
          "type": "bytes4"
        }
      ],
      "name": "supportsInterface",
      "outputs": [
        {
          "internalType": "bool",
          "name": "",
          "type": "bool"
        }
      ],
      "stateMutability": "view",
      "type": "function"
    },
    {
      "inputs": [],
      "name": "symbol",
      "outputs": [
        {
          "internalType": "string",
          "name": "",
          "type": "string"
        }
      ],
      "stateMutability": "view",
      "type": "function"
    },
    {
      "inputs": [
        {
          "internalType": "uint256",
          "name": "tokenId",
          "type": "uint256"
        }
      ],
      "name": "tokenURI",
      "outputs": [
        {
          "internalType": "string",
          "name": "",
          "type": "string"
        }
      ],
      "stateMutability": "view",
      "type": "function"
    },
    {
      "inputs": [
        {
          "internalType": "address",
          "name": "from",
          "type": "address"
        },
        {
          "internalType": "address",
          "name": "to",
          "type": "address"
        },
        {
          "internalType": "uint256",
          "name": "tokenId",
          "type": "uint256"
        }
      ],
      "name": "transferFrom",
      "outputs": [],
      "stateMutability": "nonpayable",
      "type": "function"
    }
  ],
  "bytecode": "0x608060405260405180604001604052806040518060200160405280600081525081526020016040518060200160405280600081525081525060089060026200004992919062000215565b503480156200005757600080fd5b506040518060400160405280600781526020017f4d6173684e4654000000000000000000000000000000000000000000000000008152506040518060400160405280600481526020017f4d415348000000000000000000000000000000000000000000000000000000008152508160009080519060200190620000dc9291906200027c565b508060019080519060200190620000f59291906200027c565b505050620001436040518060400160405280601c81526020017f54686973206973206d79204d6173684e465420636f6e74726163742e000000008152506200014960201b62000e091760201c565b620004c7565b620001e981604051602401620001609190620003db565b6040516020818303038152906040527f41304fac000000000000000000000000000000000000000000000000000000007bffffffffffffffffffffffffffffffffffffffffffffffffffffffff19166020820180517bffffffffffffffffffffffffffffffffffffffffffffffffffffffff8381831617835250505050620001ec60201b60201c565b50565b60008151905060006a636f6e736f6c652e6c6f679050602083016000808483855afa5050505050565b82805482825590600052602060002090810192821562000269579160200282015b8281111562000268578251829080519060200190620002579291906200027c565b509160200191906001019062000236565b5b5090506200027891906200030d565b5090565b8280546200028a9062000451565b90600052602060002090601f016020900481019282620002ae5760008555620002fa565b82601f10620002c957805160ff1916838001178555620002fa565b82800160010185558215620002fa579182015b82811115620002f9578251825591602001919060010190620002dc565b5b50905062000309919062000335565b5090565b5b8082111562000331576000818162000327919062000354565b506001016200030e565b5090565b5b808211156200035057600081600090555060010162000336565b5090565b508054620003629062000451565b6000825580601f1062000376575062000397565b601f01602090049060005260206000209081019062000396919062000335565b5b50565b6000620003a782620003ff565b620003b381856200040a565b9350620003c58185602086016200041b565b620003d081620004b6565b840191505092915050565b60006020820190508181036000830152620003f781846200039a565b905092915050565b600081519050919050565b600082825260208201905092915050565b60005b838110156200043b5780820151818401526020810190506200041e565b838111156200044b576000848401525b50505050565b600060028204905060018216806200046a57607f821691505b6020821081141562000481576200048062000487565b5b50919050565b7f4e487b7100000000000000000000000000000000000000000000000000000000600052602260045260246000fd5b6000601f19601f8301169050919050565b61365b80620004d76000396000f3fe608060405234801561001057600080fd5b50600436106100f55760003560e01c806370a0823111610097578063c87b56dd11610066578063c87b56dd14610282578063d13508fc146102b2578063de9d132f146102e2578063e985e9c5146102ec576100f5565b806370a08231146101fc57806395d89b411461022c578063a22cb4651461024a578063b88d4fde14610266576100f5565b8063095ea7b3116100d3578063095ea7b31461017857806323b872dd1461019457806342842e0e146101b05780636352211e146101cc576100f5565b806301ffc9a7146100fa57806306fdde031461012a578063081812fc14610148575b600080fd5b610114600480360381019061010f91906122d1565b61031c565b604051610121919061289d565b60405180910390f35b6101326103fe565b60405161013f91906128b8565b60405180910390f35b610162600480360381019061015d9190612323565b610490565b60405161016f9190612836565b60405180910390f35b610192600480360381019061018d9190612295565b610515565b005b6101ae60048036038101906101a9919061218f565b61062d565b005b6101ca60048036038101906101c5919061218f565b61068d565b005b6101e660048036038101906101e19190612323565b6106ad565b6040516101f39190612836565b60405180910390f35b6102166004803603810190610211919061212a565b61075f565b6040516102239190612b48565b60405180910390f35b610234610817565b60405161024191906128b8565b60405180910390f35b610264600480360381019061025f9190612259565b6108a9565b005b610280600480360381019061027b91906121de565b6108bf565b005b61029c60048036038101906102979190612323565b610921565b6040516102a991906128b8565b60405180910390f35b6102cc60048036038101906102c79190612323565b610a73565b6040516102d991906128b8565b60405180910390f35b6102ea610c0f565b005b61030660048036038101906103019190612153565b610d75565b604051610313919061289d565b60405180910390f35b60007f80ac58cd000000000000000000000000000000000000000000000000000000007bffffffffffffffffffffffffffffffffffffffffffffffffffffffff1916827bffffffffffffffffffffffffffffffffffffffffffffffffffffffff191614806103e757507f5b5e139f000000000000000000000000000000000000000000000000000000007bffffffffffffffffffffffffffffffffffffffffffffffffffffffff1916827bffffffffffffffffffffffffffffffffffffffffffffffffffffffff1916145b806103f757506103f682610ea2565b5b9050919050565b60606000805461040d90612dc7565b80601f016020809104026020016040519081016040528092919081815260200182805461043990612dc7565b80156104865780601f1061045b57610100808354040283529160200191610486565b820191906000526020600020905b81548152906001019060200180831161046957829003601f168201915b5050505050905090565b600061049b82610f0c565b6104da576040517f08c379a00000000000000000000000000000000000000000000000000000000081526004016104d190612ac8565b60405180910390fd5b6004600083815260200190815260200160002060009054906101000a900473ffffffffffffffffffffffffffffffffffffffff169050919050565b6000610520826106ad565b90508073ffffffffffffffffffffffffffffffffffffffff168373ffffffffffffffffffffffffffffffffffffffff161415610591576040517f08c379a000000000000000000000000000000000000000000000000000000000815260040161058890612b08565b60405180910390fd5b8073ffffffffffffffffffffffffffffffffffffffff166105b0610f78565b73ffffffffffffffffffffffffffffffffffffffff1614806105df57506105de816105d9610f78565b610d75565b5b61061e576040517f08c379a000000000000000000000000000000000000000000000000000000000815260040161061590612a08565b60405180910390fd5b6106288383610f80565b505050565b61063e610638610f78565b82611039565b61067d576040517f08c379a000000000000000000000000000000000000000000000000000000000815260040161067490612b28565b60405180910390fd5b610688838383611117565b505050565b6106a8838383604051806020016040528060008152506108bf565b505050565b6000806002600084815260200190815260200160002060009054906101000a900473ffffffffffffffffffffffffffffffffffffffff169050600073ffffffffffffffffffffffffffffffffffffffff168173ffffffffffffffffffffffffffffffffffffffff161415610756576040517f08c379a000000000000000000000000000000000000000000000000000000000815260040161074d90612a48565b60405180910390fd5b80915050919050565b60008073ffffffffffffffffffffffffffffffffffffffff168273ffffffffffffffffffffffffffffffffffffffff1614156107d0576040517f08c379a00000000000000000000000000000000000000000000000000000000081526004016107c790612a28565b60405180910390fd5b600360008373ffffffffffffffffffffffffffffffffffffffff1673ffffffffffffffffffffffffffffffffffffffff168152602001908152602001600020549050919050565b60606001805461082690612dc7565b80601f016020809104026020016040519081016040528092919081815260200182805461085290612dc7565b801561089f5780601f106108745761010080835404028352916020019161089f565b820191906000526020600020905b81548152906001019060200180831161088257829003601f168201915b5050505050905090565b6108bb6108b4610f78565b838361137e565b5050565b6108d06108ca610f78565b83611039565b61090f576040517f08c379a000000000000000000000000000000000000000000000000000000000815260040161090690612b28565b60405180910390fd5b61091b848484846114eb565b50505050565b606061092c82610f0c565b61096b576040517f08c379a000000000000000000000000000000000000000000000000000000000815260040161096290612aa8565b60405180910390fd5b600060066000848152602001908152602001600020805461098b90612dc7565b80601f01602080910402602001604051908101604052809291908181526020018280546109b790612dc7565b8015610a045780601f106109d957610100808354040283529160200191610a04565b820191906000526020600020905b8154815290600101906020018083116109e757829003601f168201915b505050505090506000610a15611547565b9050600081511415610a2b578192505050610a6e565b600082511115610a60578082604051602001610a4892919061276f565b60405160208183030381529060405292505050610a6e565b610a698461155e565b925050505b919050565b60606000610aa7610a8384611605565b604051602001610a939190612793565b6040516020818303038152906040526117b2565b9050610ae86040518060400160405280600b81526020017f72616e6420736565643a20000000000000000000000000000000000000000000815250826117e5565b60088054905081610af99190612e7d565b9050610b3a6040518060400160405280600c81526020017f72616e6420696d6167653a200000000000000000000000000000000000000000815250826117e5565b60088181548110610b74577f4e487b7100000000000000000000000000000000000000000000000000000000600052603260045260246000fd5b906000526020600020018054610b8990612dc7565b80601f0160208091040260200160405190810160405280929190818152602001828054610bb590612dc7565b8015610c025780601f10610bd757610100808354040283529160200191610c02565b820191906000526020600020905b815481529060010190602001808311610be557829003601f168201915b5050505050915050919050565b6000610c1b6007611881565b90506000610c2882610a73565b9050600081604051602001610c3d9190612758565b60405160208183030381529060405290506000610c8284610c5d8461188f565b604051602001610c6e9291906127b5565b60405160208183030381529060405261188f565b9050600081604051602001610c979190612814565b6040516020818303038152906040529050610ce66040518060400160405280601581526020017f0a2d2d2d2d2d2d2d2d2d2d2d2d2d2d2d2d2d2d2d2d0000000000000000000000815250610e09565b610cef81610e09565b610d2d6040518060400160405280601581526020017f2d2d2d2d2d2d2d2d2d2d2d2d2d2d2d2d2d2d2d2d0a0000000000000000000000815250610e09565b610d373386611a4d565b610d418582611a6b565b610d646040518060600160405280602581526020016135c1602591398633611adf565b610d6e6007611b7e565b5050505050565b6000600560008473ffffffffffffffffffffffffffffffffffffffff1673ffffffffffffffffffffffffffffffffffffffff16815260200190815260200160002060008373ffffffffffffffffffffffffffffffffffffffff1673ffffffffffffffffffffffffffffffffffffffff16815260200190815260200160002060009054906101000a900460ff16905092915050565b610e9f81604051602401610e1d91906128b8565b6040516020818303038152906040527f41304fac000000000000000000000000000000000000000000000000000000007bffffffffffffffffffffffffffffffffffffffffffffffffffffffff19166020820180517bffffffffffffffffffffffffffffffffffffffffffffffffffffffff8381831617835250505050611b94565b50565b60007f01ffc9a7000000000000000000000000000000000000000000000000000000007bffffffffffffffffffffffffffffffffffffffffffffffffffffffff1916827bffffffffffffffffffffffffffffffffffffffffffffffffffffffff1916149050919050565b60008073ffffffffffffffffffffffffffffffffffffffff166002600084815260200190815260200160002060009054906101000a900473ffffffffffffffffffffffffffffffffffffffff1673ffffffffffffffffffffffffffffffffffffffff1614159050919050565b600033905090565b816004600083815260200190815260200160002060006101000a81548173ffffffffffffffffffffffffffffffffffffffff021916908373ffffffffffffffffffffffffffffffffffffffff160217905550808273ffffffffffffffffffffffffffffffffffffffff16610ff3836106ad565b73ffffffffffffffffffffffffffffffffffffffff167f8c5be1e5ebec7d5bd14f71427d1e84f3dd0314c0f7b2291e5b200ac8c7c3b92560405160405180910390a45050565b600061104482610f0c565b611083576040517f08c379a000000000000000000000000000000000000000000000000000000000815260040161107a906129e8565b60405180910390fd5b600061108e836106ad565b90508073ffffffffffffffffffffffffffffffffffffffff168473ffffffffffffffffffffffffffffffffffffffff1614806110d057506110cf8185610d75565b5b8061110e57508373ffffffffffffffffffffffffffffffffffffffff166110f684610490565b73ffffffffffffffffffffffffffffffffffffffff16145b91505092915050565b8273ffffffffffffffffffffffffffffffffffffffff16611137826106ad565b73ffffffffffffffffffffffffffffffffffffffff161461118d576040517f08c379a000000000000000000000000000000000000000000000000000000000815260040161118490612968565b60405180910390fd5b600073ffffffffffffffffffffffffffffffffffffffff168273ffffffffffffffffffffffffffffffffffffffff1614156111fd576040517f08c379a00000000000000000000000000000000000000000000000000000000081526004016111f4906129a8565b60405180910390fd5b611208838383611bbd565b611213600082610f80565b6001600360008573ffffffffffffffffffffffffffffffffffffffff1673ffffffffffffffffffffffffffffffffffffffff16815260200190815260200160002060008282546112639190612cdd565b925050819055506001600360008473ffffffffffffffffffffffffffffffffffffffff1673ffffffffffffffffffffffffffffffffffffffff16815260200190815260200160002060008282546112ba9190612bfc565b92505081905550816002600083815260200190815260200160002060006101000a81548173ffffffffffffffffffffffffffffffffffffffff021916908373ffffffffffffffffffffffffffffffffffffffff160217905550808273ffffffffffffffffffffffffffffffffffffffff168473ffffffffffffffffffffffffffffffffffffffff167fddf252ad1be2c89b69c2b068fc378daa952ba7f163c4a11628f55a4df523b3ef60405160405180910390a4611379838383611bc2565b505050565b8173ffffffffffffffffffffffffffffffffffffffff168373ffffffffffffffffffffffffffffffffffffffff1614156113ed576040517f08c379a00000000000000000000000000000000000000000000000000000000081526004016113e4906129c8565b60405180910390fd5b80600560008573ffffffffffffffffffffffffffffffffffffffff1673ffffffffffffffffffffffffffffffffffffffff16815260200190815260200160002060008473ffffffffffffffffffffffffffffffffffffffff1673ffffffffffffffffffffffffffffffffffffffff16815260200190815260200160002060006101000a81548160ff0219169083151502179055508173ffffffffffffffffffffffffffffffffffffffff168373ffffffffffffffffffffffffffffffffffffffff167f17307eab39ab6107e8899845ad3d59bd9653f200f220920489ca2b5937696c31836040516114de919061289d565b60405180910390a3505050565b6114f6848484611117565b61150284848484611bc7565b611541576040517f08c379a000000000000000000000000000000000000000000000000000000000815260040161153890612948565b60405180910390fd5b50505050565b606060405180602001604052806000815250905090565b606061156982610f0c565b6115a8576040517f08c379a000000000000000000000000000000000000000000000000000000000815260040161159f90612ae8565b60405180910390fd5b60006115b2611547565b905060008151116115d257604051806020016040528060008152506115fd565b806115dc84611605565b6040516020016115ed92919061276f565b6040516020818303038152906040525b915050919050565b6060600082141561164d576040518060400160405280600181526020017f300000000000000000000000000000000000000000000000000000000000000081525090506117ad565b600082905060005b6000821461167f57808061166890612e2a565b915050600a826116789190612c52565b9150611655565b60008167ffffffffffffffff8111156116c1577f4e487b7100000000000000000000000000000000000000000000000000000000600052604160045260246000fd5b6040519080825280601f01601f1916602001820160405280156116f35781602001600182028036833780820191505090505b5090505b600085146117a65760018261170c9190612cdd565b9150600a8561171b9190612e7d565b60306117279190612bfc565b60f81b818381518110611763577f4e487b7100000000000000000000000000000000000000000000000000000000600052603260045260246000fd5b60200101907effffffffffffffffffffffffffffffffffffffffffffffffffffffffffffff1916908160001a905350600a8561179f9190612c52565b94506116f7565b8093505050505b919050565b6000816040516020016117c59190612758565b6040516020818303038152906040528051906020012060001c9050919050565b61187d82826040516024016117fb9291906128da565b6040516020818303038152906040527f9710a9d0000000000000000000000000000000000000000000000000000000007bffffffffffffffffffffffffffffffffffffffffffffffffffffffff19166020820180517bffffffffffffffffffffffffffffffffffffffffffffffffffffffff8381831617835250505050611b94565b5050565b600081600001549050919050565b606060008251905060008114156118b85760405180602001604052806000815250915050611a48565b600060036002836118c99190612bfc565b6118d39190612c52565b60046118df9190612c83565b905060006020826118f09190612bfc565b67ffffffffffffffff81111561192f577f4e487b7100000000000000000000000000000000000000000000000000000000600052604160045260246000fd5b6040519080825280601f01601f1916602001820160405280156119615781602001600182028036833780820191505090505b50905060006040518060600160405280604081526020016135e6604091399050600181016020830160005b86811015611a055760038101905062ffffff818a015116603f8160121c168401518060081b905060ff603f83600c1c1686015116810190508060081b905060ff603f8360061c1686015116810190508060081b905060ff603f831686015116810190508060e01b9050808452600484019350505061198c565b506003860660018114611a1f5760028114611a2f57611a3a565b613d3d60f01b6002830352611a3a565b603d60f81b60018303525b508484525050819450505050505b919050565b611a67828260405180602001604052806000815250611d5e565b5050565b611a7482610f0c565b611ab3576040517f08c379a0000000000000000000000000000000000000000000000000000000008152600401611aaa90612a68565b60405180910390fd5b80600660008481526020019081526020016000209080519060200190611ada929190611fb6565b505050565b611b79838383604051602401611af79392919061290a565b6040516020818303038152906040527fe3849f79000000000000000000000000000000000000000000000000000000007bffffffffffffffffffffffffffffffffffffffffffffffffffffffff19166020820180517bffffffffffffffffffffffffffffffffffffffffffffffffffffffff8381831617835250505050611b94565b505050565b6001816000016000828254019250508190555050565b60008151905060006a636f6e736f6c652e6c6f679050602083016000808483855afa5050505050565b505050565b505050565b6000611be88473ffffffffffffffffffffffffffffffffffffffff16611db9565b15611d51578373ffffffffffffffffffffffffffffffffffffffff1663150b7a02611c11610f78565b8786866040518563ffffffff1660e01b8152600401611c339493929190612851565b602060405180830381600087803b158015611c4d57600080fd5b505af1925050508015611c7e57506040513d601f19601f82011682018060405250810190611c7b91906122fa565b60015b611d01573d8060008114611cae576040519150601f19603f3d011682016040523d82523d6000602084013e611cb3565b606091505b50600081511415611cf9576040517f08c379a0000000000000000000000000000000000000000000000000000000008152600401611cf090612948565b60405180910390fd5b805181602001fd5b63150b7a0260e01b7bffffffffffffffffffffffffffffffffffffffffffffffffffffffff1916817bffffffffffffffffffffffffffffffffffffffffffffffffffffffff191614915050611d56565b600190505b949350505050565b611d688383611ddc565b611d756000848484611bc7565b611db4576040517f08c379a0000000000000000000000000000000000000000000000000000000008152600401611dab90612948565b60405180910390fd5b505050565b6000808273ffffffffffffffffffffffffffffffffffffffff163b119050919050565b600073ffffffffffffffffffffffffffffffffffffffff168273ffffffffffffffffffffffffffffffffffffffff161415611e4c576040517f08c379a0000000000000000000000000000000000000000000000000000000008152600401611e4390612a88565b60405180910390fd5b611e5581610f0c565b15611e95576040517f08c379a0000000000000000000000000000000000000000000000000000000008152600401611e8c90612988565b60405180910390fd5b611ea160008383611bbd565b6001600360008473ffffffffffffffffffffffffffffffffffffffff1673ffffffffffffffffffffffffffffffffffffffff1681526020019081526020016000206000828254611ef19190612bfc565b92505081905550816002600083815260200190815260200160002060006101000a81548173ffffffffffffffffffffffffffffffffffffffff021916908373ffffffffffffffffffffffffffffffffffffffff160217905550808273ffffffffffffffffffffffffffffffffffffffff16600073ffffffffffffffffffffffffffffffffffffffff167fddf252ad1be2c89b69c2b068fc378daa952ba7f163c4a11628f55a4df523b3ef60405160405180910390a4611fb260008383611bc2565b5050565b828054611fc290612dc7565b90600052602060002090601f016020900481019282611fe4576000855561202b565b82601f10611ffd57805160ff191683800117855561202b565b8280016001018555821561202b579182015b8281111561202a57825182559160200191906001019061200f565b5b509050612038919061203c565b5090565b5b8082111561205557600081600090555060010161203d565b5090565b600061206c61206784612b88565b612b63565b90508281526020810184848401111561208457600080fd5b61208f848285612d85565b509392505050565b6000813590506120a681613564565b92915050565b6000813590506120bb8161357b565b92915050565b6000813590506120d081613592565b92915050565b6000815190506120e581613592565b92915050565b600082601f8301126120fc57600080fd5b813561210c848260208601612059565b91505092915050565b600081359050612124816135a9565b92915050565b60006020828403121561213c57600080fd5b600061214a84828501612097565b91505092915050565b6000806040838503121561216657600080fd5b600061217485828601612097565b925050602061218585828601612097565b9150509250929050565b6000806000606084860312156121a457600080fd5b60006121b286828701612097565b93505060206121c386828701612097565b92505060406121d486828701612115565b9150509250925092565b600080600080608085870312156121f457600080fd5b600061220287828801612097565b945050602061221387828801612097565b935050604061222487828801612115565b925050606085013567ffffffffffffffff81111561224157600080fd5b61224d878288016120eb565b91505092959194509250565b6000806040838503121561226c57600080fd5b600061227a85828601612097565b925050602061228b858286016120ac565b9150509250929050565b600080604083850312156122a857600080fd5b60006122b685828601612097565b92505060206122c785828601612115565b9150509250929050565b6000602082840312156122e357600080fd5b60006122f1848285016120c1565b91505092915050565b60006020828403121561230c57600080fd5b600061231a848285016120d6565b91505092915050565b60006020828403121561233557600080fd5b600061234384828501612115565b91505092915050565b61235581612d11565b82525050565b61236481612d23565b82525050565b600061237582612bb9565b61237f8185612bcf565b935061238f818560208601612d94565b61239881612f6a565b840191505092915050565b60006123ae82612bc4565b6123b88185612be0565b93506123c8818560208601612d94565b6123d181612f6a565b840191505092915050565b60006123e782612bc4565b6123f18185612bf1565b9350612401818560208601612d94565b80840191505092915050565b600061241a600983612bf1565b915061242582612f7b565b600982019050919050565b600061243d603283612be0565b915061244882612fa4565b604082019050919050565b6000612460602583612be0565b915061246b82612ff3565b604082019050919050565b6000612483601c83612be0565b915061248e82613042565b602082019050919050565b60006124a6602483612be0565b91506124b18261306b565b604082019050919050565b60006124c9601983612be0565b91506124d4826130ba565b602082019050919050565b60006124ec602c83612be0565b91506124f7826130e3565b604082019050919050565b600061250f603883612be0565b915061251a82613132565b604082019050919050565b6000612532602a83612be0565b915061253d82613181565b604082019050919050565b6000612555602983612be0565b9150612560826131d0565b604082019050919050565b6000612578602e83612be0565b91506125838261321f565b604082019050919050565b600061259b600983612bf1565b91506125a68261326e565b600982019050919050565b60006125be602483612bf1565b91506125c982613297565b602482019050919050565b60006125e1600283612bf1565b91506125ec826132e6565b600282019050919050565b6000612604602083612be0565b915061260f8261330f565b602082019050919050565b6000612627603183612be0565b915061263282613338565b604082019050919050565b600061264a602c83612be0565b915061265582613387565b604082019050919050565b600061266d602f83612be0565b9150612678826133d6565b604082019050919050565b6000612690600a83612bf1565b915061269b82613425565b600a82019050919050565b60006126b3602183612be0565b91506126be8261344e565b604082019050919050565b60006126d6602c83612bf1565b91506126e18261349d565b602c82019050919050565b60006126f9601d83612bf1565b9150612704826134ec565b601d82019050919050565b600061271c603183612be0565b915061272782613515565b604082019050919050565b61273b81612d7b565b82525050565b61275261274d82612d7b565b612e73565b82525050565b600061276482846123dc565b915081905092915050565b600061277b82856123dc565b915061278782846123dc565b91508190509392505050565b600061279e8261240d565b91506127aa82846123dc565b915081905092915050565b60006127c082612683565b91506127cb8261258e565b91506127d78285612741565b6020820191506127e6826126c9565b91506127f1826125b1565b91506127fd82846123dc565b9150612808826125d4565b91508190509392505050565b600061281f826126ec565b915061282b82846123dc565b915081905092915050565b600060208201905061284b600083018461234c565b92915050565b6000608082019050612866600083018761234c565b612873602083018661234c565b6128806040830185612732565b8181036060830152612892818461236a565b905095945050505050565b60006020820190506128b2600083018461235b565b92915050565b600060208201905081810360008301526128d281846123a3565b905092915050565b600060408201905081810360008301526128f481856123a3565b90506129036020830184612732565b9392505050565b6000606082019050818103600083015261292481866123a3565b90506129336020830185612732565b612940604083018461234c565b949350505050565b6000602082019050818103600083015261296181612430565b9050919050565b6000602082019050818103600083015261298181612453565b9050919050565b600060208201905081810360008301526129a181612476565b9050919050565b600060208201905081810360008301526129c181612499565b9050919050565b600060208201905081810360008301526129e1816124bc565b9050919050565b60006020820190508181036000830152612a01816124df565b9050919050565b60006020820190508181036000830152612a2181612502565b9050919050565b60006020820190508181036000830152612a4181612525565b9050919050565b60006020820190508181036000830152612a6181612548565b9050919050565b60006020820190508181036000830152612a818161256b565b9050919050565b60006020820190508181036000830152612aa1816125f7565b9050919050565b60006020820190508181036000830152612ac18161261a565b9050919050565b60006020820190508181036000830152612ae18161263d565b9050919050565b60006020820190508181036000830152612b0181612660565b9050919050565b60006020820190508181036000830152612b21816126a6565b9050919050565b60006020820190508181036000830152612b418161270f565b9050919050565b6000602082019050612b5d6000830184612732565b92915050565b6000612b6d612b7e565b9050612b798282612df9565b919050565b6000604051905090565b600067ffffffffffffffff821115612ba357612ba2612f3b565b5b612bac82612f6a565b9050602081019050919050565b600081519050919050565b600081519050919050565b600082825260208201905092915050565b600082825260208201905092915050565b600081905092915050565b6000612c0782612d7b565b9150612c1283612d7b565b9250827fffffffffffffffffffffffffffffffffffffffffffffffffffffffffffffffff03821115612c4757612c46612eae565b5b828201905092915050565b6000612c5d82612d7b565b9150612c6883612d7b565b925082612c7857612c77612edd565b5b828204905092915050565b6000612c8e82612d7b565b9150612c9983612d7b565b9250817fffffffffffffffffffffffffffffffffffffffffffffffffffffffffffffffff0483118215151615612cd257612cd1612eae565b5b828202905092915050565b6000612ce882612d7b565b9150612cf383612d7b565b925082821015612d0657612d05612eae565b5b828203905092915050565b6000612d1c82612d5b565b9050919050565b60008115159050919050565b60007fffffffff0000000000000000000000000000000000000000000000000000000082169050919050565b600073ffffffffffffffffffffffffffffffffffffffff82169050919050565b6000819050919050565b82818337600083830152505050565b60005b83811015612db2578082015181840152602081019050612d97565b83811115612dc1576000848401525b50505050565b60006002820490506001821680612ddf57607f821691505b60208210811415612df357612df2612f0c565b5b50919050565b612e0282612f6a565b810181811067ffffffffffffffff82111715612e2157612e20612f3b565b5b80604052505050565b6000612e3582612d7b565b91507fffffffffffffffffffffffffffffffffffffffffffffffffffffffffffffffff821415612e6857612e67612eae565b5b600182019050919050565b6000819050919050565b6000612e8882612d7b565b9150612e9383612d7b565b925082612ea357612ea2612edd565b5b828206905092915050565b7f4e487b7100000000000000000000000000000000000000000000000000000000600052601160045260246000fd5b7f4e487b7100000000000000000000000000000000000000000000000000000000600052601260045260246000fd5b7f4e487b7100000000000000000000000000000000000000000000000000000000600052602260045260246000fd5b7f4e487b7100000000000000000000000000000000000000000000000000000000600052604160045260246000fd5b6000601f19601f8301169050919050565b7f52414e445f4d6173680000000000000000000000000000000000000000000000600082015250565b7f4552433732313a207472616e7366657220746f206e6f6e20455243373231526560008201527f63656976657220696d706c656d656e7465720000000000000000000000000000602082015250565b7f4552433732313a207472616e736665722066726f6d20696e636f72726563742060008201527f6f776e6572000000000000000000000000000000000000000000000000000000602082015250565b7f4552433732313a20746f6b656e20616c7265616479206d696e74656400000000600082015250565b7f4552433732313a207472616e7366657220746f20746865207a65726f2061646460008201527f7265737300000000000000000000000000000000000000000000000000000000602082015250565b7f4552433732313a20617070726f766520746f2063616c6c657200000000000000600082015250565b7f4552433732313a206f70657261746f7220717565727920666f72206e6f6e657860008201527f697374656e7420746f6b656e0000000000000000000000000000000000000000602082015250565b7f4552433732313a20617070726f76652063616c6c6572206973206e6f74206f7760008201527f6e6572206e6f7220617070726f76656420666f7220616c6c0000000000000000602082015250565b7f4552433732313a2062616c616e636520717565727920666f7220746865207a6560008201527f726f206164647265737300000000000000000000000000000000000000000000602082015250565b7f4552433732313a206f776e657220717565727920666f72206e6f6e657869737460008201527f656e7420746f6b656e0000000000000000000000000000000000000000000000602082015250565b7f45524337323155524953746f726167653a2055524920736574206f66206e6f6e60008201527f6578697374656e7420746f6b656e000000000000000000000000000000000000602082015250565b7f4d6173684e465420230000000000000000000000000000000000000000000000600082015250565b7f22696d616765223a2022646174613a696d6167652f7376672b786d6c3b62617360008201527f6536342c00000000000000000000000000000000000000000000000000000000602082015250565b7f227d000000000000000000000000000000000000000000000000000000000000600082015250565b7f4552433732313a206d696e7420746f20746865207a65726f2061646472657373600082015250565b7f45524337323155524953746f726167653a2055524920717565727920666f722060008201527f6e6f6e6578697374656e7420746f6b656e000000000000000000000000000000602082015250565b7f4552433732313a20617070726f76656420717565727920666f72206e6f6e657860008201527f697374656e7420746f6b656e0000000000000000000000000000000000000000602082015250565b7f4552433732314d657461646174613a2055524920717565727920666f72206e6f60008201527f6e6578697374656e7420746f6b656e0000000000000000000000000000000000602082015250565b7f7b226e616d65223a202200000000000000000000000000000000000000000000600082015250565b7f4552433732313a20617070726f76616c20746f2063757272656e74206f776e6560008201527f7200000000000000000000000000000000000000000000000000000000000000602082015250565b7f222c20226465736372697074696f6e223a20224d61736820697320612066616960008201527f746866756c20646f672121220000000000000000000000000000000000000000602082015250565b7f646174613a6170706c69636174696f6e2f6a736f6e3b6261736536342c000000600082015250565b7f4552433732313a207472616e736665722063616c6c6572206973206e6f74206f60008201527f776e6572206e6f7220617070726f766564000000000000000000000000000000602082015250565b61356d81612d11565b811461357857600080fd5b50565b61358481612d23565b811461358f57600080fd5b50565b61359b81612d2f565b81146135a657600080fd5b50565b6135b281612d7b565b81146135bd57600080fd5b5056fe416e204e465420772f20494420257320686173206265656e206d696e74656420746f2025734142434445464748494a4b4c4d4e4f505152535455565758595a6162636465666768696a6b6c6d6e6f707172737475767778797a303132333435363738392b2fa2646970667358221220b1bb49c3390f3d9082fbeb6a430463385de8e9ef153fb5e40ce58b5f42e81b8064736f6c63430008040033",
  "linkReferences": {},
  "deployedLinkReferences": {}
}