{
  "_format": "hh-sol-artifact-1",
  "contractName": "MashNFT",
  "sourceName": "contracts/MashNFT.sol",
  "abi": [
    {
      "inputs": [],
      "stateMutability": "nonpayable",
      "type": "constructor"
    },
    {
      "anonymous": false,
      "inputs": [
        {
          "indexed": true,
          "internalType": "address",
          "name": "owner",
          "type": "address"
        },
        {
          "indexed": true,
          "internalType": "address",
          "name": "approved",
          "type": "address"
        },
        {
          "indexed": true,
          "internalType": "uint256",
          "name": "tokenId",
          "type": "uint256"
        }
      ],
      "name": "Approval",
      "type": "event"
    },
    {
      "anonymous": false,
      "inputs": [
        {
          "indexed": true,
          "internalType": "address",
          "name": "owner",
          "type": "address"
        },
        {
          "indexed": true,
          "internalType": "address",
          "name": "operator",
          "type": "address"
        },
        {
          "indexed": false,
          "internalType": "bool",
          "name": "approved",
          "type": "bool"
        }
      ],
      "name": "ApprovalForAll",
      "type": "event"
    },
    {
      "anonymous": false,
      "inputs": [
        {
          "indexed": false,
          "internalType": "address",
          "name": "sender",
          "type": "address"
        },
        {
          "indexed": false,
          "internalType": "uint256",
          "name": "tokenId",
          "type": "uint256"
        }
      ],
      "name": "NewEpicNFTMinted",
      "type": "event"
    },
    {
      "anonymous": false,
      "inputs": [
        {
          "indexed": true,
          "internalType": "address",
          "name": "from",
          "type": "address"
        },
        {
          "indexed": true,
          "internalType": "address",
          "name": "to",
          "type": "address"
        },
        {
          "indexed": true,
          "internalType": "uint256",
          "name": "tokenId",
          "type": "uint256"
        }
      ],
      "name": "Transfer",
      "type": "event"
    },
    {
      "inputs": [
        {
          "internalType": "address",
          "name": "to",
          "type": "address"
        },
        {
          "internalType": "uint256",
          "name": "tokenId",
          "type": "uint256"
        }
      ],
      "name": "approve",
      "outputs": [],
      "stateMutability": "nonpayable",
      "type": "function"
    },
    {
      "inputs": [
        {
          "internalType": "address",
          "name": "owner",
          "type": "address"
        }
      ],
      "name": "balanceOf",
      "outputs": [
        {
          "internalType": "uint256",
          "name": "",
          "type": "uint256"
        }
      ],
      "stateMutability": "view",
      "type": "function"
    },
    {
      "inputs": [
        {
          "internalType": "uint256",
          "name": "tokenId",
          "type": "uint256"
        }
      ],
      "name": "getApproved",
      "outputs": [
        {
          "internalType": "address",
          "name": "",
          "type": "address"
        }
      ],
      "stateMutability": "view",
      "type": "function"
    },
    {
      "inputs": [
        {
          "internalType": "address",
          "name": "owner",
          "type": "address"
        },
        {
          "internalType": "address",
          "name": "operator",
          "type": "address"
        }
      ],
      "name": "isApprovedForAll",
      "outputs": [
        {
          "internalType": "bool",
          "name": "",
          "type": "bool"
        }
      ],
      "stateMutability": "view",
      "type": "function"
    },
    {
      "inputs": [],
      "name": "makeAnEpicNFT",
      "outputs": [],
      "stateMutability": "nonpayable",
      "type": "function"
    },
    {
      "inputs": [],
      "name": "name",
      "outputs": [
        {
          "internalType": "string",
          "name": "",
          "type": "string"
        }
      ],
      "stateMutability": "view",
      "type": "function"
    },
    {
      "inputs": [
        {
          "internalType": "uint256",
          "name": "tokenId",
          "type": "uint256"
        }
      ],
      "name": "ownerOf",
      "outputs": [
        {
          "internalType": "address",
          "name": "",
          "type": "address"
        }
      ],
      "stateMutability": "view",
      "type": "function"
    },
    {
      "inputs": [
        {
          "internalType": "uint256",
          "name": "tokenId",
          "type": "uint256"
        }
      ],
      "name": "pickRandomImage",
      "outputs": [
        {
          "internalType": "string",
          "name": "",
          "type": "string"
        }
      ],
      "stateMutability": "view",
      "type": "function"
    },
    {
      "inputs": [
        {
          "internalType": "address",
          "name": "from",
          "type": "address"
        },
        {
          "internalType": "address",
          "name": "to",
          "type": "address"
        },
        {
          "internalType": "uint256",
          "name": "tokenId",
          "type": "uint256"
        }
      ],
      "name": "safeTransferFrom",
      "outputs": [],
      "stateMutability": "nonpayable",
      "type": "function"
    },
    {
      "inputs": [
        {
          "internalType": "address",
          "name": "from",
          "type": "address"
        },
        {
          "internalType": "address",
          "name": "to",
          "type": "address"
        },
        {
          "internalType": "uint256",
          "name": "tokenId",
          "type": "uint256"
        },
        {
          "internalType": "bytes",
          "name": "_data",
          "type": "bytes"
        }
      ],
      "name": "safeTransferFrom",
      "outputs": [],
      "stateMutability": "nonpayable",
      "type": "function"
    },
    {
      "inputs": [
        {
          "internalType": "address",
          "name": "operator",
          "type": "address"
        },
        {
          "internalType": "bool",
          "name": "approved",
          "type": "bool"
        }
      ],
      "name": "setApprovalForAll",
      "outputs": [],
      "stateMutability": "nonpayable",
      "type": "function"
    },
    {
      "inputs": [
        {
          "internalType": "bytes4",
          "name": "interfaceId",
          "type": "bytes4"
        }
      ],
      "name": "supportsInterface",
      "outputs": [
        {
          "internalType": "bool",
          "name": "",
          "type": "bool"
        }
      ],
      "stateMutability": "view",
      "type": "function"
    },
    {
      "inputs": [],
      "name": "symbol",
      "outputs": [
        {
          "internalType": "string",
          "name": "",
          "type": "string"
        }
      ],
      "stateMutability": "view",
      "type": "function"
    },
    {
      "inputs": [
        {
          "internalType": "uint256",
          "name": "tokenId",
          "type": "uint256"
        }
      ],
      "name": "tokenURI",
      "outputs": [
        {
          "internalType": "string",
          "name": "",
          "type": "string"
        }
      ],
      "stateMutability": "view",
      "type": "function"
    },
    {
      "inputs": [],
      "name": "totalSupply",
      "outputs": [
        {
          "internalType": "uint256",
          "name": "",
          "type": "uint256"
        }
      ],
      "stateMutability": "view",
      "type": "function"
    },
    {
      "inputs": [
        {
          "internalType": "address",
          "name": "from",
          "type": "address"
        },
        {
          "internalType": "address",
          "name": "to",
          "type": "address"
        },
        {
          "internalType": "uint256",
          "name": "tokenId",
          "type": "uint256"
        }
      ],
      "name": "transferFrom",
      "outputs": [],
      "stateMutability": "nonpayable",
      "type": "function"
    }
  ],
  "bytecode": "0x6080604052604051806040016040528060405180606001604052806021815260200162003b8f60219139815260200160405180606001604052806025815260200162003bb06025913981525060089060026200005d92919062000229565b503480156200006b57600080fd5b506040518060400160405280600781526020017f4d6173684e4654000000000000000000000000000000000000000000000000008152506040518060400160405280600481526020017f4d415348000000000000000000000000000000000000000000000000000000008152508160009080519060200190620000f092919062000290565b5080600190805190602001906200010992919062000290565b505050620001576040518060400160405280601c81526020017f54686973206973206d79204d6173684e465420636f6e74726163742e000000008152506200015d60201b62000e4f1760201c565b620004db565b620001fd81604051602401620001749190620003ef565b6040516020818303038152906040527f41304fac000000000000000000000000000000000000000000000000000000007bffffffffffffffffffffffffffffffffffffffffffffffffffffffff19166020820180517bffffffffffffffffffffffffffffffffffffffffffffffffffffffff83818316178352505050506200020060201b60201c565b50565b60008151905060006a636f6e736f6c652e6c6f679050602083016000808483855afa5050505050565b8280548282559060005260206000209081019282156200027d579160200282015b828111156200027c5782518290805190602001906200026b92919062000290565b50916020019190600101906200024a565b5b5090506200028c919062000321565b5090565b8280546200029e9062000465565b90600052602060002090601f016020900481019282620002c257600085556200030e565b82601f10620002dd57805160ff19168380011785556200030e565b828001600101855582156200030e579182015b828111156200030d578251825591602001919060010190620002f0565b5b5090506200031d919062000349565b5090565b5b808211156200034557600081816200033b919062000368565b5060010162000322565b5090565b5b80821115620003645760008160009055506001016200034a565b5090565b508054620003769062000465565b6000825580601f106200038a5750620003ab565b601f016020900490600052602060002090810190620003aa919062000349565b5b50565b6000620003bb8262000413565b620003c781856200041e565b9350620003d98185602086016200042f565b620003e481620004ca565b840191505092915050565b600060208201905081810360008301526200040b8184620003ae565b905092915050565b600081519050919050565b600082825260208201905092915050565b60005b838110156200044f57808201518184015260208101905062000432565b838111156200045f576000848401525b50505050565b600060028204905060018216806200047e57607f821691505b602082108114156200049557620004946200049b565b5b50919050565b7f4e487b7100000000000000000000000000000000000000000000000000000000600052602260045260246000fd5b6000601f19601f8301169050919050565b6136a480620004eb6000396000f3fe608060405234801561001057600080fd5b50600436106101005760003560e01c806370a0823111610097578063c87b56dd11610066578063c87b56dd146102ab578063d13508fc146102db578063de9d132f1461030b578063e985e9c51461031557610100565b806370a082311461022557806395d89b4114610255578063a22cb46514610273578063b88d4fde1461028f57610100565b806318160ddd116100d357806318160ddd1461019f57806323b872dd146101bd57806342842e0e146101d95780636352211e146101f557610100565b806301ffc9a71461010557806306fdde0314610135578063081812fc14610153578063095ea7b314610183575b600080fd5b61011f600480360381019061011a9190612317565b610345565b60405161012c919061290c565b60405180910390f35b61013d610427565b60405161014a9190612927565b60405180910390f35b61016d60048036038101906101689190612369565b6104b9565b60405161017a919061287c565b60405180910390f35b61019d600480360381019061019891906122db565b61053e565b005b6101a7610656565b6040516101b49190612bb7565b60405180910390f35b6101d760048036038101906101d291906121d5565b610667565b005b6101f360048036038101906101ee91906121d5565b6106c7565b005b61020f600480360381019061020a9190612369565b6106e7565b60405161021c919061287c565b60405180910390f35b61023f600480360381019061023a9190612170565b610799565b60405161024c9190612bb7565b60405180910390f35b61025d610851565b60405161026a9190612927565b60405180910390f35b61028d6004803603810190610288919061229f565b6108e3565b005b6102a960048036038101906102a49190612224565b6108f9565b005b6102c560048036038101906102c09190612369565b61095b565b6040516102d29190612927565b60405180910390f35b6102f560048036038101906102f09190612369565b610aad565b6040516103029190612927565b60405180910390f35b610313610c49565b005b61032f600480360381019061032a9190612199565b610dbb565b60405161033c919061290c565b60405180910390f35b60007f80ac58cd000000000000000000000000000000000000000000000000000000007bffffffffffffffffffffffffffffffffffffffffffffffffffffffff1916827bffffffffffffffffffffffffffffffffffffffffffffffffffffffff1916148061041057507f5b5e139f000000000000000000000000000000000000000000000000000000007bffffffffffffffffffffffffffffffffffffffffffffffffffffffff1916827bffffffffffffffffffffffffffffffffffffffffffffffffffffffff1916145b80610420575061041f82610ee8565b5b9050919050565b60606000805461043690612e36565b80601f016020809104026020016040519081016040528092919081815260200182805461046290612e36565b80156104af5780601f10610484576101008083540402835291602001916104af565b820191906000526020600020905b81548152906001019060200180831161049257829003601f168201915b5050505050905090565b60006104c482610f52565b610503576040517f08c379a00000000000000000000000000000000000000000000000000000000081526004016104fa90612b37565b60405180910390fd5b6004600083815260200190815260200160002060009054906101000a900473ffffffffffffffffffffffffffffffffffffffff169050919050565b6000610549826106e7565b90508073ffffffffffffffffffffffffffffffffffffffff168373ffffffffffffffffffffffffffffffffffffffff1614156105ba576040517f08c379a00000000000000000000000000000000000000000000000000000000081526004016105b190612b77565b60405180910390fd5b8073ffffffffffffffffffffffffffffffffffffffff166105d9610fbe565b73ffffffffffffffffffffffffffffffffffffffff161480610608575061060781610602610fbe565b610dbb565b5b610647576040517f08c379a000000000000000000000000000000000000000000000000000000000815260040161063e90612a77565b60405180910390fd5b6106518383610fc6565b505050565b6000610662600761107f565b905090565b610678610672610fbe565b8261108d565b6106b7576040517f08c379a00000000000000000000000000000000000000000000000000000000081526004016106ae90612b97565b60405180910390fd5b6106c283838361116b565b505050565b6106e2838383604051806020016040528060008152506108f9565b505050565b6000806002600084815260200190815260200160002060009054906101000a900473ffffffffffffffffffffffffffffffffffffffff169050600073ffffffffffffffffffffffffffffffffffffffff168173ffffffffffffffffffffffffffffffffffffffff161415610790576040517f08c379a000000000000000000000000000000000000000000000000000000000815260040161078790612ab7565b60405180910390fd5b80915050919050565b60008073ffffffffffffffffffffffffffffffffffffffff168273ffffffffffffffffffffffffffffffffffffffff16141561080a576040517f08c379a000000000000000000000000000000000000000000000000000000000815260040161080190612a97565b60405180910390fd5b600360008373ffffffffffffffffffffffffffffffffffffffff1673ffffffffffffffffffffffffffffffffffffffff168152602001908152602001600020549050919050565b60606001805461086090612e36565b80601f016020809104026020016040519081016040528092919081815260200182805461088c90612e36565b80156108d95780601f106108ae576101008083540402835291602001916108d9565b820191906000526020600020905b8154815290600101906020018083116108bc57829003601f168201915b5050505050905090565b6108f56108ee610fbe565b83836113d2565b5050565b61090a610904610fbe565b8361108d565b610949576040517f08c379a000000000000000000000000000000000000000000000000000000000815260040161094090612b97565b60405180910390fd5b6109558484848461153f565b50505050565b606061096682610f52565b6109a5576040517f08c379a000000000000000000000000000000000000000000000000000000000815260040161099c90612b17565b60405180910390fd5b60006006600084815260200190815260200160002080546109c590612e36565b80601f01602080910402602001604051908101604052809291908181526020018280546109f190612e36565b8015610a3e5780601f10610a1357610100808354040283529160200191610a3e565b820191906000526020600020905b815481529060010190602001808311610a2157829003601f168201915b505050505090506000610a4f61159b565b9050600081511415610a65578192505050610aa8565b600082511115610a9a578082604051602001610a829291906127b5565b60405160208183030381529060405292505050610aa8565b610aa3846115b2565b925050505b919050565b60606000610ae1610abd84611659565b604051602001610acd91906127d9565b604051602081830303815290604052611806565b9050610b226040518060400160405280600b81526020017f72616e6420736565643a2000000000000000000000000000000000000000000081525082611839565b60088054905081610b339190612eec565b9050610b746040518060400160405280600c81526020017f72616e6420696d6167653a20000000000000000000000000000000000000000081525082611839565b60088181548110610bae577f4e487b7100000000000000000000000000000000000000000000000000000000600052603260045260246000fd5b906000526020600020018054610bc390612e36565b80601f0160208091040260200160405190810160405280929190818152602001828054610bef90612e36565b8015610c3c5780601f10610c1157610100808354040283529160200191610c3c565b820191906000526020600020905b815481529060010190602001808311610c1f57829003601f168201915b5050505050915050919050565b6000610c55600761107f565b90506000610c6282610aad565b90506000610c908383604051602001610c7c9291906127fb565b6040516020818303038152906040526118d5565b9050600081604051602001610ca5919061285a565b6040516020818303038152906040529050610cf46040518060400160405280601581526020017f0a2d2d2d2d2d2d2d2d2d2d2d2d2d2d2d2d2d2d2d2d0000000000000000000000815250610e4f565b610cfd81610e4f565b610d3b6040518060400160405280601581526020017f2d2d2d2d2d2d2d2d2d2d2d2d2d2d2d2d2d2d2d2d0a0000000000000000000000815250610e4f565b610d453385611a93565b610d4f8482611ab1565b610d7260405180606001604052806025815260200161360a602591398533611b25565b610d7c6007611bc4565b7febb98688741ffa4c7589bf325de30cf7becb63de567842e1ccdb6cb949fdc82c3385604051610dad9291906128e3565b60405180910390a150505050565b6000600560008473ffffffffffffffffffffffffffffffffffffffff1673ffffffffffffffffffffffffffffffffffffffff16815260200190815260200160002060008373ffffffffffffffffffffffffffffffffffffffff1673ffffffffffffffffffffffffffffffffffffffff16815260200190815260200160002060009054906101000a900460ff16905092915050565b610ee581604051602401610e639190612927565b6040516020818303038152906040527f41304fac000000000000000000000000000000000000000000000000000000007bffffffffffffffffffffffffffffffffffffffffffffffffffffffff19166020820180517bffffffffffffffffffffffffffffffffffffffffffffffffffffffff8381831617835250505050611bda565b50565b60007f01ffc9a7000000000000000000000000000000000000000000000000000000007bffffffffffffffffffffffffffffffffffffffffffffffffffffffff1916827bffffffffffffffffffffffffffffffffffffffffffffffffffffffff1916149050919050565b60008073ffffffffffffffffffffffffffffffffffffffff166002600084815260200190815260200160002060009054906101000a900473ffffffffffffffffffffffffffffffffffffffff1673ffffffffffffffffffffffffffffffffffffffff1614159050919050565b600033905090565b816004600083815260200190815260200160002060006101000a81548173ffffffffffffffffffffffffffffffffffffffff021916908373ffffffffffffffffffffffffffffffffffffffff160217905550808273ffffffffffffffffffffffffffffffffffffffff16611039836106e7565b73ffffffffffffffffffffffffffffffffffffffff167f8c5be1e5ebec7d5bd14f71427d1e84f3dd0314c0f7b2291e5b200ac8c7c3b92560405160405180910390a45050565b600081600001549050919050565b600061109882610f52565b6110d7576040517f08c379a00000000000000000000000000000000000000000000000000000000081526004016110ce90612a57565b60405180910390fd5b60006110e2836106e7565b90508073ffffffffffffffffffffffffffffffffffffffff168473ffffffffffffffffffffffffffffffffffffffff16148061112457506111238185610dbb565b5b8061116257508373ffffffffffffffffffffffffffffffffffffffff1661114a846104b9565b73ffffffffffffffffffffffffffffffffffffffff16145b91505092915050565b8273ffffffffffffffffffffffffffffffffffffffff1661118b826106e7565b73ffffffffffffffffffffffffffffffffffffffff16146111e1576040517f08c379a00000000000000000000000000000000000000000000000000000000081526004016111d8906129d7565b60405180910390fd5b600073ffffffffffffffffffffffffffffffffffffffff168273ffffffffffffffffffffffffffffffffffffffff161415611251576040517f08c379a000000000000000000000000000000000000000000000000000000000815260040161124890612a17565b60405180910390fd5b61125c838383611c03565b611267600082610fc6565b6001600360008573ffffffffffffffffffffffffffffffffffffffff1673ffffffffffffffffffffffffffffffffffffffff16815260200190815260200160002060008282546112b79190612d4c565b925050819055506001600360008473ffffffffffffffffffffffffffffffffffffffff1673ffffffffffffffffffffffffffffffffffffffff168152602001908152602001600020600082825461130e9190612c6b565b92505081905550816002600083815260200190815260200160002060006101000a81548173ffffffffffffffffffffffffffffffffffffffff021916908373ffffffffffffffffffffffffffffffffffffffff160217905550808273ffffffffffffffffffffffffffffffffffffffff168473ffffffffffffffffffffffffffffffffffffffff167fddf252ad1be2c89b69c2b068fc378daa952ba7f163c4a11628f55a4df523b3ef60405160405180910390a46113cd838383611c08565b505050565b8173ffffffffffffffffffffffffffffffffffffffff168373ffffffffffffffffffffffffffffffffffffffff161415611441576040517f08c379a000000000000000000000000000000000000000000000000000000000815260040161143890612a37565b60405180910390fd5b80600560008573ffffffffffffffffffffffffffffffffffffffff1673ffffffffffffffffffffffffffffffffffffffff16815260200190815260200160002060008473ffffffffffffffffffffffffffffffffffffffff1673ffffffffffffffffffffffffffffffffffffffff16815260200190815260200160002060006101000a81548160ff0219169083151502179055508173ffffffffffffffffffffffffffffffffffffffff168373ffffffffffffffffffffffffffffffffffffffff167f17307eab39ab6107e8899845ad3d59bd9653f200f220920489ca2b5937696c3183604051611532919061290c565b60405180910390a3505050565b61154a84848461116b565b61155684848484611c0d565b611595576040517f08c379a000000000000000000000000000000000000000000000000000000000815260040161158c906129b7565b60405180910390fd5b50505050565b606060405180602001604052806000815250905090565b60606115bd82610f52565b6115fc576040517f08c379a00000000000000000000000000000000000000000000000000000000081526004016115f390612b57565b60405180910390fd5b600061160661159b565b905060008151116116265760405180602001604052806000815250611651565b8061163084611659565b6040516020016116419291906127b5565b6040516020818303038152906040525b915050919050565b606060008214156116a1576040518060400160405280600181526020017f30000000000000000000000000000000000000000000000000000000000000008152509050611801565b600082905060005b600082146116d35780806116bc90612e99565b915050600a826116cc9190612cc1565b91506116a9565b60008167ffffffffffffffff811115611715577f4e487b7100000000000000000000000000000000000000000000000000000000600052604160045260246000fd5b6040519080825280601f01601f1916602001820160405280156117475781602001600182028036833780820191505090505b5090505b600085146117fa576001826117609190612d4c565b9150600a8561176f9190612eec565b603061177b9190612c6b565b60f81b8183815181106117b7577f4e487b7100000000000000000000000000000000000000000000000000000000600052603260045260246000fd5b60200101907effffffffffffffffffffffffffffffffffffffffffffffffffffffffffffff1916908160001a905350600a856117f39190612cc1565b945061174b565b8093505050505b919050565b600081604051602001611819919061279e565b6040516020818303038152906040528051906020012060001c9050919050565b6118d1828260405160240161184f929190612949565b6040516020818303038152906040527f9710a9d0000000000000000000000000000000000000000000000000000000007bffffffffffffffffffffffffffffffffffffffffffffffffffffffff19166020820180517bffffffffffffffffffffffffffffffffffffffffffffffffffffffff8381831617835250505050611bda565b5050565b606060008251905060008114156118fe5760405180602001604052806000815250915050611a8e565b6000600360028361190f9190612c6b565b6119199190612cc1565b60046119259190612cf2565b905060006020826119369190612c6b565b67ffffffffffffffff811115611975577f4e487b7100000000000000000000000000000000000000000000000000000000600052604160045260246000fd5b6040519080825280601f01601f1916602001820160405280156119a75781602001600182028036833780820191505090505b509050600060405180606001604052806040815260200161362f604091399050600181016020830160005b86811015611a4b5760038101905062ffffff818a015116603f8160121c168401518060081b905060ff603f83600c1c1686015116810190508060081b905060ff603f8360061c1686015116810190508060081b905060ff603f831686015116810190508060e01b905080845260048401935050506119d2565b506003860660018114611a655760028114611a7557611a80565b613d3d60f01b6002830352611a80565b603d60f81b60018303525b508484525050819450505050505b919050565b611aad828260405180602001604052806000815250611da4565b5050565b611aba82610f52565b611af9576040517f08c379a0000000000000000000000000000000000000000000000000000000008152600401611af090612ad7565b60405180910390fd5b80600660008481526020019081526020016000209080519060200190611b20929190611ffc565b505050565b611bbf838383604051602401611b3d93929190612979565b6040516020818303038152906040527fe3849f79000000000000000000000000000000000000000000000000000000007bffffffffffffffffffffffffffffffffffffffffffffffffffffffff19166020820180517bffffffffffffffffffffffffffffffffffffffffffffffffffffffff8381831617835250505050611bda565b505050565b6001816000016000828254019250508190555050565b60008151905060006a636f6e736f6c652e6c6f679050602083016000808483855afa5050505050565b505050565b505050565b6000611c2e8473ffffffffffffffffffffffffffffffffffffffff16611dff565b15611d97578373ffffffffffffffffffffffffffffffffffffffff1663150b7a02611c57610fbe565b8786866040518563ffffffff1660e01b8152600401611c799493929190612897565b602060405180830381600087803b158015611c9357600080fd5b505af1925050508015611cc457506040513d601f19601f82011682018060405250810190611cc19190612340565b60015b611d47573d8060008114611cf4576040519150601f19603f3d011682016040523d82523d6000602084013e611cf9565b606091505b50600081511415611d3f576040517f08c379a0000000000000000000000000000000000000000000000000000000008152600401611d36906129b7565b60405180910390fd5b805181602001fd5b63150b7a0260e01b7bffffffffffffffffffffffffffffffffffffffffffffffffffffffff1916817bffffffffffffffffffffffffffffffffffffffffffffffffffffffff191614915050611d9c565b600190505b949350505050565b611dae8383611e22565b611dbb6000848484611c0d565b611dfa576040517f08c379a0000000000000000000000000000000000000000000000000000000008152600401611df1906129b7565b60405180910390fd5b505050565b6000808273ffffffffffffffffffffffffffffffffffffffff163b119050919050565b600073ffffffffffffffffffffffffffffffffffffffff168273ffffffffffffffffffffffffffffffffffffffff161415611e92576040517f08c379a0000000000000000000000000000000000000000000000000000000008152600401611e8990612af7565b60405180910390fd5b611e9b81610f52565b15611edb576040517f08c379a0000000000000000000000000000000000000000000000000000000008152600401611ed2906129f7565b60405180910390fd5b611ee760008383611c03565b6001600360008473ffffffffffffffffffffffffffffffffffffffff1673ffffffffffffffffffffffffffffffffffffffff1681526020019081526020016000206000828254611f379190612c6b565b92505081905550816002600083815260200190815260200160002060006101000a81548173ffffffffffffffffffffffffffffffffffffffff021916908373ffffffffffffffffffffffffffffffffffffffff160217905550808273ffffffffffffffffffffffffffffffffffffffff16600073ffffffffffffffffffffffffffffffffffffffff167fddf252ad1be2c89b69c2b068fc378daa952ba7f163c4a11628f55a4df523b3ef60405160405180910390a4611ff860008383611c08565b5050565b82805461200890612e36565b90600052602060002090601f01602090048101928261202a5760008555612071565b82601f1061204357805160ff1916838001178555612071565b82800160010185558215612071579182015b82811115612070578251825591602001919060010190612055565b5b50905061207e9190612082565b5090565b5b8082111561209b576000816000905550600101612083565b5090565b60006120b26120ad84612bf7565b612bd2565b9050828152602081018484840111156120ca57600080fd5b6120d5848285612df4565b509392505050565b6000813590506120ec816135ad565b92915050565b600081359050612101816135c4565b92915050565b600081359050612116816135db565b92915050565b60008151905061212b816135db565b92915050565b600082601f83011261214257600080fd5b813561215284826020860161209f565b91505092915050565b60008135905061216a816135f2565b92915050565b60006020828403121561218257600080fd5b6000612190848285016120dd565b91505092915050565b600080604083850312156121ac57600080fd5b60006121ba858286016120dd565b92505060206121cb858286016120dd565b9150509250929050565b6000806000606084860312156121ea57600080fd5b60006121f8868287016120dd565b9350506020612209868287016120dd565b925050604061221a8682870161215b565b9150509250925092565b6000806000806080858703121561223a57600080fd5b6000612248878288016120dd565b9450506020612259878288016120dd565b935050604061226a8782880161215b565b925050606085013567ffffffffffffffff81111561228757600080fd5b61229387828801612131565b91505092959194509250565b600080604083850312156122b257600080fd5b60006122c0858286016120dd565b92505060206122d1858286016120f2565b9150509250929050565b600080604083850312156122ee57600080fd5b60006122fc858286016120dd565b925050602061230d8582860161215b565b9150509250929050565b60006020828403121561232957600080fd5b600061233784828501612107565b91505092915050565b60006020828403121561235257600080fd5b60006123608482850161211c565b91505092915050565b60006020828403121561237b57600080fd5b60006123898482850161215b565b91505092915050565b61239b81612d80565b82525050565b6123aa81612d92565b82525050565b60006123bb82612c28565b6123c58185612c3e565b93506123d5818560208601612e03565b6123de81612fd9565b840191505092915050565b60006123f482612c33565b6123fe8185612c4f565b935061240e818560208601612e03565b61241781612fd9565b840191505092915050565b600061242d82612c33565b6124378185612c60565b9350612447818560208601612e03565b80840191505092915050565b6000612460600983612c60565b915061246b82612fea565b600982019050919050565b6000612483603283612c4f565b915061248e82613013565b604082019050919050565b60006124a6602583612c4f565b91506124b182613062565b604082019050919050565b60006124c9601c83612c4f565b91506124d4826130b1565b602082019050919050565b60006124ec602483612c4f565b91506124f7826130da565b604082019050919050565b600061250f601983612c4f565b915061251a82613129565b602082019050919050565b6000612532602c83612c4f565b915061253d82613152565b604082019050919050565b6000612555603883612c4f565b9150612560826131a1565b604082019050919050565b6000612578602a83612c4f565b9150612583826131f0565b604082019050919050565b600061259b602983612c4f565b91506125a68261323f565b604082019050919050565b60006125be602e83612c4f565b91506125c98261328e565b604082019050919050565b60006125e1600983612c60565b91506125ec826132dd565b600982019050919050565b6000612604600c83612c60565b915061260f82613306565b600c82019050919050565b6000612627600283612c60565b91506126328261332f565b600282019050919050565b600061264a602083612c4f565b915061265582613358565b602082019050919050565b600061266d603183612c4f565b915061267882613381565b604082019050919050565b6000612690602c83612c4f565b915061269b826133d0565b604082019050919050565b60006126b3602f83612c4f565b91506126be8261341f565b604082019050919050565b60006126d6600a83612c60565b91506126e18261346e565b600a82019050919050565b60006126f9602183612c4f565b915061270482613497565b604082019050919050565b600061271c602c83612c60565b9150612727826134e6565b602c82019050919050565b600061273f601d83612c60565b915061274a82613535565b601d82019050919050565b6000612762603183612c4f565b915061276d8261355e565b604082019050919050565b61278181612dea565b82525050565b61279861279382612dea565b612ee2565b82525050565b60006127aa8284612422565b915081905092915050565b60006127c18285612422565b91506127cd8284612422565b91508190509392505050565b60006127e482612453565b91506127f08284612422565b915081905092915050565b6000612806826126c9565b9150612811826125d4565b915061281d8285612787565b60208201915061282c8261270f565b9150612837826125f7565b91506128438284612422565b915061284e8261261a565b91508190509392505050565b600061286582612732565b91506128718284612422565b915081905092915050565b60006020820190506128916000830184612392565b92915050565b60006080820190506128ac6000830187612392565b6128b96020830186612392565b6128c66040830185612778565b81810360608301526128d881846123b0565b905095945050505050565b60006040820190506128f86000830185612392565b6129056020830184612778565b9392505050565b600060208201905061292160008301846123a1565b92915050565b6000602082019050818103600083015261294181846123e9565b905092915050565b6000604082019050818103600083015261296381856123e9565b90506129726020830184612778565b9392505050565b6000606082019050818103600083015261299381866123e9565b90506129a26020830185612778565b6129af6040830184612392565b949350505050565b600060208201905081810360008301526129d081612476565b9050919050565b600060208201905081810360008301526129f081612499565b9050919050565b60006020820190508181036000830152612a10816124bc565b9050919050565b60006020820190508181036000830152612a30816124df565b9050919050565b60006020820190508181036000830152612a5081612502565b9050919050565b60006020820190508181036000830152612a7081612525565b9050919050565b60006020820190508181036000830152612a9081612548565b9050919050565b60006020820190508181036000830152612ab08161256b565b9050919050565b60006020820190508181036000830152612ad08161258e565b9050919050565b60006020820190508181036000830152612af0816125b1565b9050919050565b60006020820190508181036000830152612b108161263d565b9050919050565b60006020820190508181036000830152612b3081612660565b9050919050565b60006020820190508181036000830152612b5081612683565b9050919050565b60006020820190508181036000830152612b70816126a6565b9050919050565b60006020820190508181036000830152612b90816126ec565b9050919050565b60006020820190508181036000830152612bb081612755565b9050919050565b6000602082019050612bcc6000830184612778565b92915050565b6000612bdc612bed565b9050612be88282612e68565b919050565b6000604051905090565b600067ffffffffffffffff821115612c1257612c11612faa565b5b612c1b82612fd9565b9050602081019050919050565b600081519050919050565b600081519050919050565b600082825260208201905092915050565b600082825260208201905092915050565b600081905092915050565b6000612c7682612dea565b9150612c8183612dea565b9250827fffffffffffffffffffffffffffffffffffffffffffffffffffffffffffffffff03821115612cb657612cb5612f1d565b5b828201905092915050565b6000612ccc82612dea565b9150612cd783612dea565b925082612ce757612ce6612f4c565b5b828204905092915050565b6000612cfd82612dea565b9150612d0883612dea565b9250817fffffffffffffffffffffffffffffffffffffffffffffffffffffffffffffffff0483118215151615612d4157612d40612f1d565b5b828202905092915050565b6000612d5782612dea565b9150612d6283612dea565b925082821015612d7557612d74612f1d565b5b828203905092915050565b6000612d8b82612dca565b9050919050565b60008115159050919050565b60007fffffffff0000000000000000000000000000000000000000000000000000000082169050919050565b600073ffffffffffffffffffffffffffffffffffffffff82169050919050565b6000819050919050565b82818337600083830152505050565b60005b83811015612e21578082015181840152602081019050612e06565b83811115612e30576000848401525b50505050565b60006002820490506001821680612e4e57607f821691505b60208210811415612e6257612e61612f7b565b5b50919050565b612e7182612fd9565b810181811067ffffffffffffffff82111715612e9057612e8f612faa565b5b80604052505050565b6000612ea482612dea565b91507fffffffffffffffffffffffffffffffffffffffffffffffffffffffffffffffff821415612ed757612ed6612f1d565b5b600182019050919050565b6000819050919050565b6000612ef782612dea565b9150612f0283612dea565b925082612f1257612f11612f4c565b5b828206905092915050565b7f4e487b7100000000000000000000000000000000000000000000000000000000600052601160045260246000fd5b7f4e487b7100000000000000000000000000000000000000000000000000000000600052601260045260246000fd5b7f4e487b7100000000000000000000000000000000000000000000000000000000600052602260045260246000fd5b7f4e487b7100000000000000000000000000000000000000000000000000000000600052604160045260246000fd5b6000601f19601f8301169050919050565b7f52414e445f4d6173680000000000000000000000000000000000000000000000600082015250565b7f4552433732313a207472616e7366657220746f206e6f6e20455243373231526560008201527f63656976657220696d706c656d656e7465720000000000000000000000000000602082015250565b7f4552433732313a207472616e736665722066726f6d20696e636f72726563742060008201527f6f776e6572000000000000000000000000000000000000000000000000000000602082015250565b7f4552433732313a20746f6b656e20616c7265616479206d696e74656400000000600082015250565b7f4552433732313a207472616e7366657220746f20746865207a65726f2061646460008201527f7265737300000000000000000000000000000000000000000000000000000000602082015250565b7f4552433732313a20617070726f766520746f2063616c6c657200000000000000600082015250565b7f4552433732313a206f70657261746f7220717565727920666f72206e6f6e657860008201527f697374656e7420746f6b656e0000000000000000000000000000000000000000602082015250565b7f4552433732313a20617070726f76652063616c6c6572206973206e6f74206f7760008201527f6e6572206e6f7220617070726f76656420666f7220616c6c0000000000000000602082015250565b7f4552433732313a2062616c616e636520717565727920666f7220746865207a6560008201527f726f206164647265737300000000000000000000000000000000000000000000602082015250565b7f4552433732313a206f776e657220717565727920666f72206e6f6e657869737460008201527f656e7420746f6b656e0000000000000000000000000000000000000000000000602082015250565b7f45524337323155524953746f726167653a2055524920736574206f66206e6f6e60008201527f6578697374656e7420746f6b656e000000000000000000000000000000000000602082015250565b7f4d6173684e465420230000000000000000000000000000000000000000000000600082015250565b7f2c2022696d616765223a20220000000000000000000000000000000000000000600082015250565b7f227d000000000000000000000000000000000000000000000000000000000000600082015250565b7f4552433732313a206d696e7420746f20746865207a65726f2061646472657373600082015250565b7f45524337323155524953746f726167653a2055524920717565727920666f722060008201527f6e6f6e6578697374656e7420746f6b656e000000000000000000000000000000602082015250565b7f4552433732313a20617070726f76656420717565727920666f72206e6f6e657860008201527f697374656e7420746f6b656e0000000000000000000000000000000000000000602082015250565b7f4552433732314d657461646174613a2055524920717565727920666f72206e6f60008201527f6e6578697374656e7420746f6b656e0000000000000000000000000000000000602082015250565b7f7b226e616d65223a202200000000000000000000000000000000000000000000600082015250565b7f4552433732313a20617070726f76616c20746f2063757272656e74206f776e6560008201527f7200000000000000000000000000000000000000000000000000000000000000602082015250565b7f222c20226465736372697074696f6e223a20224d61736820697320612066616960008201527f746866756c20646f672121220000000000000000000000000000000000000000602082015250565b7f646174613a6170706c69636174696f6e2f6a736f6e3b6261736536342c000000600082015250565b7f4552433732313a207472616e736665722063616c6c6572206973206e6f74206f60008201527f776e6572206e6f7220617070726f766564000000000000000000000000000000602082015250565b6135b681612d80565b81146135c157600080fd5b50565b6135cd81612d92565b81146135d857600080fd5b50565b6135e481612d9e565b81146135ef57600080fd5b50565b6135fb81612dea565b811461360657600080fd5b5056fe416e204e465420772f20494420257320686173206265656e206d696e74656420746f2025734142434445464748494a4b4c4d4e4f505152535455565758595a6162636465666768696a6b6c6d6e6f707172737475767778797a303132333435363738392b2fa264697066735822122002aedd9085d2f342f116662b3809653c179e42779e5ddfad78ed504469d10afa64736f6c6343000804003368747470733a2f2f692e6962622e636f2f44673254705a592f6d6173682e6a706768747470733a2f2f692e6962622e636f2f6a7946565178382f494d472d363835352e6a7067",
  "linkReferences": {},
  "deployedLinkReferences": {}
}