{
  "_format": "hh-sol-artifact-1",
  "contractName": "MashNFT",
  "sourceName": "contracts/MashNFT.sol",
  "abi": [
    {
      "inputs": [],
      "stateMutability": "nonpayable",
      "type": "constructor"
    },
    {
      "anonymous": false,
      "inputs": [
        {
          "indexed": true,
          "internalType": "address",
          "name": "owner",
          "type": "address"
        },
        {
          "indexed": true,
          "internalType": "address",
          "name": "approved",
          "type": "address"
        },
        {
          "indexed": true,
          "internalType": "uint256",
          "name": "tokenId",
          "type": "uint256"
        }
      ],
      "name": "Approval",
      "type": "event"
    },
    {
      "anonymous": false,
      "inputs": [
        {
          "indexed": true,
          "internalType": "address",
          "name": "owner",
          "type": "address"
        },
        {
          "indexed": true,
          "internalType": "address",
          "name": "operator",
          "type": "address"
        },
        {
          "indexed": false,
          "internalType": "bool",
          "name": "approved",
          "type": "bool"
        }
      ],
      "name": "ApprovalForAll",
      "type": "event"
    },
    {
      "anonymous": false,
      "inputs": [
        {
          "indexed": false,
          "internalType": "address",
          "name": "sender",
          "type": "address"
        },
        {
          "indexed": false,
          "internalType": "uint256",
          "name": "tokenId",
          "type": "uint256"
        }
      ],
      "name": "NewEpicNFTMinted",
      "type": "event"
    },
    {
      "anonymous": false,
      "inputs": [
        {
          "indexed": true,
          "internalType": "address",
          "name": "from",
          "type": "address"
        },
        {
          "indexed": true,
          "internalType": "address",
          "name": "to",
          "type": "address"
        },
        {
          "indexed": true,
          "internalType": "uint256",
          "name": "tokenId",
          "type": "uint256"
        }
      ],
      "name": "Transfer",
      "type": "event"
    },
    {
      "inputs": [
        {
          "internalType": "address",
          "name": "to",
          "type": "address"
        },
        {
          "internalType": "uint256",
          "name": "tokenId",
          "type": "uint256"
        }
      ],
      "name": "approve",
      "outputs": [],
      "stateMutability": "nonpayable",
      "type": "function"
    },
    {
      "inputs": [
        {
          "internalType": "address",
          "name": "owner",
          "type": "address"
        }
      ],
      "name": "balanceOf",
      "outputs": [
        {
          "internalType": "uint256",
          "name": "",
          "type": "uint256"
        }
      ],
      "stateMutability": "view",
      "type": "function"
    },
    {
      "inputs": [
        {
          "internalType": "uint256",
          "name": "tokenId",
          "type": "uint256"
        }
      ],
      "name": "getApproved",
      "outputs": [
        {
          "internalType": "address",
          "name": "",
          "type": "address"
        }
      ],
      "stateMutability": "view",
      "type": "function"
    },
    {
      "inputs": [
        {
          "internalType": "address",
          "name": "owner",
          "type": "address"
        },
        {
          "internalType": "address",
          "name": "operator",
          "type": "address"
        }
      ],
      "name": "isApprovedForAll",
      "outputs": [
        {
          "internalType": "bool",
          "name": "",
          "type": "bool"
        }
      ],
      "stateMutability": "view",
      "type": "function"
    },
    {
      "inputs": [],
      "name": "makeAnEpicNFT",
      "outputs": [],
      "stateMutability": "nonpayable",
      "type": "function"
    },
    {
      "inputs": [],
      "name": "name",
      "outputs": [
        {
          "internalType": "string",
          "name": "",
          "type": "string"
        }
      ],
      "stateMutability": "view",
      "type": "function"
    },
    {
      "inputs": [
        {
          "internalType": "uint256",
          "name": "tokenId",
          "type": "uint256"
        }
      ],
      "name": "ownerOf",
      "outputs": [
        {
          "internalType": "address",
          "name": "",
          "type": "address"
        }
      ],
      "stateMutability": "view",
      "type": "function"
    },
    {
      "inputs": [
        {
          "internalType": "uint256",
          "name": "tokenId",
          "type": "uint256"
        }
      ],
      "name": "pickRandomImage",
      "outputs": [
        {
          "internalType": "string",
          "name": "",
          "type": "string"
        }
      ],
      "stateMutability": "view",
      "type": "function"
    },
    {
      "inputs": [
        {
          "internalType": "address",
          "name": "from",
          "type": "address"
        },
        {
          "internalType": "address",
          "name": "to",
          "type": "address"
        },
        {
          "internalType": "uint256",
          "name": "tokenId",
          "type": "uint256"
        }
      ],
      "name": "safeTransferFrom",
      "outputs": [],
      "stateMutability": "nonpayable",
      "type": "function"
    },
    {
      "inputs": [
        {
          "internalType": "address",
          "name": "from",
          "type": "address"
        },
        {
          "internalType": "address",
          "name": "to",
          "type": "address"
        },
        {
          "internalType": "uint256",
          "name": "tokenId",
          "type": "uint256"
        },
        {
          "internalType": "bytes",
          "name": "_data",
          "type": "bytes"
        }
      ],
      "name": "safeTransferFrom",
      "outputs": [],
      "stateMutability": "nonpayable",
      "type": "function"
    },
    {
      "inputs": [
        {
          "internalType": "address",
          "name": "operator",
          "type": "address"
        },
        {
          "internalType": "bool",
          "name": "approved",
          "type": "bool"
        }
      ],
      "name": "setApprovalForAll",
      "outputs": [],
      "stateMutability": "nonpayable",
      "type": "function"
    },
    {
      "inputs": [
        {
          "internalType": "bytes4",
          "name": "interfaceId",
          "type": "bytes4"
        }
      ],
      "name": "supportsInterface",
      "outputs": [
        {
          "internalType": "bool",
          "name": "",
          "type": "bool"
        }
      ],
      "stateMutability": "view",
      "type": "function"
    },
    {
      "inputs": [],
      "name": "symbol",
      "outputs": [
        {
          "internalType": "string",
          "name": "",
          "type": "string"
        }
      ],
      "stateMutability": "view",
      "type": "function"
    },
    {
      "inputs": [
        {
          "internalType": "uint256",
          "name": "tokenId",
          "type": "uint256"
        }
      ],
      "name": "tokenURI",
      "outputs": [
        {
          "internalType": "string",
          "name": "",
          "type": "string"
        }
      ],
      "stateMutability": "view",
      "type": "function"
    },
    {
      "inputs": [],
      "name": "totalSupply",
      "outputs": [
        {
          "internalType": "uint256",
          "name": "",
          "type": "uint256"
        }
      ],
      "stateMutability": "view",
      "type": "function"
    },
    {
      "inputs": [
        {
          "internalType": "address",
          "name": "from",
          "type": "address"
        },
        {
          "internalType": "address",
          "name": "to",
          "type": "address"
        },
        {
          "internalType": "uint256",
          "name": "tokenId",
          "type": "uint256"
        }
      ],
      "name": "transferFrom",
      "outputs": [],
      "stateMutability": "nonpayable",
      "type": "function"
    }
  ],
  "bytecode": "0x6080604052604051806060016040528060405180606001604052806021815260200162003b3a60219139815260200160405180606001604052806025815260200162003b5b60259139815260200160405180606001604052806025815260200162003b806025913981525060089060036200007c92919062000248565b503480156200008a57600080fd5b506040518060400160405280600781526020017f4d6173684e4654000000000000000000000000000000000000000000000000008152506040518060400160405280600481526020017f4d4153480000000000000000000000000000000000000000000000000000000081525081600090805190602001906200010f929190620002af565b50806001908051906020019062000128929190620002af565b505050620001766040518060400160405280601c81526020017f54686973206973206d79204d6173684e465420636f6e74726163742e000000008152506200017c60201b62000e571760201c565b620004fa565b6200021c816040516024016200019391906200040e565b6040516020818303038152906040527f41304fac000000000000000000000000000000000000000000000000000000007bffffffffffffffffffffffffffffffffffffffffffffffffffffffff19166020820180517bffffffffffffffffffffffffffffffffffffffffffffffffffffffff83818316178352505050506200021f60201b60201c565b50565b60008151905060006a636f6e736f6c652e6c6f679050602083016000808483855afa5050505050565b8280548282559060005260206000209081019282156200029c579160200282015b828111156200029b5782518290805190602001906200028a929190620002af565b509160200191906001019062000269565b5b509050620002ab919062000340565b5090565b828054620002bd9062000484565b90600052602060002090601f016020900481019282620002e157600085556200032d565b82601f10620002fc57805160ff19168380011785556200032d565b828001600101855582156200032d579182015b828111156200032c5782518255916020019190600101906200030f565b5b5090506200033c919062000368565b5090565b5b808211156200036457600081816200035a919062000387565b5060010162000341565b5090565b5b808211156200038357600081600090555060010162000369565b5090565b508054620003959062000484565b6000825580601f10620003a95750620003ca565b601f016020900490600052602060002090810190620003c9919062000368565b5b50565b6000620003da8262000432565b620003e681856200043d565b9350620003f88185602086016200044e565b6200040381620004e9565b840191505092915050565b600060208201905081810360008301526200042a8184620003cd565b905092915050565b600081519050919050565b600082825260208201905092915050565b60005b838110156200046e57808201518184015260208101905062000451565b838111156200047e576000848401525b50505050565b600060028204905060018216806200049d57607f821691505b60208210811415620004b457620004b3620004ba565b5b50919050565b7f4e487b7100000000000000000000000000000000000000000000000000000000600052602260045260246000fd5b6000601f19601f8301169050919050565b613630806200050a6000396000f3fe608060405234801561001057600080fd5b50600436106101005760003560e01c806370a0823111610097578063c87b56dd11610066578063c87b56dd146102ab578063d13508fc146102db578063de9d132f1461030b578063e985e9c51461031557610100565b806370a082311461022557806395d89b4114610255578063a22cb46514610273578063b88d4fde1461028f57610100565b806318160ddd116100d357806318160ddd1461019f57806323b872dd146101bd57806342842e0e146101d95780636352211e146101f557610100565b806301ffc9a71461010557806306fdde0314610135578063081812fc14610153578063095ea7b314610183575b600080fd5b61011f600480360381019061011a919061231f565b610345565b60405161012c91906128cb565b60405180910390f35b61013d610427565b60405161014a91906128e6565b60405180910390f35b61016d60048036038101906101689190612371565b6104b9565b60405161017a919061283b565b60405180910390f35b61019d600480360381019061019891906122e3565b61053e565b005b6101a7610656565b6040516101b49190612b76565b60405180910390f35b6101d760048036038101906101d291906121dd565b610667565b005b6101f360048036038101906101ee91906121dd565b6106c7565b005b61020f600480360381019061020a9190612371565b6106e7565b60405161021c919061283b565b60405180910390f35b61023f600480360381019061023a9190612178565b610799565b60405161024c9190612b76565b60405180910390f35b61025d610851565b60405161026a91906128e6565b60405180910390f35b61028d600480360381019061028891906122a7565b6108e3565b005b6102a960048036038101906102a4919061222c565b6108f9565b005b6102c560048036038101906102c09190612371565b61095b565b6040516102d291906128e6565b60405180910390f35b6102f560048036038101906102f09190612371565b610aad565b60405161030291906128e6565b60405180910390f35b610313610c49565b005b61032f600480360381019061032a91906121a1565b610dc3565b60405161033c91906128cb565b60405180910390f35b60007f80ac58cd000000000000000000000000000000000000000000000000000000007bffffffffffffffffffffffffffffffffffffffffffffffffffffffff1916827bffffffffffffffffffffffffffffffffffffffffffffffffffffffff1916148061041057507f5b5e139f000000000000000000000000000000000000000000000000000000007bffffffffffffffffffffffffffffffffffffffffffffffffffffffff1916827bffffffffffffffffffffffffffffffffffffffffffffffffffffffff1916145b80610420575061041f82610ef0565b5b9050919050565b60606000805461043690612df5565b80601f016020809104026020016040519081016040528092919081815260200182805461046290612df5565b80156104af5780601f10610484576101008083540402835291602001916104af565b820191906000526020600020905b81548152906001019060200180831161049257829003601f168201915b5050505050905090565b60006104c482610f5a565b610503576040517f08c379a00000000000000000000000000000000000000000000000000000000081526004016104fa90612af6565b60405180910390fd5b6004600083815260200190815260200160002060009054906101000a900473ffffffffffffffffffffffffffffffffffffffff169050919050565b6000610549826106e7565b90508073ffffffffffffffffffffffffffffffffffffffff168373ffffffffffffffffffffffffffffffffffffffff1614156105ba576040517f08c379a00000000000000000000000000000000000000000000000000000000081526004016105b190612b36565b60405180910390fd5b8073ffffffffffffffffffffffffffffffffffffffff166105d9610fc6565b73ffffffffffffffffffffffffffffffffffffffff161480610608575061060781610602610fc6565b610dc3565b5b610647576040517f08c379a000000000000000000000000000000000000000000000000000000000815260040161063e90612a36565b60405180910390fd5b6106518383610fce565b505050565b60006106626007611087565b905090565b610678610672610fc6565b82611095565b6106b7576040517f08c379a00000000000000000000000000000000000000000000000000000000081526004016106ae90612b56565b60405180910390fd5b6106c2838383611173565b505050565b6106e2838383604051806020016040528060008152506108f9565b505050565b6000806002600084815260200190815260200160002060009054906101000a900473ffffffffffffffffffffffffffffffffffffffff169050600073ffffffffffffffffffffffffffffffffffffffff168173ffffffffffffffffffffffffffffffffffffffff161415610790576040517f08c379a000000000000000000000000000000000000000000000000000000000815260040161078790612a76565b60405180910390fd5b80915050919050565b60008073ffffffffffffffffffffffffffffffffffffffff168273ffffffffffffffffffffffffffffffffffffffff16141561080a576040517f08c379a000000000000000000000000000000000000000000000000000000000815260040161080190612a56565b60405180910390fd5b600360008373ffffffffffffffffffffffffffffffffffffffff1673ffffffffffffffffffffffffffffffffffffffff168152602001908152602001600020549050919050565b60606001805461086090612df5565b80601f016020809104026020016040519081016040528092919081815260200182805461088c90612df5565b80156108d95780601f106108ae576101008083540402835291602001916108d9565b820191906000526020600020905b8154815290600101906020018083116108bc57829003601f168201915b5050505050905090565b6108f56108ee610fc6565b83836113da565b5050565b61090a610904610fc6565b83611095565b610949576040517f08c379a000000000000000000000000000000000000000000000000000000000815260040161094090612b56565b60405180910390fd5b61095584848484611547565b50505050565b606061096682610f5a565b6109a5576040517f08c379a000000000000000000000000000000000000000000000000000000000815260040161099c90612ad6565b60405180910390fd5b60006006600084815260200190815260200160002080546109c590612df5565b80601f01602080910402602001604051908101604052809291908181526020018280546109f190612df5565b8015610a3e5780601f10610a1357610100808354040283529160200191610a3e565b820191906000526020600020905b815481529060010190602001808311610a2157829003601f168201915b505050505090506000610a4f6115a3565b9050600081511415610a65578192505050610aa8565b600082511115610a9a578082604051602001610a82929190612783565b60405160208183030381529060405292505050610aa8565b610aa3846115ba565b925050505b919050565b60606000610ae1610abd84611661565b604051602001610acd91906127a7565b60405160208183030381529060405261180e565b9050610b226040518060400160405280600b81526020017f72616e6420736565643a2000000000000000000000000000000000000000000081525082611841565b60088054905081610b339190612ea1565b9050610b746040518060400160405280600c81526020017f72616e6420696d6167653a20000000000000000000000000000000000000000081525082611841565b60088181548110610bae577f4e487b7100000000000000000000000000000000000000000000000000000000600052603260045260246000fd5b906000526020600020018054610bc390612df5565b80601f0160208091040260200160405190810160405280929190818152602001828054610bef90612df5565b8015610c3c5780601f10610c1157610100808354040283529160200191610c3c565b820191906000526020600020905b815481529060010190602001808311610c1f57829003601f168201915b5050505050915050919050565b6000610c556007611087565b90506000610c6282610aad565b90506000610c98610c7284611661565b83604051602001610c849291906127eb565b6040516020818303038152906040526118dd565b9050600081604051602001610cad91906127c9565b6040516020818303038152906040529050610cfc6040518060400160405280601581526020017f0a2d2d2d2d2d2d2d2d2d2d2d2d2d2d2d2d2d2d2d2d0000000000000000000000815250610e57565b610d0581610e57565b610d436040518060400160405280601581526020017f2d2d2d2d2d2d2d2d2d2d2d2d2d2d2d2d2d2d2d2d0a0000000000000000000000815250610e57565b610d4d3385611a9b565b610d578482611ab9565b610d7a604051806060016040528060258152602001613596602591398533611b2d565b610d846007611bcc565b7febb98688741ffa4c7589bf325de30cf7becb63de567842e1ccdb6cb949fdc82c3385604051610db59291906128a2565b60405180910390a150505050565b6000600560008473ffffffffffffffffffffffffffffffffffffffff1673ffffffffffffffffffffffffffffffffffffffff16815260200190815260200160002060008373ffffffffffffffffffffffffffffffffffffffff1673ffffffffffffffffffffffffffffffffffffffff16815260200190815260200160002060009054906101000a900460ff16905092915050565b610eed81604051602401610e6b91906128e6565b6040516020818303038152906040527f41304fac000000000000000000000000000000000000000000000000000000007bffffffffffffffffffffffffffffffffffffffffffffffffffffffff19166020820180517bffffffffffffffffffffffffffffffffffffffffffffffffffffffff8381831617835250505050611be2565b50565b60007f01ffc9a7000000000000000000000000000000000000000000000000000000007bffffffffffffffffffffffffffffffffffffffffffffffffffffffff1916827bffffffffffffffffffffffffffffffffffffffffffffffffffffffff1916149050919050565b60008073ffffffffffffffffffffffffffffffffffffffff166002600084815260200190815260200160002060009054906101000a900473ffffffffffffffffffffffffffffffffffffffff1673ffffffffffffffffffffffffffffffffffffffff1614159050919050565b600033905090565b816004600083815260200190815260200160002060006101000a81548173ffffffffffffffffffffffffffffffffffffffff021916908373ffffffffffffffffffffffffffffffffffffffff160217905550808273ffffffffffffffffffffffffffffffffffffffff16611041836106e7565b73ffffffffffffffffffffffffffffffffffffffff167f8c5be1e5ebec7d5bd14f71427d1e84f3dd0314c0f7b2291e5b200ac8c7c3b92560405160405180910390a45050565b600081600001549050919050565b60006110a082610f5a565b6110df576040517f08c379a00000000000000000000000000000000000000000000000000000000081526004016110d690612a16565b60405180910390fd5b60006110ea836106e7565b90508073ffffffffffffffffffffffffffffffffffffffff168473ffffffffffffffffffffffffffffffffffffffff16148061112c575061112b8185610dc3565b5b8061116a57508373ffffffffffffffffffffffffffffffffffffffff16611152846104b9565b73ffffffffffffffffffffffffffffffffffffffff16145b91505092915050565b8273ffffffffffffffffffffffffffffffffffffffff16611193826106e7565b73ffffffffffffffffffffffffffffffffffffffff16146111e9576040517f08c379a00000000000000000000000000000000000000000000000000000000081526004016111e090612996565b60405180910390fd5b600073ffffffffffffffffffffffffffffffffffffffff168273ffffffffffffffffffffffffffffffffffffffff161415611259576040517f08c379a0000000000000000000000000000000000000000000000000000000008152600401611250906129d6565b60405180910390fd5b611264838383611c0b565b61126f600082610fce565b6001600360008573ffffffffffffffffffffffffffffffffffffffff1673ffffffffffffffffffffffffffffffffffffffff16815260200190815260200160002060008282546112bf9190612d0b565b925050819055506001600360008473ffffffffffffffffffffffffffffffffffffffff1673ffffffffffffffffffffffffffffffffffffffff16815260200190815260200160002060008282546113169190612c2a565b92505081905550816002600083815260200190815260200160002060006101000a81548173ffffffffffffffffffffffffffffffffffffffff021916908373ffffffffffffffffffffffffffffffffffffffff160217905550808273ffffffffffffffffffffffffffffffffffffffff168473ffffffffffffffffffffffffffffffffffffffff167fddf252ad1be2c89b69c2b068fc378daa952ba7f163c4a11628f55a4df523b3ef60405160405180910390a46113d5838383611c10565b505050565b8173ffffffffffffffffffffffffffffffffffffffff168373ffffffffffffffffffffffffffffffffffffffff161415611449576040517f08c379a0000000000000000000000000000000000000000000000000000000008152600401611440906129f6565b60405180910390fd5b80600560008573ffffffffffffffffffffffffffffffffffffffff1673ffffffffffffffffffffffffffffffffffffffff16815260200190815260200160002060008473ffffffffffffffffffffffffffffffffffffffff1673ffffffffffffffffffffffffffffffffffffffff16815260200190815260200160002060006101000a81548160ff0219169083151502179055508173ffffffffffffffffffffffffffffffffffffffff168373ffffffffffffffffffffffffffffffffffffffff167f17307eab39ab6107e8899845ad3d59bd9653f200f220920489ca2b5937696c318360405161153a91906128cb565b60405180910390a3505050565b611552848484611173565b61155e84848484611c15565b61159d576040517f08c379a000000000000000000000000000000000000000000000000000000000815260040161159490612976565b60405180910390fd5b50505050565b606060405180602001604052806000815250905090565b60606115c582610f5a565b611604576040517f08c379a00000000000000000000000000000000000000000000000000000000081526004016115fb90612b16565b60405180910390fd5b600061160e6115a3565b9050600081511161162e5760405180602001604052806000815250611659565b8061163884611661565b604051602001611649929190612783565b6040516020818303038152906040525b915050919050565b606060008214156116a9576040518060400160405280600181526020017f30000000000000000000000000000000000000000000000000000000000000008152509050611809565b600082905060005b600082146116db5780806116c490612e58565b915050600a826116d49190612c80565b91506116b1565b60008167ffffffffffffffff81111561171d577f4e487b7100000000000000000000000000000000000000000000000000000000600052604160045260246000fd5b6040519080825280601f01601f19166020018201604052801561174f5781602001600182028036833780820191505090505b5090505b60008514611802576001826117689190612d0b565b9150600a856117779190612ea1565b60306117839190612c2a565b60f81b8183815181106117bf577f4e487b7100000000000000000000000000000000000000000000000000000000600052603260045260246000fd5b60200101907effffffffffffffffffffffffffffffffffffffffffffffffffffffffffffff1916908160001a905350600a856117fb9190612c80565b9450611753565b8093505050505b919050565b600081604051602001611821919061276c565b6040516020818303038152906040528051906020012060001c9050919050565b6118d98282604051602401611857929190612908565b6040516020818303038152906040527f9710a9d0000000000000000000000000000000000000000000000000000000007bffffffffffffffffffffffffffffffffffffffffffffffffffffffff19166020820180517bffffffffffffffffffffffffffffffffffffffffffffffffffffffff8381831617835250505050611be2565b5050565b606060008251905060008114156119065760405180602001604052806000815250915050611a96565b600060036002836119179190612c2a565b6119219190612c80565b600461192d9190612cb1565b9050600060208261193e9190612c2a565b67ffffffffffffffff81111561197d577f4e487b7100000000000000000000000000000000000000000000000000000000600052604160045260246000fd5b6040519080825280601f01601f1916602001820160405280156119af5781602001600182028036833780820191505090505b50905060006040518060600160405280604081526020016135bb604091399050600181016020830160005b86811015611a535760038101905062ffffff818a015116603f8160121c168401518060081b905060ff603f83600c1c1686015116810190508060081b905060ff603f8360061c1686015116810190508060081b905060ff603f831686015116810190508060e01b905080845260048401935050506119da565b506003860660018114611a6d5760028114611a7d57611a88565b613d3d60f01b6002830352611a88565b603d60f81b60018303525b508484525050819450505050505b919050565b611ab5828260405180602001604052806000815250611dac565b5050565b611ac282610f5a565b611b01576040517f08c379a0000000000000000000000000000000000000000000000000000000008152600401611af890612a96565b60405180910390fd5b80600660008481526020019081526020016000209080519060200190611b28929190612004565b505050565b611bc7838383604051602401611b4593929190612938565b6040516020818303038152906040527fe3849f79000000000000000000000000000000000000000000000000000000007bffffffffffffffffffffffffffffffffffffffffffffffffffffffff19166020820180517bffffffffffffffffffffffffffffffffffffffffffffffffffffffff8381831617835250505050611be2565b505050565b6001816000016000828254019250508190555050565b60008151905060006a636f6e736f6c652e6c6f679050602083016000808483855afa5050505050565b505050565b505050565b6000611c368473ffffffffffffffffffffffffffffffffffffffff16611e07565b15611d9f578373ffffffffffffffffffffffffffffffffffffffff1663150b7a02611c5f610fc6565b8786866040518563ffffffff1660e01b8152600401611c819493929190612856565b602060405180830381600087803b158015611c9b57600080fd5b505af1925050508015611ccc57506040513d601f19601f82011682018060405250810190611cc99190612348565b60015b611d4f573d8060008114611cfc576040519150601f19603f3d011682016040523d82523d6000602084013e611d01565b606091505b50600081511415611d47576040517f08c379a0000000000000000000000000000000000000000000000000000000008152600401611d3e90612976565b60405180910390fd5b805181602001fd5b63150b7a0260e01b7bffffffffffffffffffffffffffffffffffffffffffffffffffffffff1916817bffffffffffffffffffffffffffffffffffffffffffffffffffffffff191614915050611da4565b600190505b949350505050565b611db68383611e2a565b611dc36000848484611c15565b611e02576040517f08c379a0000000000000000000000000000000000000000000000000000000008152600401611df990612976565b60405180910390fd5b505050565b6000808273ffffffffffffffffffffffffffffffffffffffff163b119050919050565b600073ffffffffffffffffffffffffffffffffffffffff168273ffffffffffffffffffffffffffffffffffffffff161415611e9a576040517f08c379a0000000000000000000000000000000000000000000000000000000008152600401611e9190612ab6565b60405180910390fd5b611ea381610f5a565b15611ee3576040517f08c379a0000000000000000000000000000000000000000000000000000000008152600401611eda906129b6565b60405180910390fd5b611eef60008383611c0b565b6001600360008473ffffffffffffffffffffffffffffffffffffffff1673ffffffffffffffffffffffffffffffffffffffff1681526020019081526020016000206000828254611f3f9190612c2a565b92505081905550816002600083815260200190815260200160002060006101000a81548173ffffffffffffffffffffffffffffffffffffffff021916908373ffffffffffffffffffffffffffffffffffffffff160217905550808273ffffffffffffffffffffffffffffffffffffffff16600073ffffffffffffffffffffffffffffffffffffffff167fddf252ad1be2c89b69c2b068fc378daa952ba7f163c4a11628f55a4df523b3ef60405160405180910390a461200060008383611c10565b5050565b82805461201090612df5565b90600052602060002090601f0160209004810192826120325760008555612079565b82601f1061204b57805160ff1916838001178555612079565b82800160010185558215612079579182015b8281111561207857825182559160200191906001019061205d565b5b509050612086919061208a565b5090565b5b808211156120a357600081600090555060010161208b565b5090565b60006120ba6120b584612bb6565b612b91565b9050828152602081018484840111156120d257600080fd5b6120dd848285612db3565b509392505050565b6000813590506120f481613539565b92915050565b60008135905061210981613550565b92915050565b60008135905061211e81613567565b92915050565b60008151905061213381613567565b92915050565b600082601f83011261214a57600080fd5b813561215a8482602086016120a7565b91505092915050565b6000813590506121728161357e565b92915050565b60006020828403121561218a57600080fd5b6000612198848285016120e5565b91505092915050565b600080604083850312156121b457600080fd5b60006121c2858286016120e5565b92505060206121d3858286016120e5565b9150509250929050565b6000806000606084860312156121f257600080fd5b6000612200868287016120e5565b9350506020612211868287016120e5565b925050604061222286828701612163565b9150509250925092565b6000806000806080858703121561224257600080fd5b6000612250878288016120e5565b9450506020612261878288016120e5565b935050604061227287828801612163565b925050606085013567ffffffffffffffff81111561228f57600080fd5b61229b87828801612139565b91505092959194509250565b600080604083850312156122ba57600080fd5b60006122c8858286016120e5565b92505060206122d9858286016120fa565b9150509250929050565b600080604083850312156122f657600080fd5b6000612304858286016120e5565b925050602061231585828601612163565b9150509250929050565b60006020828403121561233157600080fd5b600061233f8482850161210f565b91505092915050565b60006020828403121561235a57600080fd5b600061236884828501612124565b91505092915050565b60006020828403121561238357600080fd5b600061239184828501612163565b91505092915050565b6123a381612d3f565b82525050565b6123b281612d51565b82525050565b60006123c382612be7565b6123cd8185612bfd565b93506123dd818560208601612dc2565b6123e681612f8e565b840191505092915050565b60006123fc82612bf2565b6124068185612c0e565b9350612416818560208601612dc2565b61241f81612f8e565b840191505092915050565b600061243582612bf2565b61243f8185612c1f565b935061244f818560208601612dc2565b80840191505092915050565b6000612468600983612c1f565b915061247382612f9f565b600982019050919050565b600061248b603283612c0e565b915061249682612fc8565b604082019050919050565b60006124ae602583612c0e565b91506124b982613017565b604082019050919050565b60006124d1601c83612c0e565b91506124dc82613066565b602082019050919050565b60006124f4602483612c0e565b91506124ff8261308f565b604082019050919050565b6000612517601983612c0e565b9150612522826130de565b602082019050919050565b600061253a602c83612c0e565b915061254582613107565b604082019050919050565b600061255d603883612c0e565b915061256882613156565b604082019050919050565b6000612580602a83612c0e565b915061258b826131a5565b604082019050919050565b60006125a3602983612c0e565b91506125ae826131f4565b604082019050919050565b60006125c6602e83612c0e565b91506125d182613243565b604082019050919050565b60006125e9600283612c1f565b91506125f482613292565b600282019050919050565b600061260c602083612c0e565b9150612617826132bb565b602082019050919050565b600061262f603183612c0e565b915061263a826132e4565b604082019050919050565b6000612652602c83612c0e565b915061265d82613333565b604082019050919050565b6000612675602f83612c0e565b915061268082613382565b604082019050919050565b6000612698602183612c0e565b91506126a3826133d1565b604082019050919050565b60006126bb602c83612c1f565b91506126c682613420565b602c82019050919050565b60006126de601d83612c1f565b91506126e98261346f565b601d82019050919050565b6000612701600b83612c1f565b915061270c82613498565b600b82019050919050565b6000612724603183612c0e565b915061272f826134c1565b604082019050919050565b6000612747601383612c1f565b915061275282613510565b601382019050919050565b61276681612da9565b82525050565b6000612778828461242a565b915081905092915050565b600061278f828561242a565b915061279b828461242a565b91508190509392505050565b60006127b28261245b565b91506127be828461242a565b915081905092915050565b60006127d4826126d1565b91506127e0828461242a565b915081905092915050565b60006127f68261273a565b9150612802828561242a565b915061280d826126ae565b9150612818826126f4565b9150612824828461242a565b915061282f826125dc565b91508190509392505050565b6000602082019050612850600083018461239a565b92915050565b600060808201905061286b600083018761239a565b612878602083018661239a565b612885604083018561275d565b818103606083015261289781846123b8565b905095945050505050565b60006040820190506128b7600083018561239a565b6128c4602083018461275d565b9392505050565b60006020820190506128e060008301846123a9565b92915050565b6000602082019050818103600083015261290081846123f1565b905092915050565b6000604082019050818103600083015261292281856123f1565b9050612931602083018461275d565b9392505050565b6000606082019050818103600083015261295281866123f1565b9050612961602083018561275d565b61296e604083018461239a565b949350505050565b6000602082019050818103600083015261298f8161247e565b9050919050565b600060208201905081810360008301526129af816124a1565b9050919050565b600060208201905081810360008301526129cf816124c4565b9050919050565b600060208201905081810360008301526129ef816124e7565b9050919050565b60006020820190508181036000830152612a0f8161250a565b9050919050565b60006020820190508181036000830152612a2f8161252d565b9050919050565b60006020820190508181036000830152612a4f81612550565b9050919050565b60006020820190508181036000830152612a6f81612573565b9050919050565b60006020820190508181036000830152612a8f81612596565b9050919050565b60006020820190508181036000830152612aaf816125b9565b9050919050565b60006020820190508181036000830152612acf816125ff565b9050919050565b60006020820190508181036000830152612aef81612622565b9050919050565b60006020820190508181036000830152612b0f81612645565b9050919050565b60006020820190508181036000830152612b2f81612668565b9050919050565b60006020820190508181036000830152612b4f8161268b565b9050919050565b60006020820190508181036000830152612b6f81612717565b9050919050565b6000602082019050612b8b600083018461275d565b92915050565b6000612b9b612bac565b9050612ba78282612e27565b919050565b6000604051905090565b600067ffffffffffffffff821115612bd157612bd0612f5f565b5b612bda82612f8e565b9050602081019050919050565b600081519050919050565b600081519050919050565b600082825260208201905092915050565b600082825260208201905092915050565b600081905092915050565b6000612c3582612da9565b9150612c4083612da9565b9250827fffffffffffffffffffffffffffffffffffffffffffffffffffffffffffffffff03821115612c7557612c74612ed2565b5b828201905092915050565b6000612c8b82612da9565b9150612c9683612da9565b925082612ca657612ca5612f01565b5b828204905092915050565b6000612cbc82612da9565b9150612cc783612da9565b9250817fffffffffffffffffffffffffffffffffffffffffffffffffffffffffffffffff0483118215151615612d0057612cff612ed2565b5b828202905092915050565b6000612d1682612da9565b9150612d2183612da9565b925082821015612d3457612d33612ed2565b5b828203905092915050565b6000612d4a82612d89565b9050919050565b60008115159050919050565b60007fffffffff0000000000000000000000000000000000000000000000000000000082169050919050565b600073ffffffffffffffffffffffffffffffffffffffff82169050919050565b6000819050919050565b82818337600083830152505050565b60005b83811015612de0578082015181840152602081019050612dc5565b83811115612def576000848401525b50505050565b60006002820490506001821680612e0d57607f821691505b60208210811415612e2157612e20612f30565b5b50919050565b612e3082612f8e565b810181811067ffffffffffffffff82111715612e4f57612e4e612f5f565b5b80604052505050565b6000612e6382612da9565b91507fffffffffffffffffffffffffffffffffffffffffffffffffffffffffffffffff821415612e9657612e95612ed2565b5b600182019050919050565b6000612eac82612da9565b9150612eb783612da9565b925082612ec757612ec6612f01565b5b828206905092915050565b7f4e487b7100000000000000000000000000000000000000000000000000000000600052601160045260246000fd5b7f4e487b7100000000000000000000000000000000000000000000000000000000600052601260045260246000fd5b7f4e487b7100000000000000000000000000000000000000000000000000000000600052602260045260246000fd5b7f4e487b7100000000000000000000000000000000000000000000000000000000600052604160045260246000fd5b6000601f19601f8301169050919050565b7f52414e445f4d6173680000000000000000000000000000000000000000000000600082015250565b7f4552433732313a207472616e7366657220746f206e6f6e20455243373231526560008201527f63656976657220696d706c656d656e7465720000000000000000000000000000602082015250565b7f4552433732313a207472616e736665722066726f6d20696e636f72726563742060008201527f6f776e6572000000000000000000000000000000000000000000000000000000602082015250565b7f4552433732313a20746f6b656e20616c7265616479206d696e74656400000000600082015250565b7f4552433732313a207472616e7366657220746f20746865207a65726f2061646460008201527f7265737300000000000000000000000000000000000000000000000000000000602082015250565b7f4552433732313a20617070726f766520746f2063616c6c657200000000000000600082015250565b7f4552433732313a206f70657261746f7220717565727920666f72206e6f6e657860008201527f697374656e7420746f6b656e0000000000000000000000000000000000000000602082015250565b7f4552433732313a20617070726f76652063616c6c6572206973206e6f74206f7760008201527f6e6572206e6f7220617070726f76656420666f7220616c6c0000000000000000602082015250565b7f4552433732313a2062616c616e636520717565727920666f7220746865207a6560008201527f726f206164647265737300000000000000000000000000000000000000000000602082015250565b7f4552433732313a206f776e657220717565727920666f72206e6f6e657869737460008201527f656e7420746f6b656e0000000000000000000000000000000000000000000000602082015250565b7f45524337323155524953746f726167653a2055524920736574206f66206e6f6e60008201527f6578697374656e7420746f6b656e000000000000000000000000000000000000602082015250565b7f227d000000000000000000000000000000000000000000000000000000000000600082015250565b7f4552433732313a206d696e7420746f20746865207a65726f2061646472657373600082015250565b7f45524337323155524953746f726167653a2055524920717565727920666f722060008201527f6e6f6e6578697374656e7420746f6b656e000000000000000000000000000000602082015250565b7f4552433732313a20617070726f76656420717565727920666f72206e6f6e657860008201527f697374656e7420746f6b656e0000000000000000000000000000000000000000602082015250565b7f4552433732314d657461646174613a2055524920717565727920666f72206e6f60008201527f6e6578697374656e7420746f6b656e0000000000000000000000000000000000602082015250565b7f4552433732313a20617070726f76616c20746f2063757272656e74206f776e6560008201527f7200000000000000000000000000000000000000000000000000000000000000602082015250565b7f222c20226465736372697074696f6e223a20224d61736820697320612066616960008201527f746866756c20646f672121220000000000000000000000000000000000000000602082015250565b7f646174613a6170706c69636174696f6e2f6a736f6e3b6261736536342c000000600082015250565b7f2c22696d616765223a2022000000000000000000000000000000000000000000600082015250565b7f4552433732313a207472616e736665722063616c6c6572206973206e6f74206f60008201527f776e6572206e6f7220617070726f766564000000000000000000000000000000602082015250565b7f7b226e616d65223a20224d6173684e4654202300000000000000000000000000600082015250565b61354281612d3f565b811461354d57600080fd5b50565b61355981612d51565b811461356457600080fd5b50565b61357081612d5d565b811461357b57600080fd5b50565b61358781612da9565b811461359257600080fd5b5056fe416e204e465420772f20494420257320686173206265656e206d696e74656420746f2025734142434445464748494a4b4c4d4e4f505152535455565758595a6162636465666768696a6b6c6d6e6f707172737475767778797a303132333435363738392b2fa2646970667358221220d74d3042b25edba8ba1f3a1a143ee105e771921399360d679f2665ebd8f0297064736f6c6343000804003368747470733a2f2f692e6962622e636f2f44673254705a592f6d6173682e6a706768747470733a2f2f692e6962622e636f2f6a7946565178382f494d472d363835352e6a706768747470733a2f2f692e6962622e636f2f536451586d42672f494d472d343739322e706e67",
  "linkReferences": {},
  "deployedLinkReferences": {}
}