{
  "_format": "hh-sol-artifact-1",
  "contractName": "MyEpicNFT",
  "sourceName": "contracts/MyEpicNFT.sol",
  "abi": [
    {
      "inputs": [],
      "stateMutability": "nonpayable",
      "type": "constructor"
    },
    {
      "anonymous": false,
      "inputs": [
        {
          "indexed": true,
          "internalType": "address",
          "name": "owner",
          "type": "address"
        },
        {
          "indexed": true,
          "internalType": "address",
          "name": "approved",
          "type": "address"
        },
        {
          "indexed": true,
          "internalType": "uint256",
          "name": "tokenId",
          "type": "uint256"
        }
      ],
      "name": "Approval",
      "type": "event"
    },
    {
      "anonymous": false,
      "inputs": [
        {
          "indexed": true,
          "internalType": "address",
          "name": "owner",
          "type": "address"
        },
        {
          "indexed": true,
          "internalType": "address",
          "name": "operator",
          "type": "address"
        },
        {
          "indexed": false,
          "internalType": "bool",
          "name": "approved",
          "type": "bool"
        }
      ],
      "name": "ApprovalForAll",
      "type": "event"
    },
    {
      "anonymous": false,
      "inputs": [
        {
          "indexed": true,
          "internalType": "address",
          "name": "from",
          "type": "address"
        },
        {
          "indexed": true,
          "internalType": "address",
          "name": "to",
          "type": "address"
        },
        {
          "indexed": true,
          "internalType": "uint256",
          "name": "tokenId",
          "type": "uint256"
        }
      ],
      "name": "Transfer",
      "type": "event"
    },
    {
      "inputs": [
        {
          "internalType": "address",
          "name": "to",
          "type": "address"
        },
        {
          "internalType": "uint256",
          "name": "tokenId",
          "type": "uint256"
        }
      ],
      "name": "approve",
      "outputs": [],
      "stateMutability": "nonpayable",
      "type": "function"
    },
    {
      "inputs": [
        {
          "internalType": "address",
          "name": "owner",
          "type": "address"
        }
      ],
      "name": "balanceOf",
      "outputs": [
        {
          "internalType": "uint256",
          "name": "",
          "type": "uint256"
        }
      ],
      "stateMutability": "view",
      "type": "function"
    },
    {
      "inputs": [
        {
          "internalType": "uint256",
          "name": "tokenId",
          "type": "uint256"
        }
      ],
      "name": "getApproved",
      "outputs": [
        {
          "internalType": "address",
          "name": "",
          "type": "address"
        }
      ],
      "stateMutability": "view",
      "type": "function"
    },
    {
      "inputs": [
        {
          "internalType": "address",
          "name": "owner",
          "type": "address"
        },
        {
          "internalType": "address",
          "name": "operator",
          "type": "address"
        }
      ],
      "name": "isApprovedForAll",
      "outputs": [
        {
          "internalType": "bool",
          "name": "",
          "type": "bool"
        }
      ],
      "stateMutability": "view",
      "type": "function"
    },
    {
      "inputs": [],
      "name": "makeAnEpicNFT",
      "outputs": [],
      "stateMutability": "nonpayable",
      "type": "function"
    },
    {
      "inputs": [],
      "name": "name",
      "outputs": [
        {
          "internalType": "string",
          "name": "",
          "type": "string"
        }
      ],
      "stateMutability": "view",
      "type": "function"
    },
    {
      "inputs": [
        {
          "internalType": "uint256",
          "name": "tokenId",
          "type": "uint256"
        }
      ],
      "name": "ownerOf",
      "outputs": [
        {
          "internalType": "address",
          "name": "",
          "type": "address"
        }
      ],
      "stateMutability": "view",
      "type": "function"
    },
    {
      "inputs": [
        {
          "internalType": "uint256",
          "name": "tokenId",
          "type": "uint256"
        }
      ],
      "name": "pickRandomFirstWord",
      "outputs": [
        {
          "internalType": "string",
          "name": "",
          "type": "string"
        }
      ],
      "stateMutability": "view",
      "type": "function"
    },
    {
      "inputs": [
        {
          "internalType": "uint256",
          "name": "tokenId",
          "type": "uint256"
        }
      ],
      "name": "pickRandomSecondWord",
      "outputs": [
        {
          "internalType": "string",
          "name": "",
          "type": "string"
        }
      ],
      "stateMutability": "view",
      "type": "function"
    },
    {
      "inputs": [
        {
          "internalType": "uint256",
          "name": "tokenId",
          "type": "uint256"
        }
      ],
      "name": "pickRandomThirdWord",
      "outputs": [
        {
          "internalType": "string",
          "name": "",
          "type": "string"
        }
      ],
      "stateMutability": "view",
      "type": "function"
    },
    {
      "inputs": [
        {
          "internalType": "address",
          "name": "from",
          "type": "address"
        },
        {
          "internalType": "address",
          "name": "to",
          "type": "address"
        },
        {
          "internalType": "uint256",
          "name": "tokenId",
          "type": "uint256"
        }
      ],
      "name": "safeTransferFrom",
      "outputs": [],
      "stateMutability": "nonpayable",
      "type": "function"
    },
    {
      "inputs": [
        {
          "internalType": "address",
          "name": "from",
          "type": "address"
        },
        {
          "internalType": "address",
          "name": "to",
          "type": "address"
        },
        {
          "internalType": "uint256",
          "name": "tokenId",
          "type": "uint256"
        },
        {
          "internalType": "bytes",
          "name": "_data",
          "type": "bytes"
        }
      ],
      "name": "safeTransferFrom",
      "outputs": [],
      "stateMutability": "nonpayable",
      "type": "function"
    },
    {
      "inputs": [
        {
          "internalType": "address",
          "name": "operator",
          "type": "address"
        },
        {
          "internalType": "bool",
          "name": "approved",
          "type": "bool"
        }
      ],
      "name": "setApprovalForAll",
      "outputs": [],
      "stateMutability": "nonpayable",
      "type": "function"
    },
    {
      "inputs": [
        {
          "internalType": "bytes4",
          "name": "interfaceId",
          "type": "bytes4"
        }
      ],
      "name": "supportsInterface",
      "outputs": [
        {
          "internalType": "bool",
          "name": "",
          "type": "bool"
        }
      ],
      "stateMutability": "view",
      "type": "function"
    },
    {
      "inputs": [],
      "name": "symbol",
      "outputs": [
        {
          "internalType": "string",
          "name": "",
          "type": "string"
        }
      ],
      "stateMutability": "view",
      "type": "function"
    },
    {
      "inputs": [
        {
          "internalType": "uint256",
          "name": "tokenId",
          "type": "uint256"
        }
      ],
      "name": "tokenURI",
      "outputs": [
        {
          "internalType": "string",
          "name": "",
          "type": "string"
        }
      ],
      "stateMutability": "view",
      "type": "function"
    },
    {
      "inputs": [
        {
          "internalType": "address",
          "name": "from",
          "type": "address"
        },
        {
          "internalType": "address",
          "name": "to",
          "type": "address"
        },
        {
          "internalType": "uint256",
          "name": "tokenId",
          "type": "uint256"
        }
      ],
      "name": "transferFrom",
      "outputs": [],
      "stateMutability": "nonpayable",
      "type": "function"
    }
  ],
  "bytecode": "0x608060405260405180610160016040528061012f81526020016200441761012f91396008908051906020019062000038929190620006cc565b506040518060400160405280600d81526020017f3c2f746578743e3c2f7376673e000000000000000000000000000000000000008152506009908051906020019062000086929190620006cc565b506040518060c001604052806040518060400160405280600681526020017f4e6f2e31323a000000000000000000000000000000000000000000000000000081525081526020016040518060400160405280600681526020017f4e6f2e34353a000000000000000000000000000000000000000000000000000081525081526020016040518060400160405280600681526020017f4e6f2e37383a000000000000000000000000000000000000000000000000000081525081526020016040518060400160405280600681526020017f4e6f2e38393a000000000000000000000000000000000000000000000000000081525081526020016040518060400160405280600681526020017f4e6f2e39393a000000000000000000000000000000000000000000000000000081525081526020016040518060400160405280600781526020017f4e6f2e3130303a00000000000000000000000000000000000000000000000000815250815250600a906006620002049291906200075d565b506040518060c001604052806040518060400160405280600381526020017f746865000000000000000000000000000000000000000000000000000000000081525081526020016040518060400160405280600781526020017f7370656369616c0000000000000000000000000000000000000000000000000081525081526020016040518060400160405280600b81526020017f496e6372656469626c657300000000000000000000000000000000000000000081525081526020016040518060400160405280600781526020017f416d617a696e670000000000000000000000000000000000000000000000000081525081526020016040518060400160405280600481526020017f4461726b0000000000000000000000000000000000000000000000000000000081525081526020016040518060400160405280600581526020017f6861707079000000000000000000000000000000000000000000000000000000815250815250600b906006620003829291906200075d565b506040518060c001604052806040518060400160405280600381526020017f444f47000000000000000000000000000000000000000000000000000000000081525081526020016040518060400160405280600381526020017f434154000000000000000000000000000000000000000000000000000000000081525081526020016040518060400160405280600781526020017f456d7065726f720000000000000000000000000000000000000000000000000081525081526020016040518060400160405280600581526020017f576f726c6400000000000000000000000000000000000000000000000000000081525081526020016040518060400160405280600381526020017f4e4654000000000000000000000000000000000000000000000000000000000081525081526020016040518060400160405280600481526020017f4865726f00000000000000000000000000000000000000000000000000000000815250815250600c906006620005009291906200075d565b503480156200050e57600080fd5b506040518060400160405280600981526020017f5371756172654e465400000000000000000000000000000000000000000000008152506040518060400160405280600681526020017f5351554152450000000000000000000000000000000000000000000000000000815250816000908051906020019062000593929190620006cc565b508060019080519060200190620005ac929190620006cc565b505050620005fa6040518060400160405280601881526020017f54686973206973206d79204e465420636f6e74726163742e00000000000000008152506200060060201b620010df1760201c565b6200097e565b620006a08160405160240162000617919062000892565b6040516020818303038152906040527f41304fac000000000000000000000000000000000000000000000000000000007bffffffffffffffffffffffffffffffffffffffffffffffffffffffff19166020820180517bffffffffffffffffffffffffffffffffffffffffffffffffffffffff8381831617835250505050620006a360201b60201c565b50565b60008151905060006a636f6e736f6c652e6c6f679050602083016000808483855afa5050505050565b828054620006da9062000908565b90600052602060002090601f016020900481019282620006fe57600085556200074a565b82601f106200071957805160ff19168380011785556200074a565b828001600101855582156200074a579182015b82811115620007495782518255916020019190600101906200072c565b5b509050620007599190620007c4565b5090565b828054828255906000526020600020908101928215620007b1579160200282015b82811115620007b05782518290805190602001906200079f929190620006cc565b50916020019190600101906200077e565b5b509050620007c09190620007e3565b5090565b5b80821115620007df576000816000905550600101620007c5565b5090565b5b80821115620008075760008181620007fd91906200080b565b50600101620007e4565b5090565b508054620008199062000908565b6000825580601f106200082d57506200084e565b601f0160209004906000526020600020908101906200084d9190620007c4565b5b50565b60006200085e82620008b6565b6200086a8185620008c1565b93506200087c818560208601620008d2565b62000887816200096d565b840191505092915050565b60006020820190508181036000830152620008ae818462000851565b905092915050565b600081519050919050565b600082825260208201905092915050565b60005b83811015620008f2578082015181840152602081019050620008d5565b8381111562000902576000848401525b50505050565b600060028204905060018216806200092157607f821691505b602082108114156200093857620009376200093e565b5b50919050565b7f4e487b7100000000000000000000000000000000000000000000000000000000600052602260045260246000fd5b6000601f19601f8301169050919050565b613a89806200098e6000396000f3fe608060405234801561001057600080fd5b506004361061010b5760003560e01c806370a08231116100a2578063b88d4fde11610071578063b88d4fde146102dc578063c575757a146102f8578063c87b56dd14610328578063de9d132f14610358578063e985e9c5146103625761010b565b806370a082311461024257806395d89b4114610272578063a22cb46514610290578063b187301f146102ac5761010b565b806323b872dd116100de57806323b872dd146101aa5780632de38d68146101c657806342842e0e146101f65780636352211e146102125761010b565b806301ffc9a71461011057806306fdde0314610140578063081812fc1461015e578063095ea7b31461018e575b600080fd5b61012a600480360381019061012591906125a7565b610392565b6040516101379190612c71565b60405180910390f35b610148610474565b6040516101559190612c8c565b60405180910390f35b610178600480360381019061017391906125f9565b610506565b6040516101859190612c0a565b60405180910390f35b6101a860048036038101906101a3919061256b565b61058b565b005b6101c460048036038101906101bf9190612465565b6106a3565b005b6101e060048036038101906101db91906125f9565b610703565b6040516101ed9190612c8c565b60405180910390f35b610210600480360381019061020b9190612465565b61089f565b005b61022c600480360381019061022791906125f9565b6108bf565b6040516102399190612c0a565b60405180910390f35b61025c60048036038101906102579190612400565b610971565b6040516102699190612f1c565b60405180910390f35b61027a610a29565b6040516102879190612c8c565b60405180910390f35b6102aa60048036038101906102a5919061252f565b610abb565b005b6102c660048036038101906102c191906125f9565b610ad1565b6040516102d39190612c8c565b60405180910390f35b6102f660048036038101906102f191906124b4565b610bef565b005b610312600480360381019061030d91906125f9565b610c51565b60405161031f9190612c8c565b60405180910390f35b610342600480360381019061033d91906125f9565b610d6f565b60405161034f9190612c8c565b60405180910390f35b610360610ec1565b005b61037c60048036038101906103779190612429565b61104b565b6040516103899190612c71565b60405180910390f35b60007f80ac58cd000000000000000000000000000000000000000000000000000000007bffffffffffffffffffffffffffffffffffffffffffffffffffffffff1916827bffffffffffffffffffffffffffffffffffffffffffffffffffffffff1916148061045d57507f5b5e139f000000000000000000000000000000000000000000000000000000007bffffffffffffffffffffffffffffffffffffffffffffffffffffffff1916827bffffffffffffffffffffffffffffffffffffffffffffffffffffffff1916145b8061046d575061046c82611178565b5b9050919050565b606060008054610483906131b0565b80601f01602080910402602001604051908101604052809291908181526020018280546104af906131b0565b80156104fc5780601f106104d1576101008083540402835291602001916104fc565b820191906000526020600020905b8154815290600101906020018083116104df57829003601f168201915b5050505050905090565b6000610511826111e2565b610550576040517f08c379a000000000000000000000000000000000000000000000000000000000815260040161054790612e9c565b60405180910390fd5b6004600083815260200190815260200160002060009054906101000a900473ffffffffffffffffffffffffffffffffffffffff169050919050565b6000610596826108bf565b90508073ffffffffffffffffffffffffffffffffffffffff168373ffffffffffffffffffffffffffffffffffffffff161415610607576040517f08c379a00000000000000000000000000000000000000000000000000000000081526004016105fe90612edc565b60405180910390fd5b8073ffffffffffffffffffffffffffffffffffffffff1661062661124e565b73ffffffffffffffffffffffffffffffffffffffff16148061065557506106548161064f61124e565b61104b565b5b610694576040517f08c379a000000000000000000000000000000000000000000000000000000000815260040161068b90612ddc565b60405180910390fd5b61069e8383611256565b505050565b6106b46106ae61124e565b8261130f565b6106f3576040517f08c379a00000000000000000000000000000000000000000000000000000000081526004016106ea90612efc565b60405180910390fd5b6106fe8383836113ed565b505050565b6060600061073761071384611654565b6040516020016107239190612bc6565b604051602081830303815290604052611801565b90506107786040518060400160405280600b81526020017f72616e6420736565643a2000000000000000000000000000000000000000000081525082611834565b600a8054905081610789919061325c565b90506107ca6040518060400160405280601181526020017f72616e6420666972737420776f72643a2000000000000000000000000000000081525082611834565b600a8181548110610804577f4e487b7100000000000000000000000000000000000000000000000000000000600052603260045260246000fd5b906000526020600020018054610819906131b0565b80601f0160208091040260200160405190810160405280929190818152602001828054610845906131b0565b80156108925780601f1061086757610100808354040283529160200191610892565b820191906000526020600020905b81548152906001019060200180831161087557829003601f168201915b5050505050915050919050565b6108ba83838360405180602001604052806000815250610bef565b505050565b6000806002600084815260200190815260200160002060009054906101000a900473ffffffffffffffffffffffffffffffffffffffff169050600073ffffffffffffffffffffffffffffffffffffffff168173ffffffffffffffffffffffffffffffffffffffff161415610968576040517f08c379a000000000000000000000000000000000000000000000000000000000815260040161095f90612e1c565b60405180910390fd5b80915050919050565b60008073ffffffffffffffffffffffffffffffffffffffff168273ffffffffffffffffffffffffffffffffffffffff1614156109e2576040517f08c379a00000000000000000000000000000000000000000000000000000000081526004016109d990612dfc565b60405180910390fd5b600360008373ffffffffffffffffffffffffffffffffffffffff1673ffffffffffffffffffffffffffffffffffffffff168152602001908152602001600020549050919050565b606060018054610a38906131b0565b80601f0160208091040260200160405190810160405280929190818152602001828054610a64906131b0565b8015610ab15780601f10610a8657610100808354040283529160200191610ab1565b820191906000526020600020905b815481529060010190602001808311610a9457829003601f168201915b5050505050905090565b610acd610ac661124e565b83836118d0565b5050565b60606000610b05610ae184611654565b604051602001610af19190612b61565b604051602081830303815290604052611801565b9050600b8054905081610b18919061325c565b9050600b8181548110610b54577f4e487b7100000000000000000000000000000000000000000000000000000000600052603260045260246000fd5b906000526020600020018054610b69906131b0565b80601f0160208091040260200160405190810160405280929190818152602001828054610b95906131b0565b8015610be25780601f10610bb757610100808354040283529160200191610be2565b820191906000526020600020905b815481529060010190602001808311610bc557829003601f168201915b5050505050915050919050565b610c00610bfa61124e565b8361130f565b610c3f576040517f08c379a0000000000000000000000000000000000000000000000000000000008152600401610c3690612efc565b60405180910390fd5b610c4b84848484611a3d565b50505050565b60606000610c85610c6184611654565b604051602001610c719190612b3f565b604051602081830303815290604052611801565b9050600c8054905081610c98919061325c565b9050600c8181548110610cd4577f4e487b7100000000000000000000000000000000000000000000000000000000600052603260045260246000fd5b906000526020600020018054610ce9906131b0565b80601f0160208091040260200160405190810160405280929190818152602001828054610d15906131b0565b8015610d625780601f10610d3757610100808354040283529160200191610d62565b820191906000526020600020905b815481529060010190602001808311610d4557829003601f168201915b5050505050915050919050565b6060610d7a826111e2565b610db9576040517f08c379a0000000000000000000000000000000000000000000000000000000008152600401610db090612e7c565b60405180910390fd5b6000600660008481526020019081526020016000208054610dd9906131b0565b80601f0160208091040260200160405190810160405280929190818152602001828054610e05906131b0565b8015610e525780601f10610e2757610100808354040283529160200191610e52565b820191906000526020600020905b815481529060010190602001808311610e3557829003601f168201915b505050505090506000610e63611a99565b9050600081511415610e79578192505050610ebc565b600082511115610eae578082604051602001610e96929190612ad0565b60405160208183030381529060405292505050610ebc565b610eb784611ab0565b925050505b919050565b6000610ecd6007611b57565b90506000610eda82610703565b90506000610ee783610ad1565b90506000610ef484610c51565b9050600060088484846009604051602001610f13959493929190612af4565b60405160208183030381529060405290506000610f56610f3283611b65565b604051602001610f429190612b83565b604051602081830303815290604052611b65565b9050600081604051602001610f6b9190612be8565b6040516020818303038152906040529050610fba6040518060400160405280601581526020017f0a2d2d2d2d2d2d2d2d2d2d2d2d2d2d2d2d2d2d2d2d00000000000000000000008152506110df565b610fc3816110df565b6110016040518060400160405280601581526020017f2d2d2d2d2d2d2d2d2d2d2d2d2d2d2d2d2d2d2d2d0a00000000000000000000008152506110df565b61100b3388611d23565b6110158782611d41565b6110386040518060600160405280602581526020016139ef602591398833611db5565b6110426007611e54565b50505050505050565b6000600560008473ffffffffffffffffffffffffffffffffffffffff1673ffffffffffffffffffffffffffffffffffffffff16815260200190815260200160002060008373ffffffffffffffffffffffffffffffffffffffff1673ffffffffffffffffffffffffffffffffffffffff16815260200190815260200160002060009054906101000a900460ff16905092915050565b611175816040516024016110f39190612c8c565b6040516020818303038152906040527f41304fac000000000000000000000000000000000000000000000000000000007bffffffffffffffffffffffffffffffffffffffffffffffffffffffff19166020820180517bffffffffffffffffffffffffffffffffffffffffffffffffffffffff8381831617835250505050611e6a565b50565b60007f01ffc9a7000000000000000000000000000000000000000000000000000000007bffffffffffffffffffffffffffffffffffffffffffffffffffffffff1916827bffffffffffffffffffffffffffffffffffffffffffffffffffffffff1916149050919050565b60008073ffffffffffffffffffffffffffffffffffffffff166002600084815260200190815260200160002060009054906101000a900473ffffffffffffffffffffffffffffffffffffffff1673ffffffffffffffffffffffffffffffffffffffff1614159050919050565b600033905090565b816004600083815260200190815260200160002060006101000a81548173ffffffffffffffffffffffffffffffffffffffff021916908373ffffffffffffffffffffffffffffffffffffffff160217905550808273ffffffffffffffffffffffffffffffffffffffff166112c9836108bf565b73ffffffffffffffffffffffffffffffffffffffff167f8c5be1e5ebec7d5bd14f71427d1e84f3dd0314c0f7b2291e5b200ac8c7c3b92560405160405180910390a45050565b600061131a826111e2565b611359576040517f08c379a000000000000000000000000000000000000000000000000000000000815260040161135090612dbc565b60405180910390fd5b6000611364836108bf565b90508073ffffffffffffffffffffffffffffffffffffffff168473ffffffffffffffffffffffffffffffffffffffff1614806113a657506113a5818561104b565b5b806113e457508373ffffffffffffffffffffffffffffffffffffffff166113cc84610506565b73ffffffffffffffffffffffffffffffffffffffff16145b91505092915050565b8273ffffffffffffffffffffffffffffffffffffffff1661140d826108bf565b73ffffffffffffffffffffffffffffffffffffffff1614611463576040517f08c379a000000000000000000000000000000000000000000000000000000000815260040161145a90612d3c565b60405180910390fd5b600073ffffffffffffffffffffffffffffffffffffffff168273ffffffffffffffffffffffffffffffffffffffff1614156114d3576040517f08c379a00000000000000000000000000000000000000000000000000000000081526004016114ca90612d7c565b60405180910390fd5b6114de838383611e93565b6114e9600082611256565b6001600360008573ffffffffffffffffffffffffffffffffffffffff1673ffffffffffffffffffffffffffffffffffffffff168152602001908152602001600020600082825461153991906130c6565b925050819055506001600360008473ffffffffffffffffffffffffffffffffffffffff1673ffffffffffffffffffffffffffffffffffffffff16815260200190815260200160002060008282546115909190612fe5565b92505081905550816002600083815260200190815260200160002060006101000a81548173ffffffffffffffffffffffffffffffffffffffff021916908373ffffffffffffffffffffffffffffffffffffffff160217905550808273ffffffffffffffffffffffffffffffffffffffff168473ffffffffffffffffffffffffffffffffffffffff167fddf252ad1be2c89b69c2b068fc378daa952ba7f163c4a11628f55a4df523b3ef60405160405180910390a461164f838383611e98565b505050565b6060600082141561169c576040518060400160405280600181526020017f300000000000000000000000000000000000000000000000000000000000000081525090506117fc565b600082905060005b600082146116ce5780806116b790613213565b915050600a826116c7919061303b565b91506116a4565b60008167ffffffffffffffff811115611710577f4e487b7100000000000000000000000000000000000000000000000000000000600052604160045260246000fd5b6040519080825280601f01601f1916602001820160405280156117425781602001600182028036833780820191505090505b5090505b600085146117f55760018261175b91906130c6565b9150600a8561176a919061325c565b60306117769190612fe5565b60f81b8183815181106117b2577f4e487b7100000000000000000000000000000000000000000000000000000000600052603260045260246000fd5b60200101907effffffffffffffffffffffffffffffffffffffffffffffffffffffffffffff1916908160001a905350600a856117ee919061303b565b9450611746565b8093505050505b919050565b6000816040516020016118149190612ab9565b6040516020818303038152906040528051906020012060001c9050919050565b6118cc828260405160240161184a929190612cae565b6040516020818303038152906040527f9710a9d0000000000000000000000000000000000000000000000000000000007bffffffffffffffffffffffffffffffffffffffffffffffffffffffff19166020820180517bffffffffffffffffffffffffffffffffffffffffffffffffffffffff8381831617835250505050611e6a565b5050565b8173ffffffffffffffffffffffffffffffffffffffff168373ffffffffffffffffffffffffffffffffffffffff16141561193f576040517f08c379a000000000000000000000000000000000000000000000000000000000815260040161193690612d9c565b60405180910390fd5b80600560008573ffffffffffffffffffffffffffffffffffffffff1673ffffffffffffffffffffffffffffffffffffffff16815260200190815260200160002060008473ffffffffffffffffffffffffffffffffffffffff1673ffffffffffffffffffffffffffffffffffffffff16815260200190815260200160002060006101000a81548160ff0219169083151502179055508173ffffffffffffffffffffffffffffffffffffffff168373ffffffffffffffffffffffffffffffffffffffff167f17307eab39ab6107e8899845ad3d59bd9653f200f220920489ca2b5937696c3183604051611a309190612c71565b60405180910390a3505050565b611a488484846113ed565b611a5484848484611e9d565b611a93576040517f08c379a0000000000000000000000000000000000000000000000000000000008152600401611a8a90612d1c565b60405180910390fd5b50505050565b606060405180602001604052806000815250905090565b6060611abb826111e2565b611afa576040517f08c379a0000000000000000000000000000000000000000000000000000000008152600401611af190612ebc565b60405180910390fd5b6000611b04611a99565b90506000815111611b245760405180602001604052806000815250611b4f565b80611b2e84611654565b604051602001611b3f929190612ad0565b6040516020818303038152906040525b915050919050565b600081600001549050919050565b60606000825190506000811415611b8e5760405180602001604052806000815250915050611d1e565b60006003600283611b9f9190612fe5565b611ba9919061303b565b6004611bb5919061306c565b90506000602082611bc69190612fe5565b67ffffffffffffffff811115611c05577f4e487b7100000000000000000000000000000000000000000000000000000000600052604160045260246000fd5b6040519080825280601f01601f191660200182016040528015611c375781602001600182028036833780820191505090505b5090506000604051806060016040528060408152602001613a14604091399050600181016020830160005b86811015611cdb5760038101905062ffffff818a015116603f8160121c168401518060081b905060ff603f83600c1c1686015116810190508060081b905060ff603f8360061c1686015116810190508060081b905060ff603f831686015116810190508060e01b90508084526004840193505050611c62565b506003860660018114611cf55760028114611d0557611d10565b613d3d60f01b6002830352611d10565b603d60f81b60018303525b508484525050819450505050505b919050565b611d3d828260405180602001604052806000815250612034565b5050565b611d4a826111e2565b611d89576040517f08c379a0000000000000000000000000000000000000000000000000000000008152600401611d8090612e3c565b60405180910390fd5b80600660008481526020019081526020016000209080519060200190611db092919061228c565b505050565b611e4f838383604051602401611dcd93929190612cde565b6040516020818303038152906040527fe3849f79000000000000000000000000000000000000000000000000000000007bffffffffffffffffffffffffffffffffffffffffffffffffffffffff19166020820180517bffffffffffffffffffffffffffffffffffffffffffffffffffffffff8381831617835250505050611e6a565b505050565b6001816000016000828254019250508190555050565b60008151905060006a636f6e736f6c652e6c6f679050602083016000808483855afa5050505050565b505050565b505050565b6000611ebe8473ffffffffffffffffffffffffffffffffffffffff1661208f565b15612027578373ffffffffffffffffffffffffffffffffffffffff1663150b7a02611ee761124e565b8786866040518563ffffffff1660e01b8152600401611f099493929190612c25565b602060405180830381600087803b158015611f2357600080fd5b505af1925050508015611f5457506040513d601f19601f82011682018060405250810190611f5191906125d0565b60015b611fd7573d8060008114611f84576040519150601f19603f3d011682016040523d82523d6000602084013e611f89565b606091505b50600081511415611fcf576040517f08c379a0000000000000000000000000000000000000000000000000000000008152600401611fc690612d1c565b60405180910390fd5b805181602001fd5b63150b7a0260e01b7bffffffffffffffffffffffffffffffffffffffffffffffffffffffff1916817bffffffffffffffffffffffffffffffffffffffffffffffffffffffff19161491505061202c565b600190505b949350505050565b61203e83836120b2565b61204b6000848484611e9d565b61208a576040517f08c379a000000000000000000000000000000000000000000000000000000000815260040161208190612d1c565b60405180910390fd5b505050565b6000808273ffffffffffffffffffffffffffffffffffffffff163b119050919050565b600073ffffffffffffffffffffffffffffffffffffffff168273ffffffffffffffffffffffffffffffffffffffff161415612122576040517f08c379a000000000000000000000000000000000000000000000000000000000815260040161211990612e5c565b60405180910390fd5b61212b816111e2565b1561216b576040517f08c379a000000000000000000000000000000000000000000000000000000000815260040161216290612d5c565b60405180910390fd5b61217760008383611e93565b6001600360008473ffffffffffffffffffffffffffffffffffffffff1673ffffffffffffffffffffffffffffffffffffffff16815260200190815260200160002060008282546121c79190612fe5565b92505081905550816002600083815260200190815260200160002060006101000a81548173ffffffffffffffffffffffffffffffffffffffff021916908373ffffffffffffffffffffffffffffffffffffffff160217905550808273ffffffffffffffffffffffffffffffffffffffff16600073ffffffffffffffffffffffffffffffffffffffff167fddf252ad1be2c89b69c2b068fc378daa952ba7f163c4a11628f55a4df523b3ef60405160405180910390a461228860008383611e98565b5050565b828054612298906131b0565b90600052602060002090601f0160209004810192826122ba5760008555612301565b82601f106122d357805160ff1916838001178555612301565b82800160010185558215612301579182015b828111156123005782518255916020019190600101906122e5565b5b50905061230e9190612312565b5090565b5b8082111561232b576000816000905550600101612313565b5090565b600061234261233d84612f5c565b612f37565b90508281526020810184848401111561235a57600080fd5b61236584828561316e565b509392505050565b60008135905061237c81613992565b92915050565b600081359050612391816139a9565b92915050565b6000813590506123a6816139c0565b92915050565b6000815190506123bb816139c0565b92915050565b600082601f8301126123d257600080fd5b81356123e284826020860161232f565b91505092915050565b6000813590506123fa816139d7565b92915050565b60006020828403121561241257600080fd5b60006124208482850161236d565b91505092915050565b6000806040838503121561243c57600080fd5b600061244a8582860161236d565b925050602061245b8582860161236d565b9150509250929050565b60008060006060848603121561247a57600080fd5b60006124888682870161236d565b93505060206124998682870161236d565b92505060406124aa868287016123eb565b9150509250925092565b600080600080608085870312156124ca57600080fd5b60006124d88782880161236d565b94505060206124e98782880161236d565b93505060406124fa878288016123eb565b925050606085013567ffffffffffffffff81111561251757600080fd5b612523878288016123c1565b91505092959194509250565b6000806040838503121561254257600080fd5b60006125508582860161236d565b925050602061256185828601612382565b9150509250929050565b6000806040838503121561257e57600080fd5b600061258c8582860161236d565b925050602061259d858286016123eb565b9150509250929050565b6000602082840312156125b957600080fd5b60006125c784828501612397565b91505092915050565b6000602082840312156125e257600080fd5b60006125f0848285016123ac565b91505092915050565b60006020828403121561260b57600080fd5b6000612619848285016123eb565b91505092915050565b61262b816130fa565b82525050565b61263a8161310c565b82525050565b600061264b82612fa2565b6126558185612fb8565b935061266581856020860161317d565b61266e81613349565b840191505092915050565b600061268482612fad565b61268e8185612fc9565b935061269e81856020860161317d565b6126a781613349565b840191505092915050565b60006126bd82612fad565b6126c78185612fda565b93506126d781856020860161317d565b80840191505092915050565b600081546126f0816131b0565b6126fa8186612fda565b94506001821660008114612715576001811461272657612759565b60ff19831686528186019350612759565b61272f85612f8d565b60005b8381101561275157815481890152600182019150602081019050612732565b838801955050505b50505092915050565b600061276f603283612fc9565b915061277a8261335a565b604082019050919050565b6000612792602583612fc9565b915061279d826133a9565b604082019050919050565b60006127b5601c83612fc9565b91506127c0826133f8565b602082019050919050565b60006127d8600a83612fda565b91506127e382613421565b600a82019050919050565b60006127fb602483612fc9565b91506128068261344a565b604082019050919050565b600061281e601983612fc9565b915061282982613499565b602082019050919050565b6000612841606383612fda565b915061284c826134c2565b606382019050919050565b6000612864600b83612fda565b915061286f8261355d565b600b82019050919050565b6000612887602c83612fc9565b915061289282613586565b604082019050919050565b60006128aa600c83612fda565b91506128b5826135d5565b600c82019050919050565b60006128cd603883612fc9565b91506128d8826135fe565b604082019050919050565b60006128f0602a83612fc9565b91506128fb8261364d565b604082019050919050565b6000612913602983612fc9565b915061291e8261369c565b604082019050919050565b6000612936602e83612fc9565b9150612941826136eb565b604082019050919050565b6000612959600283612fda565b91506129648261373a565b600282019050919050565b600061297c602083612fc9565b915061298782613763565b602082019050919050565b600061299f603183612fc9565b91506129aa8261378c565b604082019050919050565b60006129c2602c83612fc9565b91506129cd826137db565b604082019050919050565b60006129e5602f83612fc9565b91506129f08261382a565b604082019050919050565b6000612a08600a83612fda565b9150612a1382613879565b600a82019050919050565b6000612a2b602183612fc9565b9150612a36826138a2565b604082019050919050565b6000612a4e600a83612fda565b9150612a59826138f1565b600a82019050919050565b6000612a71601d83612fda565b9150612a7c8261391a565b601d82019050919050565b6000612a94603183612fc9565b9150612a9f82613943565b604082019050919050565b612ab381613164565b82525050565b6000612ac582846126b2565b915081905092915050565b6000612adc82856126b2565b9150612ae882846126b2565b91508190509392505050565b6000612b0082886126e3565b9150612b0c82876126b2565b9150612b1882866126b2565b9150612b2482856126b2565b9150612b3082846126e3565b91508190509695505050505050565b6000612b4a826127cb565b9150612b5682846126b2565b915081905092915050565b6000612b6c82612857565b9150612b7882846126b2565b915081905092915050565b6000612b8e826129fb565b9150612b998261289d565b9150612ba482612834565b9150612bb082846126b2565b9150612bbb8261294c565b915081905092915050565b6000612bd182612a41565b9150612bdd82846126b2565b915081905092915050565b6000612bf382612a64565b9150612bff82846126b2565b915081905092915050565b6000602082019050612c1f6000830184612622565b92915050565b6000608082019050612c3a6000830187612622565b612c476020830186612622565b612c546040830185612aaa565b8181036060830152612c668184612640565b905095945050505050565b6000602082019050612c866000830184612631565b92915050565b60006020820190508181036000830152612ca68184612679565b905092915050565b60006040820190508181036000830152612cc88185612679565b9050612cd76020830184612aaa565b9392505050565b60006060820190508181036000830152612cf88186612679565b9050612d076020830185612aaa565b612d146040830184612622565b949350505050565b60006020820190508181036000830152612d3581612762565b9050919050565b60006020820190508181036000830152612d5581612785565b9050919050565b60006020820190508181036000830152612d75816127a8565b9050919050565b60006020820190508181036000830152612d95816127ee565b9050919050565b60006020820190508181036000830152612db581612811565b9050919050565b60006020820190508181036000830152612dd58161287a565b9050919050565b60006020820190508181036000830152612df5816128c0565b9050919050565b60006020820190508181036000830152612e15816128e3565b9050919050565b60006020820190508181036000830152612e3581612906565b9050919050565b60006020820190508181036000830152612e5581612929565b9050919050565b60006020820190508181036000830152612e758161296f565b9050919050565b60006020820190508181036000830152612e9581612992565b9050919050565b60006020820190508181036000830152612eb5816129b5565b9050919050565b60006020820190508181036000830152612ed5816129d8565b9050919050565b60006020820190508181036000830152612ef581612a1e565b9050919050565b60006020820190508181036000830152612f1581612a87565b9050919050565b6000602082019050612f316000830184612aaa565b92915050565b6000612f41612f52565b9050612f4d82826131e2565b919050565b6000604051905090565b600067ffffffffffffffff821115612f7757612f7661331a565b5b612f8082613349565b9050602081019050919050565b60008190508160005260206000209050919050565b600081519050919050565b600081519050919050565b600082825260208201905092915050565b600082825260208201905092915050565b600081905092915050565b6000612ff082613164565b9150612ffb83613164565b9250827fffffffffffffffffffffffffffffffffffffffffffffffffffffffffffffffff038211156130305761302f61328d565b5b828201905092915050565b600061304682613164565b915061305183613164565b925082613061576130606132bc565b5b828204905092915050565b600061307782613164565b915061308283613164565b9250817fffffffffffffffffffffffffffffffffffffffffffffffffffffffffffffffff04831182151516156130bb576130ba61328d565b5b828202905092915050565b60006130d182613164565b91506130dc83613164565b9250828210156130ef576130ee61328d565b5b828203905092915050565b600061310582613144565b9050919050565b60008115159050919050565b60007fffffffff0000000000000000000000000000000000000000000000000000000082169050919050565b600073ffffffffffffffffffffffffffffffffffffffff82169050919050565b6000819050919050565b82818337600083830152505050565b60005b8381101561319b578082015181840152602081019050613180565b838111156131aa576000848401525b50505050565b600060028204905060018216806131c857607f821691505b602082108114156131dc576131db6132eb565b5b50919050565b6131eb82613349565b810181811067ffffffffffffffff8211171561320a5761320961331a565b5b80604052505050565b600061321e82613164565b91507fffffffffffffffffffffffffffffffffffffffffffffffffffffffffffffffff8214156132515761325061328d565b5b600182019050919050565b600061326782613164565b915061327283613164565b925082613282576132816132bc565b5b828206905092915050565b7f4e487b7100000000000000000000000000000000000000000000000000000000600052601160045260246000fd5b7f4e487b7100000000000000000000000000000000000000000000000000000000600052601260045260246000fd5b7f4e487b7100000000000000000000000000000000000000000000000000000000600052602260045260246000fd5b7f4e487b7100000000000000000000000000000000000000000000000000000000600052604160045260246000fd5b6000601f19601f8301169050919050565b7f4552433732313a207472616e7366657220746f206e6f6e20455243373231526560008201527f63656976657220696d706c656d656e7465720000000000000000000000000000602082015250565b7f4552433732313a207472616e736665722066726f6d20696e636f72726563742060008201527f6f776e6572000000000000000000000000000000000000000000000000000000602082015250565b7f4552433732313a20746f6b656e20616c7265616479206d696e74656400000000600082015250565b7f54484952445f574f524400000000000000000000000000000000000000000000600082015250565b7f4552433732313a207472616e7366657220746f20746865207a65726f2061646460008201527f7265737300000000000000000000000000000000000000000000000000000000602082015250565b7f4552433732313a20617070726f766520746f2063616c6c657200000000000000600082015250565b7f222c20226465736372697074696f6e223a20224120686967686c79206163636c60008201527f61696d656420636f6c6c656374696f6e206f6620737175617265732e222c202260208201527f696d616765223a2022646174613a696d6167652f7376672b786d6c3b6261736560408201527f36342c0000000000000000000000000000000000000000000000000000000000606082015250565b7f5345434f4e445f574f5244000000000000000000000000000000000000000000600082015250565b7f4552433732313a206f70657261746f7220717565727920666f72206e6f6e657860008201527f697374656e7420746f6b656e0000000000000000000000000000000000000000602082015250565b7f636f6d62696e6564576f72640000000000000000000000000000000000000000600082015250565b7f4552433732313a20617070726f76652063616c6c6572206973206e6f74206f7760008201527f6e6572206e6f7220617070726f76656420666f7220616c6c0000000000000000602082015250565b7f4552433732313a2062616c616e636520717565727920666f7220746865207a6560008201527f726f206164647265737300000000000000000000000000000000000000000000602082015250565b7f4552433732313a206f776e657220717565727920666f72206e6f6e657869737460008201527f656e7420746f6b656e0000000000000000000000000000000000000000000000602082015250565b7f45524337323155524953746f726167653a2055524920736574206f66206e6f6e60008201527f6578697374656e7420746f6b656e000000000000000000000000000000000000602082015250565b7f227d000000000000000000000000000000000000000000000000000000000000600082015250565b7f4552433732313a206d696e7420746f20746865207a65726f2061646472657373600082015250565b7f45524337323155524953746f726167653a2055524920717565727920666f722060008201527f6e6f6e6578697374656e7420746f6b656e000000000000000000000000000000602082015250565b7f4552433732313a20617070726f76656420717565727920666f72206e6f6e657860008201527f697374656e7420746f6b656e0000000000000000000000000000000000000000602082015250565b7f4552433732314d657461646174613a2055524920717565727920666f72206e6f60008201527f6e6578697374656e7420746f6b656e0000000000000000000000000000000000602082015250565b7f7b226e616d65223a202200000000000000000000000000000000000000000000600082015250565b7f4552433732313a20617070726f76616c20746f2063757272656e74206f776e6560008201527f7200000000000000000000000000000000000000000000000000000000000000602082015250565b7f46495253545f574f524400000000000000000000000000000000000000000000600082015250565b7f646174613a6170706c69636174696f6e2f6a736f6e3b6261736536342c000000600082015250565b7f4552433732313a207472616e736665722063616c6c6572206973206e6f74206f60008201527f776e6572206e6f7220617070726f766564000000000000000000000000000000602082015250565b61399b816130fa565b81146139a657600080fd5b50565b6139b28161310c565b81146139bd57600080fd5b50565b6139c981613118565b81146139d457600080fd5b50565b6139e081613164565b81146139eb57600080fd5b5056fe416e204e465420772f20494420257320686173206265656e206d696e74656420746f2025734142434445464748494a4b4c4d4e4f505152535455565758595a6162636465666768696a6b6c6d6e6f707172737475767778797a303132333435363738392b2fa26469706673582212207e6c044ccdb9f37cdb690c9b1457962b1ab5841605e0ee0daf9bdcc580f5d37464736f6c634300080400333c73766720786d6c6e733d27687474703a2f2f7777772e77332e6f72672f323030302f73766727207072657365727665417370656374526174696f3d27784d696e594d696e206d656574272076696577426f783d273020302033353020333530273e3c7374796c653e2e62617365207b2066696c6c3a2077686974653b20666f6e742d66616d696c793a2073657269663b20666f6e742d73697a653a20323470783b207d3c2f7374796c653e3c726563742077696474683d273130302527206865696768743d2731303025272066696c6c3d27626c61636b27202f3e3c7465787420783d273530252720793d273530252720636c6173733d27626173652720646f6d696e616e742d626173656c696e653d276d6964646c652720746578742d616e63686f723d276d6964646c65273e",
  "linkReferences": {},
  "deployedLinkReferences": {}
}