{
  "_format": "hh-sol-artifact-1",
  "contractName": "MyEpicNFT",
  "sourceName": "contracts/MyEpicNFT.sol",
  "abi": [
    {
      "inputs": [],
      "stateMutability": "nonpayable",
      "type": "constructor"
    },
    {
      "anonymous": false,
      "inputs": [
        {
          "indexed": true,
          "internalType": "address",
          "name": "owner",
          "type": "address"
        },
        {
          "indexed": true,
          "internalType": "address",
          "name": "approved",
          "type": "address"
        },
        {
          "indexed": true,
          "internalType": "uint256",
          "name": "tokenId",
          "type": "uint256"
        }
      ],
      "name": "Approval",
      "type": "event"
    },
    {
      "anonymous": false,
      "inputs": [
        {
          "indexed": true,
          "internalType": "address",
          "name": "owner",
          "type": "address"
        },
        {
          "indexed": true,
          "internalType": "address",
          "name": "operator",
          "type": "address"
        },
        {
          "indexed": false,
          "internalType": "bool",
          "name": "approved",
          "type": "bool"
        }
      ],
      "name": "ApprovalForAll",
      "type": "event"
    },
    {
      "anonymous": false,
      "inputs": [
        {
          "indexed": false,
          "internalType": "address",
          "name": "sender",
          "type": "address"
        },
        {
          "indexed": false,
          "internalType": "uint256",
          "name": "tokenId",
          "type": "uint256"
        }
      ],
      "name": "NewEpicNFTMinted",
      "type": "event"
    },
    {
      "anonymous": false,
      "inputs": [
        {
          "indexed": true,
          "internalType": "address",
          "name": "from",
          "type": "address"
        },
        {
          "indexed": true,
          "internalType": "address",
          "name": "to",
          "type": "address"
        },
        {
          "indexed": true,
          "internalType": "uint256",
          "name": "tokenId",
          "type": "uint256"
        }
      ],
      "name": "Transfer",
      "type": "event"
    },
    {
      "inputs": [
        {
          "internalType": "address",
          "name": "to",
          "type": "address"
        },
        {
          "internalType": "uint256",
          "name": "tokenId",
          "type": "uint256"
        }
      ],
      "name": "approve",
      "outputs": [],
      "stateMutability": "nonpayable",
      "type": "function"
    },
    {
      "inputs": [
        {
          "internalType": "address",
          "name": "owner",
          "type": "address"
        }
      ],
      "name": "balanceOf",
      "outputs": [
        {
          "internalType": "uint256",
          "name": "",
          "type": "uint256"
        }
      ],
      "stateMutability": "view",
      "type": "function"
    },
    {
      "inputs": [
        {
          "internalType": "uint256",
          "name": "tokenId",
          "type": "uint256"
        }
      ],
      "name": "getApproved",
      "outputs": [
        {
          "internalType": "address",
          "name": "",
          "type": "address"
        }
      ],
      "stateMutability": "view",
      "type": "function"
    },
    {
      "inputs": [
        {
          "internalType": "address",
          "name": "owner",
          "type": "address"
        },
        {
          "internalType": "address",
          "name": "operator",
          "type": "address"
        }
      ],
      "name": "isApprovedForAll",
      "outputs": [
        {
          "internalType": "bool",
          "name": "",
          "type": "bool"
        }
      ],
      "stateMutability": "view",
      "type": "function"
    },
    {
      "inputs": [],
      "name": "makeAnEpicNFT",
      "outputs": [],
      "stateMutability": "nonpayable",
      "type": "function"
    },
    {
      "inputs": [],
      "name": "name",
      "outputs": [
        {
          "internalType": "string",
          "name": "",
          "type": "string"
        }
      ],
      "stateMutability": "view",
      "type": "function"
    },
    {
      "inputs": [
        {
          "internalType": "uint256",
          "name": "tokenId",
          "type": "uint256"
        }
      ],
      "name": "ownerOf",
      "outputs": [
        {
          "internalType": "address",
          "name": "",
          "type": "address"
        }
      ],
      "stateMutability": "view",
      "type": "function"
    },
    {
      "inputs": [
        {
          "internalType": "uint256",
          "name": "tokenId",
          "type": "uint256"
        }
      ],
      "name": "pickRandomFirstWord",
      "outputs": [
        {
          "internalType": "string",
          "name": "",
          "type": "string"
        }
      ],
      "stateMutability": "view",
      "type": "function"
    },
    {
      "inputs": [
        {
          "internalType": "uint256",
          "name": "tokenId",
          "type": "uint256"
        }
      ],
      "name": "pickRandomSecondWord",
      "outputs": [
        {
          "internalType": "string",
          "name": "",
          "type": "string"
        }
      ],
      "stateMutability": "view",
      "type": "function"
    },
    {
      "inputs": [
        {
          "internalType": "uint256",
          "name": "tokenId",
          "type": "uint256"
        }
      ],
      "name": "pickRandomThirdWord",
      "outputs": [
        {
          "internalType": "string",
          "name": "",
          "type": "string"
        }
      ],
      "stateMutability": "view",
      "type": "function"
    },
    {
      "inputs": [
        {
          "internalType": "address",
          "name": "from",
          "type": "address"
        },
        {
          "internalType": "address",
          "name": "to",
          "type": "address"
        },
        {
          "internalType": "uint256",
          "name": "tokenId",
          "type": "uint256"
        }
      ],
      "name": "safeTransferFrom",
      "outputs": [],
      "stateMutability": "nonpayable",
      "type": "function"
    },
    {
      "inputs": [
        {
          "internalType": "address",
          "name": "from",
          "type": "address"
        },
        {
          "internalType": "address",
          "name": "to",
          "type": "address"
        },
        {
          "internalType": "uint256",
          "name": "tokenId",
          "type": "uint256"
        },
        {
          "internalType": "bytes",
          "name": "_data",
          "type": "bytes"
        }
      ],
      "name": "safeTransferFrom",
      "outputs": [],
      "stateMutability": "nonpayable",
      "type": "function"
    },
    {
      "inputs": [
        {
          "internalType": "address",
          "name": "operator",
          "type": "address"
        },
        {
          "internalType": "bool",
          "name": "approved",
          "type": "bool"
        }
      ],
      "name": "setApprovalForAll",
      "outputs": [],
      "stateMutability": "nonpayable",
      "type": "function"
    },
    {
      "inputs": [
        {
          "internalType": "bytes4",
          "name": "interfaceId",
          "type": "bytes4"
        }
      ],
      "name": "supportsInterface",
      "outputs": [
        {
          "internalType": "bool",
          "name": "",
          "type": "bool"
        }
      ],
      "stateMutability": "view",
      "type": "function"
    },
    {
      "inputs": [],
      "name": "symbol",
      "outputs": [
        {
          "internalType": "string",
          "name": "",
          "type": "string"
        }
      ],
      "stateMutability": "view",
      "type": "function"
    },
    {
      "inputs": [
        {
          "internalType": "uint256",
          "name": "tokenId",
          "type": "uint256"
        }
      ],
      "name": "tokenURI",
      "outputs": [
        {
          "internalType": "string",
          "name": "",
          "type": "string"
        }
      ],
      "stateMutability": "view",
      "type": "function"
    },
    {
      "inputs": [],
      "name": "totalSupply",
      "outputs": [
        {
          "internalType": "uint256",
          "name": "",
          "type": "uint256"
        }
      ],
      "stateMutability": "view",
      "type": "function"
    },
    {
      "inputs": [
        {
          "internalType": "address",
          "name": "from",
          "type": "address"
        },
        {
          "internalType": "address",
          "name": "to",
          "type": "address"
        },
        {
          "internalType": "uint256",
          "name": "tokenId",
          "type": "uint256"
        }
      ],
      "name": "transferFrom",
      "outputs": [],
      "stateMutability": "nonpayable",
      "type": "function"
    }
  ],
  "bytecode": "0x608060405260405180610160016040528061012f8152602001620044b361012f91396008908051906020019062000038929190620006cc565b506040518060400160405280600d81526020017f3c2f746578743e3c2f7376673e000000000000000000000000000000000000008152506009908051906020019062000086929190620006cc565b506040518060c001604052806040518060400160405280600681526020017f4e6f2e31323a000000000000000000000000000000000000000000000000000081525081526020016040518060400160405280600681526020017f4e6f2e34353a000000000000000000000000000000000000000000000000000081525081526020016040518060400160405280600681526020017f4e6f2e37383a000000000000000000000000000000000000000000000000000081525081526020016040518060400160405280600681526020017f4e6f2e38393a000000000000000000000000000000000000000000000000000081525081526020016040518060400160405280600681526020017f4e6f2e39393a000000000000000000000000000000000000000000000000000081525081526020016040518060400160405280600781526020017f4e6f2e3130303a00000000000000000000000000000000000000000000000000815250815250600a906006620002049291906200075d565b506040518060c001604052806040518060400160405280600381526020017f746865000000000000000000000000000000000000000000000000000000000081525081526020016040518060400160405280600781526020017f7370656369616c0000000000000000000000000000000000000000000000000081525081526020016040518060400160405280600b81526020017f496e6372656469626c657300000000000000000000000000000000000000000081525081526020016040518060400160405280600781526020017f416d617a696e670000000000000000000000000000000000000000000000000081525081526020016040518060400160405280600481526020017f4461726b0000000000000000000000000000000000000000000000000000000081525081526020016040518060400160405280600581526020017f6861707079000000000000000000000000000000000000000000000000000000815250815250600b906006620003829291906200075d565b506040518060c001604052806040518060400160405280600381526020017f444f47000000000000000000000000000000000000000000000000000000000081525081526020016040518060400160405280600381526020017f434154000000000000000000000000000000000000000000000000000000000081525081526020016040518060400160405280600781526020017f456d7065726f720000000000000000000000000000000000000000000000000081525081526020016040518060400160405280600581526020017f576f726c6400000000000000000000000000000000000000000000000000000081525081526020016040518060400160405280600381526020017f4e4654000000000000000000000000000000000000000000000000000000000081525081526020016040518060400160405280600481526020017f4865726f00000000000000000000000000000000000000000000000000000000815250815250600c906006620005009291906200075d565b503480156200050e57600080fd5b506040518060400160405280600981526020017f5371756172654e465400000000000000000000000000000000000000000000008152506040518060400160405280600681526020017f5351554152450000000000000000000000000000000000000000000000000000815250816000908051906020019062000593929190620006cc565b508060019080519060200190620005ac929190620006cc565b505050620005fa6040518060400160405280601881526020017f54686973206973206d79204e465420636f6e74726163742e00000000000000008152506200060060201b620011521760201c565b6200097e565b620006a08160405160240162000617919062000892565b6040516020818303038152906040527f41304fac000000000000000000000000000000000000000000000000000000007bffffffffffffffffffffffffffffffffffffffffffffffffffffffff19166020820180517bffffffffffffffffffffffffffffffffffffffffffffffffffffffff8381831617835250505050620006a360201b60201c565b50565b60008151905060006a636f6e736f6c652e6c6f679050602083016000808483855afa5050505050565b828054620006da9062000908565b90600052602060002090601f016020900481019282620006fe57600085556200074a565b82601f106200071957805160ff19168380011785556200074a565b828001600101855582156200074a579182015b82811115620007495782518255916020019190600101906200072c565b5b509050620007599190620007c4565b5090565b828054828255906000526020600020908101928215620007b1579160200282015b82811115620007b05782518290805190602001906200079f929190620006cc565b50916020019190600101906200077e565b5b509050620007c09190620007e3565b5090565b5b80821115620007df576000816000905550600101620007c5565b5090565b5b80821115620008075760008181620007fd91906200080b565b50600101620007e4565b5090565b508054620008199062000908565b6000825580601f106200082d57506200084e565b601f0160209004906000526020600020908101906200084d9190620007c4565b5b50565b60006200085e82620008b6565b6200086a8185620008c1565b93506200087c818560208601620008d2565b62000887816200096d565b840191505092915050565b60006020820190508181036000830152620008ae818462000851565b905092915050565b600081519050919050565b600082825260208201905092915050565b60005b83811015620008f2578082015181840152602081019050620008d5565b8381111562000902576000848401525b50505050565b600060028204905060018216806200092157607f821691505b602082108114156200093857620009376200093e565b5b50919050565b7f4e487b7100000000000000000000000000000000000000000000000000000000600052602260045260246000fd5b6000601f19601f8301169050919050565b613b25806200098e6000396000f3fe608060405234801561001057600080fd5b50600436106101165760003560e01c806370a08231116100a2578063b88d4fde11610071578063b88d4fde14610305578063c575757a14610321578063c87b56dd14610351578063de9d132f14610381578063e985e9c51461038b57610116565b806370a082311461026b57806395d89b411461029b578063a22cb465146102b9578063b187301f146102d557610116565b806318160ddd116100e957806318160ddd146101b557806323b872dd146101d35780632de38d68146101ef57806342842e0e1461021f5780636352211e1461023b57610116565b806301ffc9a71461011b57806306fdde031461014b578063081812fc14610169578063095ea7b314610199575b600080fd5b6101356004803603810190610130919061261a565b6103bb565b6040516101429190612d0d565b60405180910390f35b61015361049d565b6040516101609190612d28565b60405180910390f35b610183600480360381019061017e919061266c565b61052f565b6040516101909190612c7d565b60405180910390f35b6101b360048036038101906101ae91906125de565b6105b4565b005b6101bd6106cc565b6040516101ca9190612fb8565b60405180910390f35b6101ed60048036038101906101e891906124d8565b6106dd565b005b6102096004803603810190610204919061266c565b61073d565b6040516102169190612d28565b60405180910390f35b610239600480360381019061023491906124d8565b6108d9565b005b6102556004803603810190610250919061266c565b6108f9565b6040516102629190612c7d565b60405180910390f35b61028560048036038101906102809190612473565b6109ab565b6040516102929190612fb8565b60405180910390f35b6102a3610a63565b6040516102b09190612d28565b60405180910390f35b6102d360048036038101906102ce91906125a2565b610af5565b005b6102ef60048036038101906102ea919061266c565b610b0b565b6040516102fc9190612d28565b60405180910390f35b61031f600480360381019061031a9190612527565b610c29565b005b61033b6004803603810190610336919061266c565b610c8b565b6040516103489190612d28565b60405180910390f35b61036b6004803603810190610366919061266c565b610da9565b6040516103789190612d28565b60405180910390f35b610389610efb565b005b6103a560048036038101906103a0919061249c565b6110be565b6040516103b29190612d0d565b60405180910390f35b60007f80ac58cd000000000000000000000000000000000000000000000000000000007bffffffffffffffffffffffffffffffffffffffffffffffffffffffff1916827bffffffffffffffffffffffffffffffffffffffffffffffffffffffff1916148061048657507f5b5e139f000000000000000000000000000000000000000000000000000000007bffffffffffffffffffffffffffffffffffffffffffffffffffffffff1916827bffffffffffffffffffffffffffffffffffffffffffffffffffffffff1916145b806104965750610495826111eb565b5b9050919050565b6060600080546104ac9061324c565b80601f01602080910402602001604051908101604052809291908181526020018280546104d89061324c565b80156105255780601f106104fa57610100808354040283529160200191610525565b820191906000526020600020905b81548152906001019060200180831161050857829003601f168201915b5050505050905090565b600061053a82611255565b610579576040517f08c379a000000000000000000000000000000000000000000000000000000000815260040161057090612f38565b60405180910390fd5b6004600083815260200190815260200160002060009054906101000a900473ffffffffffffffffffffffffffffffffffffffff169050919050565b60006105bf826108f9565b90508073ffffffffffffffffffffffffffffffffffffffff168373ffffffffffffffffffffffffffffffffffffffff161415610630576040517f08c379a000000000000000000000000000000000000000000000000000000000815260040161062790612f78565b60405180910390fd5b8073ffffffffffffffffffffffffffffffffffffffff1661064f6112c1565b73ffffffffffffffffffffffffffffffffffffffff16148061067e575061067d816106786112c1565b6110be565b5b6106bd576040517f08c379a00000000000000000000000000000000000000000000000000000000081526004016106b490612e78565b60405180910390fd5b6106c783836112c9565b505050565b60006106d86007611382565b905090565b6106ee6106e86112c1565b82611390565b61072d576040517f08c379a000000000000000000000000000000000000000000000000000000000815260040161072490612f98565b60405180910390fd5b61073883838361146e565b505050565b6060600061077161074d846116d5565b60405160200161075d9190612c39565b604051602081830303815290604052611882565b90506107b26040518060400160405280600b81526020017f72616e6420736565643a20000000000000000000000000000000000000000000815250826118b5565b600a80549050816107c391906132f8565b90506108046040518060400160405280601181526020017f72616e6420666972737420776f72643a20000000000000000000000000000000815250826118b5565b600a818154811061083e577f4e487b7100000000000000000000000000000000000000000000000000000000600052603260045260246000fd5b9060005260206000200180546108539061324c565b80601f016020809104026020016040519081016040528092919081815260200182805461087f9061324c565b80156108cc5780601f106108a1576101008083540402835291602001916108cc565b820191906000526020600020905b8154815290600101906020018083116108af57829003601f168201915b5050505050915050919050565b6108f483838360405180602001604052806000815250610c29565b505050565b6000806002600084815260200190815260200160002060009054906101000a900473ffffffffffffffffffffffffffffffffffffffff169050600073ffffffffffffffffffffffffffffffffffffffff168173ffffffffffffffffffffffffffffffffffffffff1614156109a2576040517f08c379a000000000000000000000000000000000000000000000000000000000815260040161099990612eb8565b60405180910390fd5b80915050919050565b60008073ffffffffffffffffffffffffffffffffffffffff168273ffffffffffffffffffffffffffffffffffffffff161415610a1c576040517f08c379a0000000000000000000000000000000000000000000000000000000008152600401610a1390612e98565b60405180910390fd5b600360008373ffffffffffffffffffffffffffffffffffffffff1673ffffffffffffffffffffffffffffffffffffffff168152602001908152602001600020549050919050565b606060018054610a729061324c565b80601f0160208091040260200160405190810160405280929190818152602001828054610a9e9061324c565b8015610aeb5780601f10610ac057610100808354040283529160200191610aeb565b820191906000526020600020905b815481529060010190602001808311610ace57829003601f168201915b5050505050905090565b610b07610b006112c1565b8383611951565b5050565b60606000610b3f610b1b846116d5565b604051602001610b2b9190612bd4565b604051602081830303815290604052611882565b9050600b8054905081610b5291906132f8565b9050600b8181548110610b8e577f4e487b7100000000000000000000000000000000000000000000000000000000600052603260045260246000fd5b906000526020600020018054610ba39061324c565b80601f0160208091040260200160405190810160405280929190818152602001828054610bcf9061324c565b8015610c1c5780601f10610bf157610100808354040283529160200191610c1c565b820191906000526020600020905b815481529060010190602001808311610bff57829003601f168201915b5050505050915050919050565b610c3a610c346112c1565b83611390565b610c79576040517f08c379a0000000000000000000000000000000000000000000000000000000008152600401610c7090612f98565b60405180910390fd5b610c8584848484611abe565b50505050565b60606000610cbf610c9b846116d5565b604051602001610cab9190612bb2565b604051602081830303815290604052611882565b9050600c8054905081610cd291906132f8565b9050600c8181548110610d0e577f4e487b7100000000000000000000000000000000000000000000000000000000600052603260045260246000fd5b906000526020600020018054610d239061324c565b80601f0160208091040260200160405190810160405280929190818152602001828054610d4f9061324c565b8015610d9c5780601f10610d7157610100808354040283529160200191610d9c565b820191906000526020600020905b815481529060010190602001808311610d7f57829003601f168201915b5050505050915050919050565b6060610db482611255565b610df3576040517f08c379a0000000000000000000000000000000000000000000000000000000008152600401610dea90612f18565b60405180910390fd5b6000600660008481526020019081526020016000208054610e139061324c565b80601f0160208091040260200160405190810160405280929190818152602001828054610e3f9061324c565b8015610e8c5780601f10610e6157610100808354040283529160200191610e8c565b820191906000526020600020905b815481529060010190602001808311610e6f57829003601f168201915b505050505090506000610e9d611b1a565b9050600081511415610eb3578192505050610ef6565b600082511115610ee8578082604051602001610ed0929190612b43565b60405160208183030381529060405292505050610ef6565b610ef184611b31565b925050505b919050565b6000610f076007611382565b90506000610f148261073d565b90506000610f2183610b0b565b90506000610f2e84610c8b565b9050600060088484846009604051602001610f4d959493929190612b67565b60405160208183030381529060405290506000610f90610f6c83611bd8565b604051602001610f7c9190612bf6565b604051602081830303815290604052611bd8565b9050600081604051602001610fa59190612c5b565b6040516020818303038152906040529050610ff46040518060400160405280601581526020017f0a2d2d2d2d2d2d2d2d2d2d2d2d2d2d2d2d2d2d2d2d0000000000000000000000815250611152565b610ffd81611152565b61103b6040518060400160405280601581526020017f2d2d2d2d2d2d2d2d2d2d2d2d2d2d2d2d2d2d2d2d0a0000000000000000000000815250611152565b6110453388611d96565b61104f8782611db4565b611072604051806060016040528060258152602001613a8b602591398833611e28565b61107c6007611ec7565b7febb98688741ffa4c7589bf325de30cf7becb63de567842e1ccdb6cb949fdc82c33886040516110ad929190612ce4565b60405180910390a150505050505050565b6000600560008473ffffffffffffffffffffffffffffffffffffffff1673ffffffffffffffffffffffffffffffffffffffff16815260200190815260200160002060008373ffffffffffffffffffffffffffffffffffffffff1673ffffffffffffffffffffffffffffffffffffffff16815260200190815260200160002060009054906101000a900460ff16905092915050565b6111e8816040516024016111669190612d28565b6040516020818303038152906040527f41304fac000000000000000000000000000000000000000000000000000000007bffffffffffffffffffffffffffffffffffffffffffffffffffffffff19166020820180517bffffffffffffffffffffffffffffffffffffffffffffffffffffffff8381831617835250505050611edd565b50565b60007f01ffc9a7000000000000000000000000000000000000000000000000000000007bffffffffffffffffffffffffffffffffffffffffffffffffffffffff1916827bffffffffffffffffffffffffffffffffffffffffffffffffffffffff1916149050919050565b60008073ffffffffffffffffffffffffffffffffffffffff166002600084815260200190815260200160002060009054906101000a900473ffffffffffffffffffffffffffffffffffffffff1673ffffffffffffffffffffffffffffffffffffffff1614159050919050565b600033905090565b816004600083815260200190815260200160002060006101000a81548173ffffffffffffffffffffffffffffffffffffffff021916908373ffffffffffffffffffffffffffffffffffffffff160217905550808273ffffffffffffffffffffffffffffffffffffffff1661133c836108f9565b73ffffffffffffffffffffffffffffffffffffffff167f8c5be1e5ebec7d5bd14f71427d1e84f3dd0314c0f7b2291e5b200ac8c7c3b92560405160405180910390a45050565b600081600001549050919050565b600061139b82611255565b6113da576040517f08c379a00000000000000000000000000000000000000000000000000000000081526004016113d190612e58565b60405180910390fd5b60006113e5836108f9565b90508073ffffffffffffffffffffffffffffffffffffffff168473ffffffffffffffffffffffffffffffffffffffff161480611427575061142681856110be565b5b8061146557508373ffffffffffffffffffffffffffffffffffffffff1661144d8461052f565b73ffffffffffffffffffffffffffffffffffffffff16145b91505092915050565b8273ffffffffffffffffffffffffffffffffffffffff1661148e826108f9565b73ffffffffffffffffffffffffffffffffffffffff16146114e4576040517f08c379a00000000000000000000000000000000000000000000000000000000081526004016114db90612dd8565b60405180910390fd5b600073ffffffffffffffffffffffffffffffffffffffff168273ffffffffffffffffffffffffffffffffffffffff161415611554576040517f08c379a000000000000000000000000000000000000000000000000000000000815260040161154b90612e18565b60405180910390fd5b61155f838383611f06565b61156a6000826112c9565b6001600360008573ffffffffffffffffffffffffffffffffffffffff1673ffffffffffffffffffffffffffffffffffffffff16815260200190815260200160002060008282546115ba9190613162565b925050819055506001600360008473ffffffffffffffffffffffffffffffffffffffff1673ffffffffffffffffffffffffffffffffffffffff16815260200190815260200160002060008282546116119190613081565b92505081905550816002600083815260200190815260200160002060006101000a81548173ffffffffffffffffffffffffffffffffffffffff021916908373ffffffffffffffffffffffffffffffffffffffff160217905550808273ffffffffffffffffffffffffffffffffffffffff168473ffffffffffffffffffffffffffffffffffffffff167fddf252ad1be2c89b69c2b068fc378daa952ba7f163c4a11628f55a4df523b3ef60405160405180910390a46116d0838383611f0b565b505050565b6060600082141561171d576040518060400160405280600181526020017f3000000000000000000000000000000000000000000000000000000000000000815250905061187d565b600082905060005b6000821461174f578080611738906132af565b915050600a8261174891906130d7565b9150611725565b60008167ffffffffffffffff811115611791577f4e487b7100000000000000000000000000000000000000000000000000000000600052604160045260246000fd5b6040519080825280601f01601f1916602001820160405280156117c35781602001600182028036833780820191505090505b5090505b60008514611876576001826117dc9190613162565b9150600a856117eb91906132f8565b60306117f79190613081565b60f81b818381518110611833577f4e487b7100000000000000000000000000000000000000000000000000000000600052603260045260246000fd5b60200101907effffffffffffffffffffffffffffffffffffffffffffffffffffffffffffff1916908160001a905350600a8561186f91906130d7565b94506117c7565b8093505050505b919050565b6000816040516020016118959190612b2c565b6040516020818303038152906040528051906020012060001c9050919050565b61194d82826040516024016118cb929190612d4a565b6040516020818303038152906040527f9710a9d0000000000000000000000000000000000000000000000000000000007bffffffffffffffffffffffffffffffffffffffffffffffffffffffff19166020820180517bffffffffffffffffffffffffffffffffffffffffffffffffffffffff8381831617835250505050611edd565b5050565b8173ffffffffffffffffffffffffffffffffffffffff168373ffffffffffffffffffffffffffffffffffffffff1614156119c0576040517f08c379a00000000000000000000000000000000000000000000000000000000081526004016119b790612e38565b60405180910390fd5b80600560008573ffffffffffffffffffffffffffffffffffffffff1673ffffffffffffffffffffffffffffffffffffffff16815260200190815260200160002060008473ffffffffffffffffffffffffffffffffffffffff1673ffffffffffffffffffffffffffffffffffffffff16815260200190815260200160002060006101000a81548160ff0219169083151502179055508173ffffffffffffffffffffffffffffffffffffffff168373ffffffffffffffffffffffffffffffffffffffff167f17307eab39ab6107e8899845ad3d59bd9653f200f220920489ca2b5937696c3183604051611ab19190612d0d565b60405180910390a3505050565b611ac984848461146e565b611ad584848484611f10565b611b14576040517f08c379a0000000000000000000000000000000000000000000000000000000008152600401611b0b90612db8565b60405180910390fd5b50505050565b606060405180602001604052806000815250905090565b6060611b3c82611255565b611b7b576040517f08c379a0000000000000000000000000000000000000000000000000000000008152600401611b7290612f58565b60405180910390fd5b6000611b85611b1a565b90506000815111611ba55760405180602001604052806000815250611bd0565b80611baf846116d5565b604051602001611bc0929190612b43565b6040516020818303038152906040525b915050919050565b60606000825190506000811415611c015760405180602001604052806000815250915050611d91565b60006003600283611c129190613081565b611c1c91906130d7565b6004611c289190613108565b90506000602082611c399190613081565b67ffffffffffffffff811115611c78577f4e487b7100000000000000000000000000000000000000000000000000000000600052604160045260246000fd5b6040519080825280601f01601f191660200182016040528015611caa5781602001600182028036833780820191505090505b5090506000604051806060016040528060408152602001613ab0604091399050600181016020830160005b86811015611d4e5760038101905062ffffff818a015116603f8160121c168401518060081b905060ff603f83600c1c1686015116810190508060081b905060ff603f8360061c1686015116810190508060081b905060ff603f831686015116810190508060e01b90508084526004840193505050611cd5565b506003860660018114611d685760028114611d7857611d83565b613d3d60f01b6002830352611d83565b603d60f81b60018303525b508484525050819450505050505b919050565b611db08282604051806020016040528060008152506120a7565b5050565b611dbd82611255565b611dfc576040517f08c379a0000000000000000000000000000000000000000000000000000000008152600401611df390612ed8565b60405180910390fd5b80600660008481526020019081526020016000209080519060200190611e239291906122ff565b505050565b611ec2838383604051602401611e4093929190612d7a565b6040516020818303038152906040527fe3849f79000000000000000000000000000000000000000000000000000000007bffffffffffffffffffffffffffffffffffffffffffffffffffffffff19166020820180517bffffffffffffffffffffffffffffffffffffffffffffffffffffffff8381831617835250505050611edd565b505050565b6001816000016000828254019250508190555050565b60008151905060006a636f6e736f6c652e6c6f679050602083016000808483855afa5050505050565b505050565b505050565b6000611f318473ffffffffffffffffffffffffffffffffffffffff16612102565b1561209a578373ffffffffffffffffffffffffffffffffffffffff1663150b7a02611f5a6112c1565b8786866040518563ffffffff1660e01b8152600401611f7c9493929190612c98565b602060405180830381600087803b158015611f9657600080fd5b505af1925050508015611fc757506040513d601f19601f82011682018060405250810190611fc49190612643565b60015b61204a573d8060008114611ff7576040519150601f19603f3d011682016040523d82523d6000602084013e611ffc565b606091505b50600081511415612042576040517f08c379a000000000000000000000000000000000000000000000000000000000815260040161203990612db8565b60405180910390fd5b805181602001fd5b63150b7a0260e01b7bffffffffffffffffffffffffffffffffffffffffffffffffffffffff1916817bffffffffffffffffffffffffffffffffffffffffffffffffffffffff19161491505061209f565b600190505b949350505050565b6120b18383612125565b6120be6000848484611f10565b6120fd576040517f08c379a00000000000000000000000000000000000000000000000000000000081526004016120f490612db8565b60405180910390fd5b505050565b6000808273ffffffffffffffffffffffffffffffffffffffff163b119050919050565b600073ffffffffffffffffffffffffffffffffffffffff168273ffffffffffffffffffffffffffffffffffffffff161415612195576040517f08c379a000000000000000000000000000000000000000000000000000000000815260040161218c90612ef8565b60405180910390fd5b61219e81611255565b156121de576040517f08c379a00000000000000000000000000000000000000000000000000000000081526004016121d590612df8565b60405180910390fd5b6121ea60008383611f06565b6001600360008473ffffffffffffffffffffffffffffffffffffffff1673ffffffffffffffffffffffffffffffffffffffff168152602001908152602001600020600082825461223a9190613081565b92505081905550816002600083815260200190815260200160002060006101000a81548173ffffffffffffffffffffffffffffffffffffffff021916908373ffffffffffffffffffffffffffffffffffffffff160217905550808273ffffffffffffffffffffffffffffffffffffffff16600073ffffffffffffffffffffffffffffffffffffffff167fddf252ad1be2c89b69c2b068fc378daa952ba7f163c4a11628f55a4df523b3ef60405160405180910390a46122fb60008383611f0b565b5050565b82805461230b9061324c565b90600052602060002090601f01602090048101928261232d5760008555612374565b82601f1061234657805160ff1916838001178555612374565b82800160010185558215612374579182015b82811115612373578251825591602001919060010190612358565b5b5090506123819190612385565b5090565b5b8082111561239e576000816000905550600101612386565b5090565b60006123b56123b084612ff8565b612fd3565b9050828152602081018484840111156123cd57600080fd5b6123d884828561320a565b509392505050565b6000813590506123ef81613a2e565b92915050565b60008135905061240481613a45565b92915050565b60008135905061241981613a5c565b92915050565b60008151905061242e81613a5c565b92915050565b600082601f83011261244557600080fd5b81356124558482602086016123a2565b91505092915050565b60008135905061246d81613a73565b92915050565b60006020828403121561248557600080fd5b6000612493848285016123e0565b91505092915050565b600080604083850312156124af57600080fd5b60006124bd858286016123e0565b92505060206124ce858286016123e0565b9150509250929050565b6000806000606084860312156124ed57600080fd5b60006124fb868287016123e0565b935050602061250c868287016123e0565b925050604061251d8682870161245e565b9150509250925092565b6000806000806080858703121561253d57600080fd5b600061254b878288016123e0565b945050602061255c878288016123e0565b935050604061256d8782880161245e565b925050606085013567ffffffffffffffff81111561258a57600080fd5b61259687828801612434565b91505092959194509250565b600080604083850312156125b557600080fd5b60006125c3858286016123e0565b92505060206125d4858286016123f5565b9150509250929050565b600080604083850312156125f157600080fd5b60006125ff858286016123e0565b92505060206126108582860161245e565b9150509250929050565b60006020828403121561262c57600080fd5b600061263a8482850161240a565b91505092915050565b60006020828403121561265557600080fd5b60006126638482850161241f565b91505092915050565b60006020828403121561267e57600080fd5b600061268c8482850161245e565b91505092915050565b61269e81613196565b82525050565b6126ad816131a8565b82525050565b60006126be8261303e565b6126c88185613054565b93506126d8818560208601613219565b6126e1816133e5565b840191505092915050565b60006126f782613049565b6127018185613065565b9350612711818560208601613219565b61271a816133e5565b840191505092915050565b600061273082613049565b61273a8185613076565b935061274a818560208601613219565b80840191505092915050565b600081546127638161324c565b61276d8186613076565b945060018216600081146127885760018114612799576127cc565b60ff198316865281860193506127cc565b6127a285613029565b60005b838110156127c4578154818901526001820191506020810190506127a5565b838801955050505b50505092915050565b60006127e2603283613065565b91506127ed826133f6565b604082019050919050565b6000612805602583613065565b915061281082613445565b604082019050919050565b6000612828601c83613065565b915061283382613494565b602082019050919050565b600061284b600a83613076565b9150612856826134bd565b600a82019050919050565b600061286e602483613065565b9150612879826134e6565b604082019050919050565b6000612891601983613065565b915061289c82613535565b602082019050919050565b60006128b4606383613076565b91506128bf8261355e565b606382019050919050565b60006128d7600b83613076565b91506128e2826135f9565b600b82019050919050565b60006128fa602c83613065565b915061290582613622565b604082019050919050565b600061291d600c83613076565b915061292882613671565b600c82019050919050565b6000612940603883613065565b915061294b8261369a565b604082019050919050565b6000612963602a83613065565b915061296e826136e9565b604082019050919050565b6000612986602983613065565b915061299182613738565b604082019050919050565b60006129a9602e83613065565b91506129b482613787565b604082019050919050565b60006129cc600283613076565b91506129d7826137d6565b600282019050919050565b60006129ef602083613065565b91506129fa826137ff565b602082019050919050565b6000612a12603183613065565b9150612a1d82613828565b604082019050919050565b6000612a35602c83613065565b9150612a4082613877565b604082019050919050565b6000612a58602f83613065565b9150612a63826138c6565b604082019050919050565b6000612a7b600a83613076565b9150612a8682613915565b600a82019050919050565b6000612a9e602183613065565b9150612aa98261393e565b604082019050919050565b6000612ac1600a83613076565b9150612acc8261398d565b600a82019050919050565b6000612ae4601d83613076565b9150612aef826139b6565b601d82019050919050565b6000612b07603183613065565b9150612b12826139df565b604082019050919050565b612b2681613200565b82525050565b6000612b388284612725565b915081905092915050565b6000612b4f8285612725565b9150612b5b8284612725565b91508190509392505050565b6000612b738288612756565b9150612b7f8287612725565b9150612b8b8286612725565b9150612b978285612725565b9150612ba38284612756565b91508190509695505050505050565b6000612bbd8261283e565b9150612bc98284612725565b915081905092915050565b6000612bdf826128ca565b9150612beb8284612725565b915081905092915050565b6000612c0182612a6e565b9150612c0c82612910565b9150612c17826128a7565b9150612c238284612725565b9150612c2e826129bf565b915081905092915050565b6000612c4482612ab4565b9150612c508284612725565b915081905092915050565b6000612c6682612ad7565b9150612c728284612725565b915081905092915050565b6000602082019050612c926000830184612695565b92915050565b6000608082019050612cad6000830187612695565b612cba6020830186612695565b612cc76040830185612b1d565b8181036060830152612cd981846126b3565b905095945050505050565b6000604082019050612cf96000830185612695565b612d066020830184612b1d565b9392505050565b6000602082019050612d2260008301846126a4565b92915050565b60006020820190508181036000830152612d4281846126ec565b905092915050565b60006040820190508181036000830152612d6481856126ec565b9050612d736020830184612b1d565b9392505050565b60006060820190508181036000830152612d9481866126ec565b9050612da36020830185612b1d565b612db06040830184612695565b949350505050565b60006020820190508181036000830152612dd1816127d5565b9050919050565b60006020820190508181036000830152612df1816127f8565b9050919050565b60006020820190508181036000830152612e118161281b565b9050919050565b60006020820190508181036000830152612e3181612861565b9050919050565b60006020820190508181036000830152612e5181612884565b9050919050565b60006020820190508181036000830152612e71816128ed565b9050919050565b60006020820190508181036000830152612e9181612933565b9050919050565b60006020820190508181036000830152612eb181612956565b9050919050565b60006020820190508181036000830152612ed181612979565b9050919050565b60006020820190508181036000830152612ef18161299c565b9050919050565b60006020820190508181036000830152612f11816129e2565b9050919050565b60006020820190508181036000830152612f3181612a05565b9050919050565b60006020820190508181036000830152612f5181612a28565b9050919050565b60006020820190508181036000830152612f7181612a4b565b9050919050565b60006020820190508181036000830152612f9181612a91565b9050919050565b60006020820190508181036000830152612fb181612afa565b9050919050565b6000602082019050612fcd6000830184612b1d565b92915050565b6000612fdd612fee565b9050612fe9828261327e565b919050565b6000604051905090565b600067ffffffffffffffff821115613013576130126133b6565b5b61301c826133e5565b9050602081019050919050565b60008190508160005260206000209050919050565b600081519050919050565b600081519050919050565b600082825260208201905092915050565b600082825260208201905092915050565b600081905092915050565b600061308c82613200565b915061309783613200565b9250827fffffffffffffffffffffffffffffffffffffffffffffffffffffffffffffffff038211156130cc576130cb613329565b5b828201905092915050565b60006130e282613200565b91506130ed83613200565b9250826130fd576130fc613358565b5b828204905092915050565b600061311382613200565b915061311e83613200565b9250817fffffffffffffffffffffffffffffffffffffffffffffffffffffffffffffffff048311821515161561315757613156613329565b5b828202905092915050565b600061316d82613200565b915061317883613200565b92508282101561318b5761318a613329565b5b828203905092915050565b60006131a1826131e0565b9050919050565b60008115159050919050565b60007fffffffff0000000000000000000000000000000000000000000000000000000082169050919050565b600073ffffffffffffffffffffffffffffffffffffffff82169050919050565b6000819050919050565b82818337600083830152505050565b60005b8381101561323757808201518184015260208101905061321c565b83811115613246576000848401525b50505050565b6000600282049050600182168061326457607f821691505b6020821081141561327857613277613387565b5b50919050565b613287826133e5565b810181811067ffffffffffffffff821117156132a6576132a56133b6565b5b80604052505050565b60006132ba82613200565b91507fffffffffffffffffffffffffffffffffffffffffffffffffffffffffffffffff8214156132ed576132ec613329565b5b600182019050919050565b600061330382613200565b915061330e83613200565b92508261331e5761331d613358565b5b828206905092915050565b7f4e487b7100000000000000000000000000000000000000000000000000000000600052601160045260246000fd5b7f4e487b7100000000000000000000000000000000000000000000000000000000600052601260045260246000fd5b7f4e487b7100000000000000000000000000000000000000000000000000000000600052602260045260246000fd5b7f4e487b7100000000000000000000000000000000000000000000000000000000600052604160045260246000fd5b6000601f19601f8301169050919050565b7f4552433732313a207472616e7366657220746f206e6f6e20455243373231526560008201527f63656976657220696d706c656d656e7465720000000000000000000000000000602082015250565b7f4552433732313a207472616e736665722066726f6d20696e636f72726563742060008201527f6f776e6572000000000000000000000000000000000000000000000000000000602082015250565b7f4552433732313a20746f6b656e20616c7265616479206d696e74656400000000600082015250565b7f54484952445f574f524400000000000000000000000000000000000000000000600082015250565b7f4552433732313a207472616e7366657220746f20746865207a65726f2061646460008201527f7265737300000000000000000000000000000000000000000000000000000000602082015250565b7f4552433732313a20617070726f766520746f2063616c6c657200000000000000600082015250565b7f222c20226465736372697074696f6e223a20224120686967686c79206163636c60008201527f61696d656420636f6c6c656374696f6e206f6620737175617265732e222c202260208201527f696d616765223a2022646174613a696d6167652f7376672b786d6c3b6261736560408201527f36342c0000000000000000000000000000000000000000000000000000000000606082015250565b7f5345434f4e445f574f5244000000000000000000000000000000000000000000600082015250565b7f4552433732313a206f70657261746f7220717565727920666f72206e6f6e657860008201527f697374656e7420746f6b656e0000000000000000000000000000000000000000602082015250565b7f636f6d62696e6564576f72640000000000000000000000000000000000000000600082015250565b7f4552433732313a20617070726f76652063616c6c6572206973206e6f74206f7760008201527f6e6572206e6f7220617070726f76656420666f7220616c6c0000000000000000602082015250565b7f4552433732313a2062616c616e636520717565727920666f7220746865207a6560008201527f726f206164647265737300000000000000000000000000000000000000000000602082015250565b7f4552433732313a206f776e657220717565727920666f72206e6f6e657869737460008201527f656e7420746f6b656e0000000000000000000000000000000000000000000000602082015250565b7f45524337323155524953746f726167653a2055524920736574206f66206e6f6e60008201527f6578697374656e7420746f6b656e000000000000000000000000000000000000602082015250565b7f227d000000000000000000000000000000000000000000000000000000000000600082015250565b7f4552433732313a206d696e7420746f20746865207a65726f2061646472657373600082015250565b7f45524337323155524953746f726167653a2055524920717565727920666f722060008201527f6e6f6e6578697374656e7420746f6b656e000000000000000000000000000000602082015250565b7f4552433732313a20617070726f76656420717565727920666f72206e6f6e657860008201527f697374656e7420746f6b656e0000000000000000000000000000000000000000602082015250565b7f4552433732314d657461646174613a2055524920717565727920666f72206e6f60008201527f6e6578697374656e7420746f6b656e0000000000000000000000000000000000602082015250565b7f7b226e616d65223a202200000000000000000000000000000000000000000000600082015250565b7f4552433732313a20617070726f76616c20746f2063757272656e74206f776e6560008201527f7200000000000000000000000000000000000000000000000000000000000000602082015250565b7f46495253545f574f524400000000000000000000000000000000000000000000600082015250565b7f646174613a6170706c69636174696f6e2f6a736f6e3b6261736536342c000000600082015250565b7f4552433732313a207472616e736665722063616c6c6572206973206e6f74206f60008201527f776e6572206e6f7220617070726f766564000000000000000000000000000000602082015250565b613a3781613196565b8114613a4257600080fd5b50565b613a4e816131a8565b8114613a5957600080fd5b50565b613a65816131b4565b8114613a7057600080fd5b50565b613a7c81613200565b8114613a8757600080fd5b5056fe416e204e465420772f20494420257320686173206265656e206d696e74656420746f2025734142434445464748494a4b4c4d4e4f505152535455565758595a6162636465666768696a6b6c6d6e6f707172737475767778797a303132333435363738392b2fa264697066735822122008ec17ce6f5521df3a5f19ee08f44382d7b548e8a17875bdc4360ccf02fc1f8964736f6c634300080400333c73766720786d6c6e733d27687474703a2f2f7777772e77332e6f72672f323030302f73766727207072657365727665417370656374526174696f3d27784d696e594d696e206d656574272076696577426f783d273020302033353020333530273e3c7374796c653e2e62617365207b2066696c6c3a2077686974653b20666f6e742d66616d696c793a2073657269663b20666f6e742d73697a653a20323470783b207d3c2f7374796c653e3c726563742077696474683d273130302527206865696768743d2731303025272066696c6c3d27626c61636b27202f3e3c7465787420783d273530252720793d273530252720636c6173733d27626173652720646f6d696e616e742d626173656c696e653d276d6964646c652720746578742d616e63686f723d276d6964646c65273e",
  "linkReferences": {},
  "deployedLinkReferences": {}
}